{
  "contractName": "GGProjectDebug",
  "abi": [
    {
      "constant": true,
      "inputs": [],
      "name": "getWorkItemsLeft",
      "outputs": [
        {
          "name": "",
          "type": "uint256"
        }
      ],
      "payable": false,
      "stateMutability": "view",
      "type": "function"
    },
    {
      "constant": true,
      "inputs": [],
      "name": "getCanForceFinalizeAt",
      "outputs": [
        {
          "name": "",
          "type": "uint64"
        }
      ],
      "payable": false,
      "stateMutability": "view",
      "type": "function"
    },
    {
      "constant": true,
      "inputs": [],
      "name": "getCanForceFinalize",
      "outputs": [
        {
          "name": "",
          "type": "bool"
        }
      ],
      "payable": false,
      "stateMutability": "view",
      "type": "function"
    },
    {
      "constant": false,
      "inputs": [],
      "name": "activate",
      "outputs": [],
      "payable": false,
      "stateMutability": "nonpayable",
      "type": "function"
    },
    {
      "constant": true,
      "inputs": [],
      "name": "disapprovalCommissionFractionThousands",
      "outputs": [
        {
          "name": "",
          "type": "uint16"
        }
      ],
      "payable": false,
      "stateMutability": "view",
      "type": "function"
    },
    {
      "constant": true,
      "inputs": [],
      "name": "approvalCommissionFractionThousands",
      "outputs": [
        {
          "name": "",
          "type": "uint16"
        }
      ],
      "payable": false,
      "stateMutability": "view",
      "type": "function"
    },
    {
      "constant": true,
      "inputs": [],
      "name": "client",
      "outputs": [
        {
          "name": "",
          "type": "address"
        }
      ],
      "payable": false,
      "stateMutability": "view",
      "type": "function"
    },
    {
      "constant": true,
      "inputs": [],
      "name": "getNumPendingItems",
      "outputs": [
        {
          "name": "",
          "type": "uint256"
        }
      ],
      "payable": false,
      "stateMutability": "view",
      "type": "function"
    },
    {
      "constant": true,
      "inputs": [],
      "name": "describe",
      "outputs": [
        {
          "name": "_state",
          "type": "uint8"
        },
        {
          "name": "_totalWorkItems",
          "type": "uint256"
        },
        {
          "name": "_workItemPrice",
          "type": "uint256"
        },
        {
          "name": "_tokenBalance",
          "type": "uint256"
        },
        {
          "name": "_workItemsBalance",
          "type": "uint256"
        },
        {
          "name": "_workItemsLeft",
          "type": "uint256"
        },
        {
          "name": "_requiredInitialTokenBalance",
          "type": "uint256"
        },
        {
          "name": "_canFinalize",
          "type": "bool"
        },
        {
          "name": "_canForceFinalize",
          "type": "bool"
        },
        {
          "name": "_canForceFinalizeAt",
          "type": "uint256"
        }
      ],
      "payable": false,
      "stateMutability": "view",
      "type": "function"
    },
    {
      "constant": true,
      "inputs": [],
      "name": "totalWorkItems",
      "outputs": [
        {
          "name": "",
          "type": "uint32"
        }
      ],
      "payable": false,
      "stateMutability": "view",
      "type": "function"
    },
    {
      "constant": true,
      "inputs": [],
      "name": "workItemPrice",
      "outputs": [
        {
          "name": "",
          "type": "uint256"
        }
      ],
      "payable": false,
      "stateMutability": "view",
      "type": "function"
    },
    {
      "constant": true,
      "inputs": [
        {
          "name": "",
          "type": "uint256"
        }
      ],
      "name": "contractors",
      "outputs": [
        {
          "name": "",
          "type": "address"
        }
      ],
      "payable": false,
      "stateMutability": "view",
      "type": "function"
    },
    {
      "constant": true,
      "inputs": [],
      "name": "getPerformance",
      "outputs": [
        {
          "name": "",
          "type": "address[]"
        },
        {
          "name": "",
          "type": "uint256[]"
        },
        {
          "name": "",
          "type": "uint256[]"
        },
        {
          "name": "",
          "type": "uint256[]"
        }
      ],
      "payable": false,
      "stateMutability": "view",
      "type": "function"
    },
    {
      "constant": true,
      "inputs": [],
      "name": "approvalCommissionBenificiary",
      "outputs": [
        {
          "name": "",
          "type": "address"
        }
      ],
      "payable": false,
      "stateMutability": "view",
      "type": "function"
    },
    {
      "constant": false,
      "inputs": [],
      "name": "finalize",
      "outputs": [],
      "payable": false,
      "stateMutability": "nonpayable",
      "type": "function"
    },
    {
      "constant": true,
      "inputs": [],
      "name": "tokenContract",
      "outputs": [
        {
          "name": "",
          "type": "address"
        }
      ],
      "payable": false,
      "stateMutability": "view",
      "type": "function"
    },
    {
      "constant": true,
      "inputs": [
        {
          "name": "",
          "type": "address"
        }
      ],
      "name": "performanceByContractor",
      "outputs": [
        {
          "name": "isSet",
          "type": "bool"
        },
        {
          "name": "totalItems",
          "type": "uint32"
        },
        {
          "name": "approvedItems",
          "type": "uint32"
        },
        {
          "name": "declinedItems",
          "type": "uint32"
        }
      ],
      "payable": false,
      "stateMutability": "view",
      "type": "function"
    },
    {
      "constant": true,
      "inputs": [],
      "name": "lastFinalizedItemIndex",
      "outputs": [
        {
          "name": "",
          "type": "uint256"
        }
      ],
      "payable": false,
      "stateMutability": "view",
      "type": "function"
    },
    {
      "constant": true,
      "inputs": [],
      "name": "getTokenBalance",
      "outputs": [
        {
          "name": "",
          "type": "uint256"
        }
      ],
      "payable": false,
      "stateMutability": "view",
      "type": "function"
    },
    {
      "constant": true,
      "inputs": [],
      "name": "getRequiredInitialTokenBalance",
      "outputs": [
        {
          "name": "",
          "type": "uint256"
        }
      ],
      "payable": false,
      "stateMutability": "view",
      "type": "function"
    },
    {
      "constant": false,
      "inputs": [
        {
          "name": "contractorAddrs",
          "type": "address[]"
        },
        {
          "name": "totalItems",
          "type": "uint256[]"
        }
      ],
      "name": "updateTotals",
      "outputs": [],
      "payable": false,
      "stateMutability": "nonpayable",
      "type": "function"
    },
    {
      "constant": true,
      "inputs": [],
      "name": "owner",
      "outputs": [
        {
          "name": "",
          "type": "address"
        }
      ],
      "payable": false,
      "stateMutability": "view",
      "type": "function"
    },
    {
      "constant": true,
      "inputs": [],
      "name": "performanceUpdatedAt",
      "outputs": [
        {
          "name": "",
          "type": "uint64"
        }
      ],
      "payable": false,
      "stateMutability": "view",
      "type": "function"
    },
    {
      "constant": true,
      "inputs": [],
      "name": "getCanFinalize",
      "outputs": [
        {
          "name": "",
          "type": "bool"
        }
      ],
      "payable": false,
      "stateMutability": "view",
      "type": "function"
    },
    {
      "constant": true,
      "inputs": [],
      "name": "debugTimestamp",
      "outputs": [
        {
          "name": "",
          "type": "uint64"
        }
      ],
      "payable": false,
      "stateMutability": "view",
      "type": "function"
    },
    {
      "constant": true,
      "inputs": [],
      "name": "state",
      "outputs": [
        {
          "name": "",
          "type": "uint8"
        }
      ],
      "payable": false,
      "stateMutability": "view",
      "type": "function"
    },
    {
      "constant": false,
      "inputs": [
        {
          "name": "contractorAddrs",
          "type": "address[]"
        },
        {
          "name": "approvedItems",
          "type": "uint256[]"
        },
        {
          "name": "declinedItems",
          "type": "uint256[]"
        }
      ],
      "name": "updatePerformance",
      "outputs": [],
      "payable": false,
      "stateMutability": "nonpayable",
      "type": "function"
    },
    {
      "constant": true,
      "inputs": [],
      "name": "hasPendingItems",
      "outputs": [
        {
          "name": "",
          "type": "bool"
        }
      ],
      "payable": false,
      "stateMutability": "view",
      "type": "function"
    },
    {
      "constant": true,
      "inputs": [],
      "name": "autoApprovalTimeoutSec",
      "outputs": [
        {
          "name": "",
          "type": "uint32"
        }
      ],
      "payable": false,
      "stateMutability": "view",
      "type": "function"
    },
    {
      "constant": false,
      "inputs": [
        {
          "name": "maxGas",
          "type": "uint256"
        }
      ],
      "name": "forceFinalize",
      "outputs": [],
      "payable": false,
      "stateMutability": "nonpayable",
      "type": "function"
    },
    {
      "constant": true,
      "inputs": [],
      "name": "disapprovalCommissionBeneficiary",
      "outputs": [
        {
          "name": "",
          "type": "address"
        }
      ],
      "payable": false,
      "stateMutability": "view",
      "type": "function"
    },
    {
      "constant": true,
      "inputs": [],
      "name": "getWorkItemsBalance",
      "outputs": [
        {
          "name": "",
          "type": "uint256"
        }
      ],
      "payable": false,
      "stateMutability": "view",
      "type": "function"
    },
    {
      "constant": true,
      "inputs": [],
      "name": "VERSION",
      "outputs": [
        {
          "name": "",
          "type": "uint16"
        }
      ],
      "payable": false,
      "stateMutability": "view",
      "type": "function"
    },
    {
      "inputs": [
        {
          "name": "_tokenContractAddress",
          "type": "address"
        },
        {
          "name": "_clientAddress",
          "type": "address"
        },
        {
          "name": "_approvalCommissionBenificiaryAddress",
          "type": "address"
        },
        {
          "name": "_disapprovalCommissionBeneficiaryAddress",
          "type": "address"
        },
        {
          "name": "_approvalCommissionFractionThousands",
          "type": "uint256"
        },
        {
          "name": "_disapprovalCommissionFractionThousands",
          "type": "uint256"
        },
        {
          "name": "_totalWorkItems",
          "type": "uint256"
        },
        {
          "name": "_workItemPrice",
          "type": "uint256"
        },
        {
          "name": "_autoApprovalTimeoutSec",
          "type": "uint256"
        }
      ],
      "payable": false,
      "stateMutability": "nonpayable",
      "type": "constructor"
    },
    {
      "anonymous": false,
      "inputs": [],
      "name": "Activated",
      "type": "event"
    },
    {
      "anonymous": false,
      "inputs": [],
      "name": "UpdatedPerformance",
      "type": "event"
    },
    {
      "anonymous": false,
      "inputs": [],
      "name": "Finalized",
      "type": "event"
    },
    {
      "constant": false,
      "inputs": [
        {
          "name": "sec",
          "type": "uint64"
        }
      ],
      "name": "increaseTimeBy",
      "outputs": [],
      "payable": false,
      "stateMutability": "nonpayable",
      "type": "function"
    }
  ],
  "bytecode": "0x606060405260008060006101000a81548160ff021916908360038111156200002357fe5b021790555033600060016101000a81548173ffffffffffffffffffffffffffffffffffffffff021916908373ffffffffffffffffffffffffffffffffffffffff1602179055506000600955602a600a60006101000a81548167ffffffffffffffff021916908367ffffffffffffffff1602179055503415620000a457600080fd5b60405161012080620029588339810160405280805190602001909190805190602001909190805190602001909190805190602001909190805190602001909190805190602001909190805190602001909190805190602001909190805190602001909190505088888888888888888860008973ffffffffffffffffffffffffffffffffffffffff16141515156200013a57600080fd5b60008873ffffffffffffffffffffffffffffffffffffffff16141515156200016157600080fd5b60008773ffffffffffffffffffffffffffffffffffffffff16141515156200018857600080fd5b60008673ffffffffffffffffffffffffffffffffffffffff1614151515620001af57600080fd5b6103e88511151515620001c157600080fd5b6103e88411151515620001d357600080fd5b64010000000083101515620001e757600080fd5b64010000000081101515620001fb57600080fd5b87600160006101000a81548173ffffffffffffffffffffffffffffffffffffffff021916908373ffffffffffffffffffffffffffffffffffffffff16021790555088600260006101000a81548173ffffffffffffffffffffffffffffffffffffffff021916908373ffffffffffffffffffffffffffffffffffffffff16021790555086600360006101000a81548173ffffffffffffffffffffffffffffffffffffffff021916908373ffffffffffffffffffffffffffffffffffffffff16021790555085600460006101000a81548173ffffffffffffffffffffffffffffffffffffffff021916908373ffffffffffffffffffffffffffffffffffffffff16021790555084600460146101000a81548161ffff021916908361ffff16021790555083600460166101000a81548161ffff021916908361ffff16021790555082600460186101000a81548163ffffffff021916908363ffffffff16021790555081600681905550806004601c6101000a81548163ffffffff021916908363ffffffff1602179055505050505050505050505050505050505050506125b480620003a46000396000f3006060604052600436106101ac576000357c0100000000000000000000000000000000000000000000000000000000900463ffffffff16806304621ce8146101b1578063088c00f9146101da5780630d34ca77146102175780630f15f4c0146102445780630f15f59f146102595780631001ffaf1461028a578063109e94cf146102bb5780631977303c146103105780631ad184ff1461033957806329d04065146103b75780632eafe009146103ec5780633481a95a1461041557806342de4e9c1461047857806346439f47146105ba5780634bb278f31461060f57806355a373d6146106245780635878e08614610679578063663fd2ac146106a65780636e26a33f1461073057806382b2e2571461075957806383d6a1d914610782578063877a96b0146107ab5780638da5cb5b146108455780639d0c4fb31461089a578063a3ac0308146108d7578063b63c9e4414610904578063c19d93fb14610941578063c34763a014610978578063d080558214610a52578063d328c43014610a7f578063e7b6ecff14610ab4578063ea9b941314610ad7578063f53e2c2414610b2c578063ffa1ad7414610b55575b600080fd5b34156101bc57600080fd5b6101c4610b86565b6040518082815260200191505060405180910390f35b34156101e557600080fd5b6101ed610bbf565b604051808267ffffffffffffffff1667ffffffffffffffff16815260200191505060405180910390f35b341561022257600080fd5b61022a610c0f565b604051808215151515815260200191505060405180910390f35b341561024f57600080fd5b610257610c7b565b005b341561026457600080fd5b61026c610db7565b604051808261ffff1661ffff16815260200191505060405180910390f35b341561029557600080fd5b61029d610dcb565b604051808261ffff1661ffff16815260200191505060405180910390f35b34156102c657600080fd5b6102ce610ddf565b604051808273ffffffffffffffffffffffffffffffffffffffff1673ffffffffffffffffffffffffffffffffffffffff16815260200191505060405180910390f35b341561031b57600080fd5b610323610e05565b6040518082815260200191505060405180910390f35b341561034457600080fd5b61034c610e23565b604051808b600381111561035c57fe5b60ff1681526020018a815260200189815260200188815260200187815260200186815260200185815260200184151515158152602001831515151581526020018281526020019a505050505050505050505060405180910390f35b34156103c257600080fd5b6103ca610ebf565b604051808263ffffffff1663ffffffff16815260200191505060405180910390f35b34156103f757600080fd5b6103ff610ed5565b6040518082815260200191505060405180910390f35b341561042057600080fd5b6104366004808035906020019091905050610edb565b604051808273ffffffffffffffffffffffffffffffffffffffff1673ffffffffffffffffffffffffffffffffffffffff16815260200191505060405180910390f35b341561048357600080fd5b61048b610f1a565b6040518080602001806020018060200180602001858103855289818151815260200191508051906020019060200280838360005b838110156104da5780820151818401526020810190506104bf565b50505050905001858103845288818151815260200191508051906020019060200280838360005b8381101561051c578082015181840152602081019050610501565b50505050905001858103835287818151815260200191508051906020019060200280838360005b8381101561055e578082015181840152602081019050610543565b50505050905001858103825286818151815260200191508051906020019060200280838360005b838110156105a0578082015181840152602081019050610585565b505050509050019850505050505050505060405180910390f35b34156105c557600080fd5b6105cd6111a3565b604051808273ffffffffffffffffffffffffffffffffffffffff1673ffffffffffffffffffffffffffffffffffffffff16815260200191505060405180910390f35b341561061a57600080fd5b6106226111c9565b005b341561062f57600080fd5b610637611279565b604051808273ffffffffffffffffffffffffffffffffffffffff1673ffffffffffffffffffffffffffffffffffffffff16815260200191505060405180910390f35b341561068457600080fd5b6106a4600480803567ffffffffffffffff1690602001909190505061129f565b005b34156106b157600080fd5b6106dd600480803573ffffffffffffffffffffffffffffffffffffffff169060200190919050506112e4565b60405180851515151581526020018463ffffffff1663ffffffff1681526020018363ffffffff1663ffffffff1681526020018263ffffffff1663ffffffff16815260200194505050505060405180910390f35b341561073b57600080fd5b610743611351565b6040518082815260200191505060405180910390f35b341561076457600080fd5b61076c611357565b6040518082815260200191505060405180910390f35b341561078d57600080fd5b61079561143e565b6040518082815260200191505060405180910390f35b34156107b657600080fd5b61084360048080359060200190820180359060200190808060200260200160405190810160405280939291908181526020018383602002808284378201915050505050509190803590602001908201803590602001908080602002602001604051908101604052809392919081815260200183836020028082843782019150505050505091905050611472565b005b341561085057600080fd5b610858611757565b604051808273ffffffffffffffffffffffffffffffffffffffff1673ffffffffffffffffffffffffffffffffffffffff16815260200191505060405180910390f35b34156108a557600080fd5b6108ad61177d565b604051808267ffffffffffffffff1667ffffffffffffffff16815260200191505060405180910390f35b34156108e257600080fd5b6108ea611797565b604051808215151515815260200191505060405180910390f35b341561090f57600080fd5b6109176117a7565b604051808267ffffffffffffffff1667ffffffffffffffff16815260200191505060405180910390f35b341561094c57600080fd5b6109546117c1565b6040518082600381111561096457fe5b60ff16815260200191505060405180910390f35b341561098357600080fd5b610a5060048080359060200190820180359060200190808060200260200160405190810160405280939291908181526020018383602002808284378201915050505050509190803590602001908201803590602001908080602002602001604051908101604052809392919081815260200183836020028082843782019150505050505091908035906020019082018035906020019080806020026020016040519081016040528093929190818152602001838360200280828437820191505050505050919050506117d3565b005b3415610a5d57600080fd5b610a65611caf565b604051808215151515815260200191505060405180910390f35b3415610a8a57600080fd5b610a92611cc1565b604051808263ffffffff1663ffffffff16815260200191505060405180910390f35b3415610abf57600080fd5b610ad56004808035906020019091905050611cd7565b005b3415610ae257600080fd5b610aea611f3b565b604051808273ffffffffffffffffffffffffffffffffffffffff1673ffffffffffffffffffffffffffffffffffffffff16815260200191505060405180910390f35b3415610b3757600080fd5b610b3f611f61565b6040518082815260200191505060405180910390f35b3415610b6057600080fd5b610b68611f84565b604051808261ffff1661ffff16815260200191505060405180910390f35b6000806000610b93611f89565b80925081935050508082600460189054906101000a900463ffffffff16030363ffffffff169250505090565b6000610bc9611caf565b1515610bd85760009050610c0c565b6004601c9054906101000a900463ffffffff1663ffffffff16600560009054906101000a900467ffffffffffffffff160190505b90565b600060026003811115610c1e57fe5b6000809054906101000a900460ff166003811115610c3857fe5b1480610c765750610c47611caf565b8015610c755750610c56610bbf565b67ffffffffffffffff16610c686120a5565b67ffffffffffffffff1610155b5b905090565b600080600160009054906101000a900473ffffffffffffffffffffffffffffffffffffffff168073ffffffffffffffffffffffffffffffffffffffff163373ffffffffffffffffffffffffffffffffffffffff16141515610cdb57600080fd5b6000806003811115610ce957fe5b6000809054906101000a900460ff166003811115610d0357fe5b141515610d0f57600080fd5b610d17611357565b9350610d2161143e565b9250828410151515610d3257600080fd5b60016000806101000a81548160ff02191690836003811115610d5057fe5b0217905550610d5d6120a5565b600560006101000a81548167ffffffffffffffff021916908367ffffffffffffffff1602179055507fed1cd0670ee0c0017f550451a038818c696d0b6a9d6ce5b369e44275573cf9b060405160405180910390a150505050565b600460169054906101000a900461ffff1681565b600460149054906101000a900461ffff1681565b600160009054906101000a900473ffffffffffffffffffffffffffffffffffffffff1681565b600080610e10611f89565b9050809150508063ffffffff1691505090565b6000806000806000806000806000806000809054906101000a900460ff169950600460189054906101000a900463ffffffff1663ffffffff1698506006549750610e6b611357565b9650610e75611f61565b9550610e7f610b86565b9450610e8961143e565b9350610e93611797565b9250610e9d610c0f565b9150610ea7610bbf565b67ffffffffffffffff16905090919293949596979899565b600460189054906101000a900463ffffffff1681565b60065481565b600881815481101515610eea57fe5b90600052602060002090016000915054906101000a900473ffffffffffffffffffffffffffffffffffffffff1681565b610f2261250f565b610f2a612523565b610f32612523565b610f3a612523565b6000610f44612523565b610f4c612523565b610f54612523565b6000806000600880549050965086604051805910610f6f5750595b9080825280602002602001820160405250955086604051805910610f905750595b9080825280602002602001820160405250945086604051805910610fb15750595b90808252806020026020018201604052509350600092505b8683101561110157600883815481101515610fe057fe5b906000526020600020900160009054906101000a900473ffffffffffffffffffffffffffffffffffffffff169150600760008373ffffffffffffffffffffffffffffffffffffffff1673ffffffffffffffffffffffffffffffffffffffff16815260200190815260200160002090508060000160019054906101000a900463ffffffff1663ffffffff16868481518110151561107857fe5b90602001906020020181815250508060000160059054906101000a900463ffffffff1663ffffffff1685848151811015156110af57fe5b90602001906020020181815250508060000160099054906101000a900463ffffffff1663ffffffff1684848151811015156110e657fe5b90602001906020020181815250508280600101935050610fc9565b60088686868380548060200260200160405190810160405280929190818152602001828054801561118757602002820191906000526020600020905b8160009054906101000a900473ffffffffffffffffffffffffffffffffffffffff1673ffffffffffffffffffffffffffffffffffffffff168152602001906001019080831161113d575b505050505093509a509a509a509a505050505050505090919293565b600360009054906101000a900473ffffffffffffffffffffffffffffffffffffffff1681565b600160009054906101000a900473ffffffffffffffffffffffffffffffffffffffff168073ffffffffffffffffffffffffffffffffffffffff163373ffffffffffffffffffffffffffffffffffffffff1614151561122657600080fd5b600180600381111561123457fe5b6000809054906101000a900460ff16600381111561124e57fe5b14151561125a57600080fd5b611262611797565b151561126d57600080fd5b6112756120c3565b5050565b600260009054906101000a900473ffffffffffffffffffffffffffffffffffffffff1681565b80600a60008282829054906101000a900467ffffffffffffffff160192506101000a81548167ffffffffffffffff021916908367ffffffffffffffff16021790555050565b60076020528060005260406000206000915090508060000160009054906101000a900460ff16908060000160019054906101000a900463ffffffff16908060000160059054906101000a900463ffffffff16908060000160099054906101000a900463ffffffff16905084565b60095481565b6000600260009054906101000a900473ffffffffffffffffffffffffffffffffffffffff1673ffffffffffffffffffffffffffffffffffffffff166370a08231306000604051602001526040518263ffffffff167c0100000000000000000000000000000000000000000000000000000000028152600401808273ffffffffffffffffffffffffffffffffffffffff1673ffffffffffffffffffffffffffffffffffffffff168152602001915050602060405180830381600087803b151561141e57600080fd5b6102c65a03f1151561142f57600080fd5b50505060405180519050905090565b600061146d600460189054906101000a900463ffffffff1663ffffffff1660065461211c90919063ffffffff16565b905090565b600080600080600080600060019054906101000a900473ffffffffffffffffffffffffffffffffffffffff168073ffffffffffffffffffffffffffffffffffffffff163373ffffffffffffffffffffffffffffffffffffffff161415156114d857600080fd5b60018060038111156114e657fe5b6000809054906101000a900460ff16600381111561150057fe5b14151561150c57600080fd5b88518a5114151561151c57600080fd5b600097505b89518810156116a457898881518110151561153857fe5b906020019060200201519650600760008873ffffffffffffffffffffffffffffffffffffffff1673ffffffffffffffffffffffffffffffffffffffff16815260200190815260200160002095508560000160009054906101000a900460ff16151561161e5760018660000160006101000a81548160ff021916908315150217905550600880548060010182816115ce9190612537565b9160005260206000209001600089909190916101000a81548173ffffffffffffffffffffffffffffffffffffffff021916908373ffffffffffffffffffffffffffffffffffffffff160217905550505b888881518110151561162c57fe5b9060200190602002015194508560000160019054906101000a900463ffffffff1663ffffffff16851015151561166157600080fd5b6401000000008510151561167457600080fd5b848660000160016101000a81548163ffffffff021916908363ffffffff1602179055508780600101985050611521565b6116ac611f89565b8163ffffffff1691508063ffffffff1690508094508195505050600460189054906101000a900463ffffffff1663ffffffff16838501111515156116ef57600080fd5b6116f76120a5565b600560006101000a81548167ffffffffffffffff021916908367ffffffffffffffff1602179055507fa2a39cf902dc415af242340d20e57d1afb51e76030e02c5f0053b569b1ee857860405160405180910390a150505050505050505050565b600060019054906101000a900473ffffffffffffffffffffffffffffffffffffffff1681565b600560009054906101000a900467ffffffffffffffff1681565b60006117a1611caf565b15905090565b600a60009054906101000a900467ffffffffffffffff1681565b6000809054906101000a900460ff1681565b600080600080600080600080600080600160009054906101000a900473ffffffffffffffffffffffffffffffffffffffff168073ffffffffffffffffffffffffffffffffffffffff163373ffffffffffffffffffffffffffffffffffffffff1614151561183f57600080fd5b600180600381111561184d57fe5b6000809054906101000a900460ff16600381111561186757fe5b14151561187357600080fd5b8d518f5114151561188357600080fd5b8c518f5114151561189357600080fd5b60009b505b8e518c1015611c42578e8c8151811015156118af57fe5b906020019060200201519a50600760008c73ffffffffffffffffffffffffffffffffffffffff1673ffffffffffffffffffffffffffffffffffffffff16815260200190815260200160002099508960000160009054906101000a900460ff16151561191957600080fd5b8d8c81518110151561192757fe5b9060200190602002015198508c8c81518110151561194157fe5b9060200190602002015197508960000160059054906101000a900463ffffffff1663ffffffff16891015151561197657600080fd5b8960000160099054906101000a900463ffffffff1663ffffffff16881015151561199f57600080fd5b6119b2888a61214f90919063ffffffff16565b96508960000160019054906101000a900463ffffffff1663ffffffff16871415156119dc57600080fd5b8960000160059054906101000a900463ffffffff1663ffffffff16890395508960000160099054906101000a900463ffffffff1663ffffffff1688039450600086141515611a7e57611a398660065461211c90919063ffffffff16565b9350611a7d84600460149054906101000a900461ffff1661ffff16600360009054906101000a900473ffffffffffffffffffffffffffffffffffffffff168e61216d565b5b600085141515611bef57611ad76103e8611ac9600460169054906101000a900461ffff1661ffff16611abb8960065461211c90919063ffffffff16565b61211c90919063ffffffff16565b6123b090919063ffffffff16565b9250600260009054906101000a900473ffffffffffffffffffffffffffffffffffffffff1673ffffffffffffffffffffffffffffffffffffffff1663a9059cbb600460009054906101000a900473ffffffffffffffffffffffffffffffffffffffff16856000604051602001526040518363ffffffff167c0100000000000000000000000000000000000000000000000000000000028152600401808373ffffffffffffffffffffffffffffffffffffffff1673ffffffffffffffffffffffffffffffffffffffff16815260200182815260200192505050602060405180830381600087803b1515611bc857600080fd5b6102c65a03f11515611bd957600080fd5b505050604051805190501515611bee57600080fd5b5b888a60000160056101000a81548163ffffffff021916908363ffffffff160217905550878a60000160096101000a81548163ffffffff021916908363ffffffff1602179055508b806001019c5050611898565b611c4a6120a5565b600560006101000a81548167ffffffffffffffff021916908367ffffffffffffffff1602179055507fa2a39cf902dc415af242340d20e57d1afb51e76030e02c5f0053b569b1ee857860405160405180910390a1505050505050505050505050505050565b600080611cba610e05565b1415905090565b6004601c9054906101000a900463ffffffff1681565b600080600080600080619c405a01955060026003811115611cf457fe5b6000809054906101000a900460ff166003811115611d0e57fe5b1480611d1e5750611d1d610c0f565b5b1515611d2957600080fd5b60095494505b60088054905085108015611d445750865a8703105b15611ebe57600885815481101515611d5857fe5b906000526020600020900160009054906101000a900473ffffffffffffffffffffffffffffffffffffffff169350600760008573ffffffffffffffffffffffffffffffffffffffff1673ffffffffffffffffffffffffffffffffffffffff16815260200190815260200160002092508260000160099054906101000a900463ffffffff168360000160059054906101000a900463ffffffff168460000160019054906101000a900463ffffffff160303915060008263ffffffff161115611eb157818360000160058282829054906101000a900463ffffffff160192506101000a81548163ffffffff021916908363ffffffff160217905550611e6c8263ffffffff1660065461211c90919063ffffffff16565b9050611eb081600460149054906101000a900461ffff1661ffff16600360009054906101000a900473ffffffffffffffffffffffffffffffffffffffff168761216d565b5b8480600101955050611d2f565b600880549050851015611f29578460098190555060026003811115611edf57fe5b6000809054906101000a900460ff166003811115611ef957fe5b141515611f245760026000806101000a81548160ff02191690836003811115611f1e57fe5b02179055505b611f32565b611f316120c3565b5b50505050505050565b600460009054906101000a900473ffffffffffffffffffffffffffffffffffffffff1681565b6000611f7f600654611f71611357565b6123b090919063ffffffff16565b905090565b600181565b600080600080600080600080945060009350600092505b6008805490508310156120965760076000600885815481101515611fc057fe5b906000526020600020900160009054906101000a900473ffffffffffffffffffffffffffffffffffffffff1673ffffffffffffffffffffffffffffffffffffffff1673ffffffffffffffffffffffffffffffffffffffff16815260200190815260200160002091508160000160099054906101000a900463ffffffff168260000160059054906101000a900463ffffffff168360000160019054906101000a900463ffffffff16030390508160000160059054906101000a900463ffffffff168501945080840193508280600101935050611fa0565b84849650965050505050509091565b6000600a60009054906101000a900467ffffffffffffffff16905090565b60036000806101000a81548160ff021916908360038111156120e157fe5b02179055506120ee6123cb565b7f6823b073d48d6e3a7d385eeb601452d680e74bb46afe3255a7d778f3a9b1768160405160405180910390a1565b6000808284029050600084148061213d575082848281151561213a57fe5b04145b151561214557fe5b8091505092915050565b600080828401905083811015151561216357fe5b8091505092915050565b6000806121976103e8612189878961211c90919063ffffffff16565b6123b090919063ffffffff16565b91506121ac82876124f690919063ffffffff16565b905060008211156122ab57600260009054906101000a900473ffffffffffffffffffffffffffffffffffffffff1673ffffffffffffffffffffffffffffffffffffffff1663a9059cbb85846000604051602001526040518363ffffffff167c0100000000000000000000000000000000000000000000000000000000028152600401808373ffffffffffffffffffffffffffffffffffffffff1673ffffffffffffffffffffffffffffffffffffffff16815260200182815260200192505050602060405180830381600087803b151561228457600080fd5b6102c65a03f1151561229557600080fd5b5050506040518051905015156122aa57600080fd5b5b60008111156123a857600260009054906101000a900473ffffffffffffffffffffffffffffffffffffffff1673ffffffffffffffffffffffffffffffffffffffff1663a9059cbb84836000604051602001526040518363ffffffff167c0100000000000000000000000000000000000000000000000000000000028152600401808373ffffffffffffffffffffffffffffffffffffffff1673ffffffffffffffffffffffffffffffffffffffff16815260200182815260200192505050602060405180830381600087803b151561238157600080fd5b6102c65a03f1151561239257600080fd5b5050506040518051905015156123a757600080fd5b5b505050505050565b60008082848115156123be57fe5b0490508091505092915050565b60006123d5611357565b905060008111156124f357600260009054906101000a900473ffffffffffffffffffffffffffffffffffffffff1673ffffffffffffffffffffffffffffffffffffffff1663a9059cbb600160009054906101000a900473ffffffffffffffffffffffffffffffffffffffff16836000604051602001526040518363ffffffff167c0100000000000000000000000000000000000000000000000000000000028152600401808373ffffffffffffffffffffffffffffffffffffffff1673ffffffffffffffffffffffffffffffffffffffff16815260200182815260200192505050602060405180830381600087803b15156124cf57600080fd5b6102c65a03f115156124e057600080fd5b5050506040518051905015156124f257fe5b5b50565b600082821115151561250457fe5b818303905092915050565b602060405190810160405280600081525090565b602060405190810160405280600081525090565b81548183558181151161255e5781836000526020600020918201910161255d9190612563565b5b505050565b61258591905b80821115612581576000816000905550600101612569565b5090565b905600a165627a7a7230582005fb567a4ebfaad29e597f7dffc4ec756fb247fef3480356b657d62d4675276f0029",
  "source": "pragma solidity ^0.4.17;\n\nimport \"./GGProject.sol\";\n\ncontract GGProjectDebug is GGProject {\n\n  function GGProjectDebug(\n    address _tokenContractAddress,\n    address _clientAddress,\n    address _approvalCommissionBenificiaryAddress,\n    address _disapprovalCommissionBeneficiaryAddress,\n    uint256 _approvalCommissionFractionThousands,\n    uint256 _disapprovalCommissionFractionThousands,\n    uint256 _totalWorkItems,\n    uint256 _workItemPrice,\n    uint256 _autoApprovalTimeoutSec\n  ) GGProject(\n    _tokenContractAddress,\n    _clientAddress,\n    _approvalCommissionBenificiaryAddress,\n    _disapprovalCommissionBeneficiaryAddress,\n    _approvalCommissionFractionThousands,\n    _disapprovalCommissionFractionThousands,\n    _totalWorkItems,\n    _workItemPrice,\n    _autoApprovalTimeoutSec\n  ) public {}\n\n  uint64 public debugTimestamp = 42;\n\n  function increaseTimeBy(uint64 sec) external {\n    debugTimestamp += sec;\n  }\n\n  function getTimestamp() internal view returns (uint64) {\n    return debugTimestamp;\n  }\n}\n",
  "sourcePath": "/Users/sam/dev/projects/gg/smart-contracts/truffle/contracts/GGProjectDebug.sol",
  "compiler": {
    "name": "solc",
    "version": "0.4.19+commit.c4cbbb05.Emscripten.clang"
  },
  "schemaVersion": "2.0.0",
  "updatedAt": "2018-03-26T16:28:29.567Z"
}