{
  "contractName": "GGProject",
  "abi": [
    {
      "constant": true,
      "inputs": [],
      "name": "disapprovalCommissionFractionThousands",
      "outputs": [
        {
          "name": "",
          "type": "uint16"
        }
      ],
      "payable": false,
      "stateMutability": "view",
      "type": "function"
    },
    {
      "constant": true,
      "inputs": [],
      "name": "approvalCommissionFractionThousands",
      "outputs": [
        {
          "name": "",
          "type": "uint16"
        }
      ],
      "payable": false,
      "stateMutability": "view",
      "type": "function"
    },
    {
      "constant": true,
      "inputs": [],
      "name": "client",
      "outputs": [
        {
          "name": "",
          "type": "address"
        }
      ],
      "payable": false,
      "stateMutability": "view",
      "type": "function"
    },
    {
      "constant": true,
      "inputs": [],
      "name": "totalWorkItems",
      "outputs": [
        {
          "name": "",
          "type": "uint32"
        }
      ],
      "payable": false,
      "stateMutability": "view",
      "type": "function"
    },
    {
      "constant": true,
      "inputs": [],
      "name": "workItemPrice",
      "outputs": [
        {
          "name": "",
          "type": "uint256"
        }
      ],
      "payable": false,
      "stateMutability": "view",
      "type": "function"
    },
    {
      "constant": true,
      "inputs": [
        {
          "name": "",
          "type": "uint256"
        }
      ],
      "name": "contractors",
      "outputs": [
        {
          "name": "",
          "type": "address"
        }
      ],
      "payable": false,
      "stateMutability": "view",
      "type": "function"
    },
    {
      "constant": true,
      "inputs": [],
      "name": "approvalCommissionBenificiary",
      "outputs": [
        {
          "name": "",
          "type": "address"
        }
      ],
      "payable": false,
      "stateMutability": "view",
      "type": "function"
    },
    {
      "constant": true,
      "inputs": [],
      "name": "tokenContract",
      "outputs": [
        {
          "name": "",
          "type": "address"
        }
      ],
      "payable": false,
      "stateMutability": "view",
      "type": "function"
    },
    {
      "constant": true,
      "inputs": [
        {
          "name": "",
          "type": "address"
        }
      ],
      "name": "performanceByContractor",
      "outputs": [
        {
          "name": "isSet",
          "type": "bool"
        },
        {
          "name": "totalItems",
          "type": "uint32"
        },
        {
          "name": "approvedItems",
          "type": "uint32"
        },
        {
          "name": "declinedItems",
          "type": "uint32"
        }
      ],
      "payable": false,
      "stateMutability": "view",
      "type": "function"
    },
    {
      "constant": true,
      "inputs": [],
      "name": "lastFinalizedItemIndex",
      "outputs": [
        {
          "name": "",
          "type": "uint256"
        }
      ],
      "payable": false,
      "stateMutability": "view",
      "type": "function"
    },
    {
      "constant": true,
      "inputs": [],
      "name": "owner",
      "outputs": [
        {
          "name": "",
          "type": "address"
        }
      ],
      "payable": false,
      "stateMutability": "view",
      "type": "function"
    },
    {
      "constant": true,
      "inputs": [],
      "name": "performanceUpdatedAt",
      "outputs": [
        {
          "name": "",
          "type": "uint64"
        }
      ],
      "payable": false,
      "stateMutability": "view",
      "type": "function"
    },
    {
      "constant": true,
      "inputs": [],
      "name": "state",
      "outputs": [
        {
          "name": "",
          "type": "uint8"
        }
      ],
      "payable": false,
      "stateMutability": "view",
      "type": "function"
    },
    {
      "constant": true,
      "inputs": [],
      "name": "autoApprovalTimeoutSec",
      "outputs": [
        {
          "name": "",
          "type": "uint32"
        }
      ],
      "payable": false,
      "stateMutability": "view",
      "type": "function"
    },
    {
      "constant": true,
      "inputs": [],
      "name": "disapprovalCommissionBeneficiary",
      "outputs": [
        {
          "name": "",
          "type": "address"
        }
      ],
      "payable": false,
      "stateMutability": "view",
      "type": "function"
    },
    {
      "constant": true,
      "inputs": [],
      "name": "VERSION",
      "outputs": [
        {
          "name": "",
          "type": "uint16"
        }
      ],
      "payable": false,
      "stateMutability": "view",
      "type": "function"
    },
    {
      "inputs": [
        {
          "name": "_tokenContractAddress",
          "type": "address"
        },
        {
          "name": "_clientAddress",
          "type": "address"
        },
        {
          "name": "_approvalCommissionBenificiaryAddress",
          "type": "address"
        },
        {
          "name": "_disapprovalCommissionBeneficiaryAddress",
          "type": "address"
        },
        {
          "name": "_approvalCommissionFractionThousands",
          "type": "uint256"
        },
        {
          "name": "_disapprovalCommissionFractionThousands",
          "type": "uint256"
        },
        {
          "name": "_totalWorkItems",
          "type": "uint256"
        },
        {
          "name": "_workItemPrice",
          "type": "uint256"
        },
        {
          "name": "_autoApprovalTimeoutSec",
          "type": "uint256"
        }
      ],
      "payable": false,
      "stateMutability": "nonpayable",
      "type": "constructor"
    },
    {
      "anonymous": false,
      "inputs": [],
      "name": "Activated",
      "type": "event"
    },
    {
      "anonymous": false,
      "inputs": [],
      "name": "UpdatedPerformance",
      "type": "event"
    },
    {
      "anonymous": false,
      "inputs": [],
      "name": "Finalized",
      "type": "event"
    },
    {
      "constant": false,
      "inputs": [],
      "name": "activate",
      "outputs": [],
      "payable": false,
      "stateMutability": "nonpayable",
      "type": "function"
    },
    {
      "constant": true,
      "inputs": [],
      "name": "describe",
      "outputs": [
        {
          "name": "_state",
          "type": "uint8"
        },
        {
          "name": "_totalWorkItems",
          "type": "uint256"
        },
        {
          "name": "_workItemPrice",
          "type": "uint256"
        },
        {
          "name": "_tokenBalance",
          "type": "uint256"
        },
        {
          "name": "_workItemsBalance",
          "type": "uint256"
        },
        {
          "name": "_workItemsLeft",
          "type": "uint256"
        },
        {
          "name": "_requiredInitialTokenBalance",
          "type": "uint256"
        },
        {
          "name": "_canFinalize",
          "type": "bool"
        },
        {
          "name": "_canForceFinalize",
          "type": "bool"
        },
        {
          "name": "_canForceFinalizeAt",
          "type": "uint256"
        }
      ],
      "payable": false,
      "stateMutability": "view",
      "type": "function"
    },
    {
      "constant": true,
      "inputs": [],
      "name": "getRequiredInitialTokenBalance",
      "outputs": [
        {
          "name": "",
          "type": "uint256"
        }
      ],
      "payable": false,
      "stateMutability": "view",
      "type": "function"
    },
    {
      "constant": true,
      "inputs": [],
      "name": "getTokenBalance",
      "outputs": [
        {
          "name": "",
          "type": "uint256"
        }
      ],
      "payable": false,
      "stateMutability": "view",
      "type": "function"
    },
    {
      "constant": true,
      "inputs": [],
      "name": "getWorkItemsBalance",
      "outputs": [
        {
          "name": "",
          "type": "uint256"
        }
      ],
      "payable": false,
      "stateMutability": "view",
      "type": "function"
    },
    {
      "constant": true,
      "inputs": [],
      "name": "getWorkItemsLeft",
      "outputs": [
        {
          "name": "",
          "type": "uint256"
        }
      ],
      "payable": false,
      "stateMutability": "view",
      "type": "function"
    },
    {
      "constant": true,
      "inputs": [],
      "name": "getNumPendingItems",
      "outputs": [
        {
          "name": "",
          "type": "uint256"
        }
      ],
      "payable": false,
      "stateMutability": "view",
      "type": "function"
    },
    {
      "constant": true,
      "inputs": [],
      "name": "hasPendingItems",
      "outputs": [
        {
          "name": "",
          "type": "bool"
        }
      ],
      "payable": false,
      "stateMutability": "view",
      "type": "function"
    },
    {
      "constant": true,
      "inputs": [],
      "name": "getCanFinalize",
      "outputs": [
        {
          "name": "",
          "type": "bool"
        }
      ],
      "payable": false,
      "stateMutability": "view",
      "type": "function"
    },
    {
      "constant": true,
      "inputs": [],
      "name": "getCanForceFinalizeAt",
      "outputs": [
        {
          "name": "",
          "type": "uint64"
        }
      ],
      "payable": false,
      "stateMutability": "view",
      "type": "function"
    },
    {
      "constant": true,
      "inputs": [],
      "name": "getCanForceFinalize",
      "outputs": [
        {
          "name": "",
          "type": "bool"
        }
      ],
      "payable": false,
      "stateMutability": "view",
      "type": "function"
    },
    {
      "constant": true,
      "inputs": [],
      "name": "getPerformance",
      "outputs": [
        {
          "name": "",
          "type": "address[]"
        },
        {
          "name": "",
          "type": "uint256[]"
        },
        {
          "name": "",
          "type": "uint256[]"
        },
        {
          "name": "",
          "type": "uint256[]"
        }
      ],
      "payable": false,
      "stateMutability": "view",
      "type": "function"
    },
    {
      "constant": false,
      "inputs": [
        {
          "name": "contractorAddrs",
          "type": "address[]"
        },
        {
          "name": "totalItems",
          "type": "uint256[]"
        }
      ],
      "name": "updateTotals",
      "outputs": [],
      "payable": false,
      "stateMutability": "nonpayable",
      "type": "function"
    },
    {
      "constant": false,
      "inputs": [
        {
          "name": "contractorAddrs",
          "type": "address[]"
        },
        {
          "name": "approvedItems",
          "type": "uint256[]"
        },
        {
          "name": "declinedItems",
          "type": "uint256[]"
        }
      ],
      "name": "updatePerformance",
      "outputs": [],
      "payable": false,
      "stateMutability": "nonpayable",
      "type": "function"
    },
    {
      "constant": false,
      "inputs": [],
      "name": "finalize",
      "outputs": [],
      "payable": false,
      "stateMutability": "nonpayable",
      "type": "function"
    },
    {
      "constant": false,
      "inputs": [
        {
          "name": "maxGas",
          "type": "uint256"
        }
      ],
      "name": "forceFinalize",
      "outputs": [],
      "payable": false,
      "stateMutability": "nonpayable",
      "type": "function"
    }
  ],
  "bytecode": "0x606060405260008060006101000a81548160ff021916908360038111156200002357fe5b021790555033600060016101000a81548173ffffffffffffffffffffffffffffffffffffffff021916908373ffffffffffffffffffffffffffffffffffffffff160217905550600060095534156200007a57600080fd5b604051610120806200292d8339810160405280805190602001909190805190602001909190805190602001909190805190602001909190805190602001909190805190602001909190805190602001909190805190602001909190805190602001909190505060008973ffffffffffffffffffffffffffffffffffffffff16141515156200010757600080fd5b60008873ffffffffffffffffffffffffffffffffffffffff16141515156200012e57600080fd5b60008773ffffffffffffffffffffffffffffffffffffffff16141515156200015557600080fd5b60008673ffffffffffffffffffffffffffffffffffffffff16141515156200017c57600080fd5b6103e885111515156200018e57600080fd5b6103e88411151515620001a057600080fd5b6103e884860111151515620001b457600080fd5b64010000000083101515620001c857600080fd5b64010000000081101515620001dc57600080fd5b88600260006101000a81548173ffffffffffffffffffffffffffffffffffffffff021916908373ffffffffffffffffffffffffffffffffffffffff1602179055506000600260009054906101000a900473ffffffffffffffffffffffffffffffffffffffff1673ffffffffffffffffffffffffffffffffffffffff166370a082318a6000604051602001526040518263ffffffff167c0100000000000000000000000000000000000000000000000000000000028152600401808273ffffffffffffffffffffffffffffffffffffffff1673ffffffffffffffffffffffffffffffffffffffff168152602001915050602060405180830381600087803b1515620002e557600080fd5b6102c65a03f11515620002f757600080fd5b50505060405180519050101515156200030f57600080fd5b87600160006101000a81548173ffffffffffffffffffffffffffffffffffffffff021916908373ffffffffffffffffffffffffffffffffffffffff16021790555086600360006101000a81548173ffffffffffffffffffffffffffffffffffffffff021916908373ffffffffffffffffffffffffffffffffffffffff16021790555085600460006101000a81548173ffffffffffffffffffffffffffffffffffffffff021916908373ffffffffffffffffffffffffffffffffffffffff16021790555084600460146101000a81548161ffff021916908361ffff16021790555083600460166101000a81548161ffff021916908361ffff16021790555082600460186101000a81548163ffffffff021916908363ffffffff16021790555081600681905550806004601c6101000a81548163ffffffff021916908363ffffffff1602179055505050505050505050506124bf806200046e6000396000f300606060405260043610610196576000357c0100000000000000000000000000000000000000000000000000000000900463ffffffff16806304621ce81461019b578063088c00f9146101c45780630d34ca77146102015780630f15f4c01461022e5780630f15f59f146102435780631001ffaf14610274578063109e94cf146102a55780631977303c146102fa5780631ad184ff1461032357806329d04065146103a15780632eafe009146103d65780633481a95a146103ff57806342de4e9c1461046257806346439f47146105a45780634bb278f3146105f957806355a373d61461060e578063663fd2ac146106635780636e26a33f146106ed57806382b2e2571461071657806383d6a1d91461073f578063877a96b0146107685780638da5cb5b146108025780639d0c4fb314610857578063a3ac030814610894578063c19d93fb146108c1578063c34763a0146108f8578063d0805582146109d2578063d328c430146109ff578063e7b6ecff14610a34578063ea9b941314610a57578063f53e2c2414610aac578063ffa1ad7414610ad5575b600080fd5b34156101a657600080fd5b6101ae610b06565b6040518082815260200191505060405180910390f35b34156101cf57600080fd5b6101d7610b3f565b604051808267ffffffffffffffff1667ffffffffffffffff16815260200191505060405180910390f35b341561020c57600080fd5b610214610b8f565b604051808215151515815260200191505060405180910390f35b341561023957600080fd5b610241610bfb565b005b341561024e57600080fd5b610256610d37565b604051808261ffff1661ffff16815260200191505060405180910390f35b341561027f57600080fd5b610287610d4b565b604051808261ffff1661ffff16815260200191505060405180910390f35b34156102b057600080fd5b6102b8610d5f565b604051808273ffffffffffffffffffffffffffffffffffffffff1673ffffffffffffffffffffffffffffffffffffffff16815260200191505060405180910390f35b341561030557600080fd5b61030d610d85565b6040518082815260200191505060405180910390f35b341561032e57600080fd5b610336610da3565b604051808b600381111561034657fe5b60ff1681526020018a815260200189815260200188815260200187815260200186815260200185815260200184151515158152602001831515151581526020018281526020019a505050505050505050505060405180910390f35b34156103ac57600080fd5b6103b4610e3f565b604051808263ffffffff1663ffffffff16815260200191505060405180910390f35b34156103e157600080fd5b6103e9610e55565b6040518082815260200191505060405180910390f35b341561040a57600080fd5b6104206004808035906020019091905050610e5b565b604051808273ffffffffffffffffffffffffffffffffffffffff1673ffffffffffffffffffffffffffffffffffffffff16815260200191505060405180910390f35b341561046d57600080fd5b610475610e9a565b6040518080602001806020018060200180602001858103855289818151815260200191508051906020019060200280838360005b838110156104c45780820151818401526020810190506104a9565b50505050905001858103845288818151815260200191508051906020019060200280838360005b838110156105065780820151818401526020810190506104eb565b50505050905001858103835287818151815260200191508051906020019060200280838360005b8381101561054857808201518184015260208101905061052d565b50505050905001858103825286818151815260200191508051906020019060200280838360005b8381101561058a57808201518184015260208101905061056f565b505050509050019850505050505050505060405180910390f35b34156105af57600080fd5b6105b7611123565b604051808273ffffffffffffffffffffffffffffffffffffffff1673ffffffffffffffffffffffffffffffffffffffff16815260200191505060405180910390f35b341561060457600080fd5b61060c611149565b005b341561061957600080fd5b6106216111f9565b604051808273ffffffffffffffffffffffffffffffffffffffff1673ffffffffffffffffffffffffffffffffffffffff16815260200191505060405180910390f35b341561066e57600080fd5b61069a600480803573ffffffffffffffffffffffffffffffffffffffff1690602001909190505061121f565b60405180851515151581526020018463ffffffff1663ffffffff1681526020018363ffffffff1663ffffffff1681526020018263ffffffff1663ffffffff16815260200194505050505060405180910390f35b34156106f857600080fd5b61070061128c565b6040518082815260200191505060405180910390f35b341561072157600080fd5b610729611292565b6040518082815260200191505060405180910390f35b341561074a57600080fd5b610752611379565b6040518082815260200191505060405180910390f35b341561077357600080fd5b610800600480803590602001908201803590602001908080602002602001604051908101604052809392919081815260200183836020028082843782019150505050505091908035906020019082018035906020019080806020026020016040519081016040528093929190818152602001838360200280828437820191505050505050919050506113ad565b005b341561080d57600080fd5b610815611692565b604051808273ffffffffffffffffffffffffffffffffffffffff1673ffffffffffffffffffffffffffffffffffffffff16815260200191505060405180910390f35b341561086257600080fd5b61086a6116b8565b604051808267ffffffffffffffff1667ffffffffffffffff16815260200191505060405180910390f35b341561089f57600080fd5b6108a76116d2565b604051808215151515815260200191505060405180910390f35b34156108cc57600080fd5b6108d46116e2565b604051808260038111156108e457fe5b60ff16815260200191505060405180910390f35b341561090357600080fd5b6109d060048080359060200190820180359060200190808060200260200160405190810160405280939291908181526020018383602002808284378201915050505050509190803590602001908201803590602001908080602002602001604051908101604052809392919081815260200183836020028082843782019150505050505091908035906020019082018035906020019080806020026020016040519081016040528093929190818152602001838360200280828437820191505050505050919050506116f4565b005b34156109dd57600080fd5b6109e5611bd0565b604051808215151515815260200191505060405180910390f35b3415610a0a57600080fd5b610a12611be2565b604051808263ffffffff1663ffffffff16815260200191505060405180910390f35b3415610a3f57600080fd5b610a556004808035906020019091905050611bf8565b005b3415610a6257600080fd5b610a6a611e5c565b604051808273ffffffffffffffffffffffffffffffffffffffff1673ffffffffffffffffffffffffffffffffffffffff16815260200191505060405180910390f35b3415610ab757600080fd5b610abf611e82565b6040518082815260200191505060405180910390f35b3415610ae057600080fd5b610ae8611ea5565b604051808261ffff1661ffff16815260200191505060405180910390f35b6000806000610b13611eaa565b80925081935050508082600460189054906101000a900463ffffffff16030363ffffffff169250505090565b6000610b49611bd0565b1515610b585760009050610b8c565b6004601c9054906101000a900463ffffffff1663ffffffff16600560009054906101000a900467ffffffffffffffff160190505b90565b600060026003811115610b9e57fe5b6000809054906101000a900460ff166003811115610bb857fe5b1480610bf65750610bc7611bd0565b8015610bf55750610bd6610b3f565b67ffffffffffffffff16610be8611fc6565b67ffffffffffffffff1610155b5b905090565b600080600160009054906101000a900473ffffffffffffffffffffffffffffffffffffffff168073ffffffffffffffffffffffffffffffffffffffff163373ffffffffffffffffffffffffffffffffffffffff16141515610c5b57600080fd5b6000806003811115610c6957fe5b6000809054906101000a900460ff166003811115610c8357fe5b141515610c8f57600080fd5b610c97611292565b9350610ca1611379565b9250828410151515610cb257600080fd5b60016000806101000a81548160ff02191690836003811115610cd057fe5b0217905550610cdd611fc6565b600560006101000a81548167ffffffffffffffff021916908367ffffffffffffffff1602179055507fed1cd0670ee0c0017f550451a038818c696d0b6a9d6ce5b369e44275573cf9b060405160405180910390a150505050565b600460169054906101000a900461ffff1681565b600460149054906101000a900461ffff1681565b600160009054906101000a900473ffffffffffffffffffffffffffffffffffffffff1681565b600080610d90611eaa565b9050809150508063ffffffff1691505090565b6000806000806000806000806000806000809054906101000a900460ff169950600460189054906101000a900463ffffffff1663ffffffff1698506006549750610deb611292565b9650610df5611e82565b9550610dff610b06565b9450610e09611379565b9350610e136116d2565b9250610e1d610b8f565b9150610e27610b3f565b67ffffffffffffffff16905090919293949596979899565b600460189054906101000a900463ffffffff1681565b60065481565b600881815481101515610e6a57fe5b90600052602060002090016000915054906101000a900473ffffffffffffffffffffffffffffffffffffffff1681565b610ea261241a565b610eaa61242e565b610eb261242e565b610eba61242e565b6000610ec461242e565b610ecc61242e565b610ed461242e565b6000806000600880549050965086604051805910610eef5750595b9080825280602002602001820160405250955086604051805910610f105750595b9080825280602002602001820160405250945086604051805910610f315750595b90808252806020026020018201604052509350600092505b8683101561108157600883815481101515610f6057fe5b906000526020600020900160009054906101000a900473ffffffffffffffffffffffffffffffffffffffff169150600760008373ffffffffffffffffffffffffffffffffffffffff1673ffffffffffffffffffffffffffffffffffffffff16815260200190815260200160002090508060000160019054906101000a900463ffffffff1663ffffffff168684815181101515610ff857fe5b90602001906020020181815250508060000160059054906101000a900463ffffffff1663ffffffff16858481518110151561102f57fe5b90602001906020020181815250508060000160099054906101000a900463ffffffff1663ffffffff16848481518110151561106657fe5b90602001906020020181815250508280600101935050610f49565b60088686868380548060200260200160405190810160405280929190818152602001828054801561110757602002820191906000526020600020905b8160009054906101000a900473ffffffffffffffffffffffffffffffffffffffff1673ffffffffffffffffffffffffffffffffffffffff16815260200190600101908083116110bd575b505050505093509a509a509a509a505050505050505090919293565b600360009054906101000a900473ffffffffffffffffffffffffffffffffffffffff1681565b600160009054906101000a900473ffffffffffffffffffffffffffffffffffffffff168073ffffffffffffffffffffffffffffffffffffffff163373ffffffffffffffffffffffffffffffffffffffff161415156111a657600080fd5b60018060038111156111b457fe5b6000809054906101000a900460ff1660038111156111ce57fe5b1415156111da57600080fd5b6111e26116d2565b15156111ed57600080fd5b6111f5611fce565b5050565b600260009054906101000a900473ffffffffffffffffffffffffffffffffffffffff1681565b60076020528060005260406000206000915090508060000160009054906101000a900460ff16908060000160019054906101000a900463ffffffff16908060000160059054906101000a900463ffffffff16908060000160099054906101000a900463ffffffff16905084565b60095481565b6000600260009054906101000a900473ffffffffffffffffffffffffffffffffffffffff1673ffffffffffffffffffffffffffffffffffffffff166370a08231306000604051602001526040518263ffffffff167c0100000000000000000000000000000000000000000000000000000000028152600401808273ffffffffffffffffffffffffffffffffffffffff1673ffffffffffffffffffffffffffffffffffffffff168152602001915050602060405180830381600087803b151561135957600080fd5b6102c65a03f1151561136a57600080fd5b50505060405180519050905090565b60006113a8600460189054906101000a900463ffffffff1663ffffffff1660065461202790919063ffffffff16565b905090565b600080600080600080600060019054906101000a900473ffffffffffffffffffffffffffffffffffffffff168073ffffffffffffffffffffffffffffffffffffffff163373ffffffffffffffffffffffffffffffffffffffff1614151561141357600080fd5b600180600381111561142157fe5b6000809054906101000a900460ff16600381111561143b57fe5b14151561144757600080fd5b88518a5114151561145757600080fd5b600097505b89518810156115df57898881518110151561147357fe5b906020019060200201519650600760008873ffffffffffffffffffffffffffffffffffffffff1673ffffffffffffffffffffffffffffffffffffffff16815260200190815260200160002095508560000160009054906101000a900460ff1615156115595760018660000160006101000a81548160ff021916908315150217905550600880548060010182816115099190612442565b9160005260206000209001600089909190916101000a81548173ffffffffffffffffffffffffffffffffffffffff021916908373ffffffffffffffffffffffffffffffffffffffff160217905550505b888881518110151561156757fe5b9060200190602002015194508560000160019054906101000a900463ffffffff1663ffffffff16851015151561159c57600080fd5b640100000000851015156115af57600080fd5b848660000160016101000a81548163ffffffff021916908363ffffffff160217905550878060010198505061145c565b6115e7611eaa565b8163ffffffff1691508063ffffffff1690508094508195505050600460189054906101000a900463ffffffff1663ffffffff168385011115151561162a57600080fd5b611632611fc6565b600560006101000a81548167ffffffffffffffff021916908367ffffffffffffffff1602179055507fa2a39cf902dc415af242340d20e57d1afb51e76030e02c5f0053b569b1ee857860405160405180910390a150505050505050505050565b600060019054906101000a900473ffffffffffffffffffffffffffffffffffffffff1681565b600560009054906101000a900467ffffffffffffffff1681565b60006116dc611bd0565b15905090565b6000809054906101000a900460ff1681565b600080600080600080600080600080600160009054906101000a900473ffffffffffffffffffffffffffffffffffffffff168073ffffffffffffffffffffffffffffffffffffffff163373ffffffffffffffffffffffffffffffffffffffff1614151561176057600080fd5b600180600381111561176e57fe5b6000809054906101000a900460ff16600381111561178857fe5b14151561179457600080fd5b8d518f511415156117a457600080fd5b8c518f511415156117b457600080fd5b60009b505b8e518c1015611b63578e8c8151811015156117d057fe5b906020019060200201519a50600760008c73ffffffffffffffffffffffffffffffffffffffff1673ffffffffffffffffffffffffffffffffffffffff16815260200190815260200160002099508960000160009054906101000a900460ff16151561183a57600080fd5b8d8c81518110151561184857fe5b9060200190602002015198508c8c81518110151561186257fe5b9060200190602002015197508960000160059054906101000a900463ffffffff1663ffffffff16891015151561189757600080fd5b8960000160099054906101000a900463ffffffff1663ffffffff1688101515156118c057600080fd5b6118d3888a61205a90919063ffffffff16565b96508960000160019054906101000a900463ffffffff1663ffffffff16871415156118fd57600080fd5b8960000160059054906101000a900463ffffffff1663ffffffff16890395508960000160099054906101000a900463ffffffff1663ffffffff168803945060008614151561199f5761195a8660065461202790919063ffffffff16565b935061199e84600460149054906101000a900461ffff1661ffff16600360009054906101000a900473ffffffffffffffffffffffffffffffffffffffff168e612078565b5b600085141515611b10576119f86103e86119ea600460169054906101000a900461ffff1661ffff166119dc8960065461202790919063ffffffff16565b61202790919063ffffffff16565b6122bb90919063ffffffff16565b9250600260009054906101000a900473ffffffffffffffffffffffffffffffffffffffff1673ffffffffffffffffffffffffffffffffffffffff1663a9059cbb600460009054906101000a900473ffffffffffffffffffffffffffffffffffffffff16856000604051602001526040518363ffffffff167c0100000000000000000000000000000000000000000000000000000000028152600401808373ffffffffffffffffffffffffffffffffffffffff1673ffffffffffffffffffffffffffffffffffffffff16815260200182815260200192505050602060405180830381600087803b1515611ae957600080fd5b6102c65a03f11515611afa57600080fd5b505050604051805190501515611b0f57600080fd5b5b888a60000160056101000a81548163ffffffff021916908363ffffffff160217905550878a60000160096101000a81548163ffffffff021916908363ffffffff1602179055508b806001019c50506117b9565b611b6b611fc6565b600560006101000a81548167ffffffffffffffff021916908367ffffffffffffffff1602179055507fa2a39cf902dc415af242340d20e57d1afb51e76030e02c5f0053b569b1ee857860405160405180910390a1505050505050505050505050505050565b600080611bdb610d85565b1415905090565b6004601c9054906101000a900463ffffffff1681565b600080600080600080619c405a01955060026003811115611c1557fe5b6000809054906101000a900460ff166003811115611c2f57fe5b1480611c3f5750611c3e610b8f565b5b1515611c4a57600080fd5b60095494505b60088054905085108015611c655750865a8703105b15611ddf57600885815481101515611c7957fe5b906000526020600020900160009054906101000a900473ffffffffffffffffffffffffffffffffffffffff169350600760008573ffffffffffffffffffffffffffffffffffffffff1673ffffffffffffffffffffffffffffffffffffffff16815260200190815260200160002092508260000160099054906101000a900463ffffffff168360000160059054906101000a900463ffffffff168460000160019054906101000a900463ffffffff160303915060008263ffffffff161115611dd257818360000160058282829054906101000a900463ffffffff160192506101000a81548163ffffffff021916908363ffffffff160217905550611d8d8263ffffffff1660065461202790919063ffffffff16565b9050611dd181600460149054906101000a900461ffff1661ffff16600360009054906101000a900473ffffffffffffffffffffffffffffffffffffffff1687612078565b5b8480600101955050611c50565b600880549050851015611e4a578460098190555060026003811115611e0057fe5b6000809054906101000a900460ff166003811115611e1a57fe5b141515611e455760026000806101000a81548160ff02191690836003811115611e3f57fe5b02179055505b611e53565b611e52611fce565b5b50505050505050565b600460009054906101000a900473ffffffffffffffffffffffffffffffffffffffff1681565b6000611ea0600654611e92611292565b6122bb90919063ffffffff16565b905090565b600181565b600080600080600080600080945060009350600092505b600880549050831015611fb75760076000600885815481101515611ee157fe5b906000526020600020900160009054906101000a900473ffffffffffffffffffffffffffffffffffffffff1673ffffffffffffffffffffffffffffffffffffffff1673ffffffffffffffffffffffffffffffffffffffff16815260200190815260200160002091508160000160099054906101000a900463ffffffff168260000160059054906101000a900463ffffffff168360000160019054906101000a900463ffffffff16030390508160000160059054906101000a900463ffffffff168501945080840193508280600101935050611ec1565b84849650965050505050509091565b600042905090565b60036000806101000a81548160ff02191690836003811115611fec57fe5b0217905550611ff96122d6565b7f6823b073d48d6e3a7d385eeb601452d680e74bb46afe3255a7d778f3a9b1768160405160405180910390a1565b60008082840290506000841480612048575082848281151561204557fe5b04145b151561205057fe5b8091505092915050565b600080828401905083811015151561206e57fe5b8091505092915050565b6000806120a26103e8612094878961202790919063ffffffff16565b6122bb90919063ffffffff16565b91506120b7828761240190919063ffffffff16565b905060008211156121b657600260009054906101000a900473ffffffffffffffffffffffffffffffffffffffff1673ffffffffffffffffffffffffffffffffffffffff1663a9059cbb85846000604051602001526040518363ffffffff167c0100000000000000000000000000000000000000000000000000000000028152600401808373ffffffffffffffffffffffffffffffffffffffff1673ffffffffffffffffffffffffffffffffffffffff16815260200182815260200192505050602060405180830381600087803b151561218f57600080fd5b6102c65a03f115156121a057600080fd5b5050506040518051905015156121b557600080fd5b5b60008111156122b357600260009054906101000a900473ffffffffffffffffffffffffffffffffffffffff1673ffffffffffffffffffffffffffffffffffffffff1663a9059cbb84836000604051602001526040518363ffffffff167c0100000000000000000000000000000000000000000000000000000000028152600401808373ffffffffffffffffffffffffffffffffffffffff1673ffffffffffffffffffffffffffffffffffffffff16815260200182815260200192505050602060405180830381600087803b151561228c57600080fd5b6102c65a03f1151561229d57600080fd5b5050506040518051905015156122b257600080fd5b5b505050505050565b60008082848115156122c957fe5b0490508091505092915050565b60006122e0611292565b905060008111156123fe57600260009054906101000a900473ffffffffffffffffffffffffffffffffffffffff1673ffffffffffffffffffffffffffffffffffffffff1663a9059cbb600160009054906101000a900473ffffffffffffffffffffffffffffffffffffffff16836000604051602001526040518363ffffffff167c0100000000000000000000000000000000000000000000000000000000028152600401808373ffffffffffffffffffffffffffffffffffffffff1673ffffffffffffffffffffffffffffffffffffffff16815260200182815260200192505050602060405180830381600087803b15156123da57600080fd5b6102c65a03f115156123eb57600080fd5b5050506040518051905015156123fd57fe5b5b50565b600082821115151561240f57fe5b818303905092915050565b602060405190810160405280600081525090565b602060405190810160405280600081525090565b81548183558181151161246957818360005260206000209182019101612468919061246e565b5b505050565b61249091905b8082111561248c576000816000905550600101612474565b5090565b905600a165627a7a72305820357687577afdac48fe0728bcbcf00af4cdf93ec219a0b0e132d62553bf20453e0029",
  "source": "pragma solidity ^0.4.17;\n\nimport \"./ERC20.sol\";\nimport \"./SafeMath.sol\";\n\n\ncontract GGProject {\n  using SafeMath for uint256;\n\n  event Activated();\n  event UpdatedPerformance();\n  event Finalized();\n\n  enum State {\n    New,\n    Active,\n    ForceFinalizing,\n    Finalized\n  }\n\n  uint16 public constant VERSION = 1;\n  State public state = State.New;\n\n  address public owner = msg.sender;\n  address public client;\n\n  ERC20 public tokenContract;\n  address public approvalCommissionBenificiary;\n  address public disapprovalCommissionBeneficiary;\n\n  uint16 public approvalCommissionFractionThousands;\n  uint16 public disapprovalCommissionFractionThousands;\n  uint32 public totalWorkItems;\n  uint32 public autoApprovalTimeoutSec;\n  uint64 public performanceUpdatedAt;\n  uint256 public workItemPrice;\n\n  struct ContractorPerformance {\n    bool isSet;\n    uint32 totalItems;\n    uint32 approvedItems;\n    uint32 declinedItems;\n  }\n\n  mapping(address => ContractorPerformance) public performanceByContractor;\n  address[] public contractors;\n\n  uint256 public lastFinalizedItemIndex = 0;\n\n  modifier atState(State _state) {\n    require(state == _state);\n    _;\n  }\n\n  modifier atEitherOfStates(State state1, State state2) {\n    require(state == state1 || state == state2);\n    _;\n  }\n\n  modifier allowOnly(address callerAddress) {\n    require(msg.sender == callerAddress);\n    _;\n  }\n\n  function GGProject(\n    address _tokenContractAddress,\n    address _clientAddress,\n    address _approvalCommissionBenificiaryAddress,\n    address _disapprovalCommissionBeneficiaryAddress,\n    uint256 _approvalCommissionFractionThousands,\n    uint256 _disapprovalCommissionFractionThousands,\n    uint256 _totalWorkItems,\n    uint256 _workItemPrice,\n    uint256 _autoApprovalTimeoutSec\n  ) public {\n    require(_tokenContractAddress != 0);\n    require(_clientAddress != 0);\n    require(_approvalCommissionBenificiaryAddress != 0);\n    require(_disapprovalCommissionBeneficiaryAddress != 0);\n\n    require(_approvalCommissionFractionThousands <= 1000);\n    require(_disapprovalCommissionFractionThousands <= 1000);\n    require(_approvalCommissionFractionThousands + _disapprovalCommissionFractionThousands <= 1000);\n\n    require(_totalWorkItems < 2 ** 32);\n    require(_autoApprovalTimeoutSec < 2 ** 32);\n\n    tokenContract = ERC20(_tokenContractAddress);\n    require(tokenContract.balanceOf(_clientAddress) >= 0); // check it's ERC20 actually\n\n    client = _clientAddress;\n\n    approvalCommissionBenificiary = _approvalCommissionBenificiaryAddress;\n    disapprovalCommissionBeneficiary = _disapprovalCommissionBeneficiaryAddress;\n\n    approvalCommissionFractionThousands = uint16(_approvalCommissionFractionThousands);\n    disapprovalCommissionFractionThousands = uint16(_disapprovalCommissionFractionThousands);\n\n    totalWorkItems = uint32(_totalWorkItems);\n    workItemPrice = _workItemPrice;\n    autoApprovalTimeoutSec = uint32(_autoApprovalTimeoutSec);\n  }\n\n  function activate() public allowOnly(client) atState(State.New) {\n    uint256 tokenBalance = getTokenBalance();\n    uint256 requiredInitialTokenBalance = getRequiredInitialTokenBalance();\n\n    require(tokenBalance >= requiredInitialTokenBalance);\n\n    state = State.Active;\n    performanceUpdatedAt = getTimestamp();\n    Activated();\n  }\n\n  function describe() external view returns (\n    State _state,\n    uint256 _totalWorkItems,\n    uint256 _workItemPrice,\n    uint256 _tokenBalance,\n    uint256 _workItemsBalance,\n    uint256 _workItemsLeft,\n    uint256 _requiredInitialTokenBalance,\n    bool _canFinalize,\n    bool _canForceFinalize,\n    uint256 _canForceFinalizeAt\n  ) {\n    _state = state;\n    _totalWorkItems = totalWorkItems;\n    _workItemPrice = workItemPrice;\n    _tokenBalance = getTokenBalance();\n    _workItemsBalance = getWorkItemsBalance();\n    _workItemsLeft = getWorkItemsLeft();\n    _requiredInitialTokenBalance = getRequiredInitialTokenBalance();\n    _canFinalize = getCanFinalize();\n    _canForceFinalize = getCanForceFinalize();\n    _canForceFinalizeAt = getCanForceFinalizeAt();\n  }\n\n  function getRequiredInitialTokenBalance() public view returns (uint256) {\n    return workItemPrice.mul(totalWorkItems);\n  }\n\n  function getTokenBalance() public view returns (uint256) {\n    return tokenContract.balanceOf(address(this));\n  }\n\n  function getWorkItemsBalance() public view returns (uint256) {\n    return getTokenBalance().div(workItemPrice);\n  }\n\n  /**\n   * How many items are either already approved or awaiting client review. That is,\n   * how many items we can additionally distribute between contractors at the moment.\n   */\n  function getWorkItemsLeft() public view returns (uint256) {\n    uint32 totalApprovedItems;\n    uint32 totalPendingItems;\n    (totalApprovedItems, totalPendingItems) = _getPerformanceTotals();\n    // We know this won't wrap around zero, see comments in _getPerformanceTotals.\n    return totalWorkItems - totalApprovedItems - totalPendingItems;\n  }\n\n  function getNumPendingItems() public view returns (uint256) {\n    uint32 totalPendingItems;\n    (, totalPendingItems) = _getPerformanceTotals();\n    return totalPendingItems;\n  }\n\n  function hasPendingItems() public view returns (bool) {\n    return getNumPendingItems() != 0;\n  }\n\n  function getCanFinalize() public view returns (bool) {\n    return !hasPendingItems();\n  }\n\n  function getCanForceFinalizeAt() public view returns (uint64) {\n    if (!hasPendingItems()) return 0;\n    return performanceUpdatedAt + autoApprovalTimeoutSec;\n  }\n\n  function getCanForceFinalize() public view returns (bool) {\n    return (state == State.ForceFinalizing) || (\n      hasPendingItems() && getTimestamp() >= getCanForceFinalizeAt()\n    );\n  }\n\n  function getPerformance() external view returns (address[], uint256[], uint256[], uint256[]) {\n    uint256 totalContractors = contractors.length;\n\n    uint256[] memory totalItems = new uint256[](totalContractors);\n    uint256[] memory approvedItems = new uint256[](totalContractors);\n    uint256[] memory declinedItems = new uint256[](totalContractors);\n\n    for (uint256 i = 0; i < totalContractors; i++) {\n      address addr = contractors[i];\n      ContractorPerformance storage perf = performanceByContractor[addr];\n      totalItems[i] = perf.totalItems;\n      approvedItems[i] = perf.approvedItems;\n      declinedItems[i] = perf.declinedItems;\n    }\n\n    return (contractors, totalItems, approvedItems, declinedItems);\n  }\n\n  function updateTotals(address[] contractorAddrs, uint256[] totalItems) public\n    allowOnly(owner)\n    atState(State.Active)\n  {\n    require(contractorAddrs.length == totalItems.length);\n\n    uint256 i;\n\n    for (i = 0; i < contractorAddrs.length; i++) {\n      address addr = contractorAddrs[i];\n      ContractorPerformance storage perf = performanceByContractor[addr];\n\n      if (!perf.isSet) {\n        // this is a new contractor\n        perf.isSet = true;\n        contractors.push(addr);\n      }\n\n      uint256 newTotalItems = totalItems[i];\n\n      require(newTotalItems >= perf.totalItems);\n      require(newTotalItems < 2 ** 32);\n\n      perf.totalItems = uint32(newTotalItems);\n    }\n\n    // We need to ensure that, after calling updateTotals, we don't end up in a situation\n    // when, if client later approves everything, the total number of approved items will\n    // exceed totalWorkItems. This means that total number of either approved or pending\n    // items should not exceed totalWorkItems.\n\n    uint256 totalApprovedItems;\n    uint256 totalPendingItems;\n    (totalApprovedItems, totalPendingItems) = _getPerformanceTotals();\n\n    require(totalApprovedItems + totalPendingItems <= totalWorkItems);\n    performanceUpdatedAt = getTimestamp();\n    UpdatedPerformance();\n  }\n\n  function updatePerformance(\n    address[] contractorAddrs,\n    uint256[] approvedItems,\n    uint256[] declinedItems\n  ) public\n    allowOnly(client)\n    atState(State.Active)\n  {\n    require(contractorAddrs.length == approvedItems.length);\n    require(contractorAddrs.length == declinedItems.length);\n\n    for (uint256 i = 0; i < contractorAddrs.length; i++) {\n      address addr = contractorAddrs[i];\n      ContractorPerformance storage perf = performanceByContractor[addr];\n\n      // require that contractor is already known from previous updateTotals() call\n      require(perf.isSet);\n\n      uint256 newApprovedItems = approvedItems[i];\n      uint256 newDeclinedItems = declinedItems[i];\n\n      require(newApprovedItems >= perf.approvedItems);\n      require(newDeclinedItems >= perf.declinedItems);\n\n      uint256 newTotalItems = newApprovedItems.add(newDeclinedItems);\n      require(newTotalItems == perf.totalItems);\n\n      uint256 dApprovedItems = newApprovedItems - perf.approvedItems;\n      uint256 dDeclinedItems = newDeclinedItems - perf.declinedItems;\n\n      if (dApprovedItems != 0) {\n        uint256 totalFeeAmount = workItemPrice.mul(dApprovedItems);\n        _splitTransferTokens(\n          totalFeeAmount,\n          approvalCommissionFractionThousands,\n          approvalCommissionBenificiary,\n          addr\n        );\n      }\n\n      if (dDeclinedItems != 0) {\n        uint256 commissionAmount = workItemPrice\n          .mul(dDeclinedItems)\n          .mul(disapprovalCommissionFractionThousands)\n          .div(1000);\n        require(tokenContract.transfer(disapprovalCommissionBeneficiary, commissionAmount));\n      }\n\n      // We know both these numbers fit into uint32 since their sum\n      // equals to perf.totalItems, which is itself uint32.\n      perf.approvedItems = uint32(newApprovedItems);\n      perf.declinedItems = uint32(newDeclinedItems);\n    }\n\n    performanceUpdatedAt = getTimestamp();\n    UpdatedPerformance();\n  }\n\n  function finalize() public allowOnly(client) atState(State.Active) {\n    require(getCanFinalize());\n    _finalizeAndRefundClient();\n  }\n\n  function forceFinalize(uint256 maxGas) public {\n    uint256 initialGas = msg.gas + 40000;\n\n    require(state == State.ForceFinalizing || getCanForceFinalize());\n\n    uint256 i = lastFinalizedItemIndex;\n\n    for (; i < contractors.length && initialGas - msg.gas < maxGas; i++) {\n      address contractorAddr = contractors[i];\n      ContractorPerformance storage perf = performanceByContractor[contractorAddr];\n      uint32 pendingItems = perf.totalItems - perf.approvedItems - perf.declinedItems;\n      if (pendingItems > 0) {\n        perf.approvedItems += pendingItems;\n        uint256 totalFeeAmount = workItemPrice.mul(pendingItems);\n        _splitTransferTokens(\n          totalFeeAmount,\n          approvalCommissionFractionThousands,\n          approvalCommissionBenificiary,\n          contractorAddr\n        );\n      }\n    }\n\n    if (i < contractors.length) {\n      lastFinalizedItemIndex = i;\n      if (state != State.ForceFinalizing) {\n        state = State.ForceFinalizing;\n      }\n    } else {\n      _finalizeAndRefundClient();\n    }\n  }\n\n  function _splitTransferTokens(\n    uint256 amount,\n    uint256 fractionThousandsA,\n    address addressA,\n    address addressB\n  ) internal\n  {\n    uint256 amountA = amount.mul(fractionThousandsA).div(1000);\n    uint256 amountB = amount.sub(amountA);\n    if (amountA > 0) {\n      require(tokenContract.transfer(addressA, amountA));\n    }\n    if (amountB > 0) {\n      require(tokenContract.transfer(addressB, amountB));\n    }\n  }\n\n  function _finalizeAndRefundClient() internal {\n    state = State.Finalized;\n    _refundClient();\n    Finalized();\n  }\n\n  function _refundClient() internal {\n    uint256 tokenBalance = getTokenBalance();\n    if (tokenBalance > 0) {\n      assert(tokenContract.transfer(client, tokenBalance));\n    }\n  }\n\n  // Returns (uint32 totalApprovedItems, uint32 totalPendingItems).\n  //\n  function _getPerformanceTotals() internal view returns (uint32, uint32) {\n    uint32 totalApprovedItems = 0;\n    uint32 totalPendingItems = 0;\n\n    for (uint256 i = 0; i < contractors.length; i++) {\n      ContractorPerformance storage perf = performanceByContractor[contractors[i]];\n      // We know that sum of approvedItems and declinedItems is less than or equal to\n      // totalItems since we're checking this in updatePerformance, which is the only\n      // place these values get updated.\n      uint32 pendingItems = perf.totalItems - perf.approvedItems - perf.declinedItems;\n      // We know that sum of perf.totalItems for all contractors is less than totalWorkItems,\n      // which is uint32, since we're checking this in updateTotals, which is the only place\n      // perf.totalItems get updated. So we know that both sum of all perf.approvedItems and\n      // and sum of all pendingItems fit into uint32, since both of these values are less\n      // than or equal to perf.totalItems (see above).\n      totalApprovedItems += perf.approvedItems;\n      totalPendingItems += pendingItems;\n    }\n\n    return (totalApprovedItems, totalPendingItems);\n  }\n\n  // We can rely on the value of block.timestamp for our purposes, as the consensus\n  // rule is that a block's timestamp must be 1) more than the parent's block timestamp;\n  // and 2) less than the current wall clock time. See:\n  // https://github.com/ethereum/go-ethereum/blob/885c13c/consensus/ethash/consensus.go#L223\n  //\n  function getTimestamp() internal view returns (uint64) {\n    return uint64(block.timestamp);\n  }\n}\n",
  "sourcePath": "/opt/app/truffle/contracts/GGProject.sol",
  "compiler": {
    "name": "solc",
    "version": "0.4.19+commit.c4cbbb05.Emscripten.clang"
  },
  "schemaVersion": "2.0.0",
  "updatedAt": "2018-04-16T17:34:22.534Z"
}