{
  "contractName": "GGProject",
  "abi": [
    {
      "constant": true,
      "inputs": [],
      "name": "disapprovalCommissionFractionThousands",
      "outputs": [
        {
          "name": "",
          "type": "uint16"
        }
      ],
      "payable": false,
      "stateMutability": "view",
      "type": "function"
    },
    {
      "constant": true,
      "inputs": [],
      "name": "approvalCommissionFractionThousands",
      "outputs": [
        {
          "name": "",
          "type": "uint16"
        }
      ],
      "payable": false,
      "stateMutability": "view",
      "type": "function"
    },
    {
      "constant": true,
      "inputs": [],
      "name": "client",
      "outputs": [
        {
          "name": "",
          "type": "address"
        }
      ],
      "payable": false,
      "stateMutability": "view",
      "type": "function"
    },
    {
      "constant": true,
      "inputs": [],
      "name": "totalWorkItems",
      "outputs": [
        {
          "name": "",
          "type": "uint32"
        }
      ],
      "payable": false,
      "stateMutability": "view",
      "type": "function"
    },
    {
      "constant": true,
      "inputs": [],
      "name": "workItemPrice",
      "outputs": [
        {
          "name": "",
          "type": "uint256"
        }
      ],
      "payable": false,
      "stateMutability": "view",
      "type": "function"
    },
    {
      "constant": true,
      "inputs": [
        {
          "name": "",
          "type": "uint256"
        }
      ],
      "name": "contractors",
      "outputs": [
        {
          "name": "",
          "type": "address"
        }
      ],
      "payable": false,
      "stateMutability": "view",
      "type": "function"
    },
    {
      "constant": true,
      "inputs": [],
      "name": "approvalCommissionBenificiary",
      "outputs": [
        {
          "name": "",
          "type": "address"
        }
      ],
      "payable": false,
      "stateMutability": "view",
      "type": "function"
    },
    {
      "constant": true,
      "inputs": [],
      "name": "tokenContract",
      "outputs": [
        {
          "name": "",
          "type": "address"
        }
      ],
      "payable": false,
      "stateMutability": "view",
      "type": "function"
    },
    {
      "constant": true,
      "inputs": [
        {
          "name": "",
          "type": "address"
        }
      ],
      "name": "performanceByContractor",
      "outputs": [
        {
          "name": "isSet",
          "type": "bool"
        },
        {
          "name": "totalItems",
          "type": "uint32"
        },
        {
          "name": "approvedItems",
          "type": "uint32"
        },
        {
          "name": "declinedItems",
          "type": "uint32"
        }
      ],
      "payable": false,
      "stateMutability": "view",
      "type": "function"
    },
    {
      "constant": true,
      "inputs": [],
      "name": "lastClientActivity",
      "outputs": [
        {
          "name": "",
          "type": "uint64"
        }
      ],
      "payable": false,
      "stateMutability": "view",
      "type": "function"
    },
    {
      "constant": true,
      "inputs": [],
      "name": "owner",
      "outputs": [
        {
          "name": "",
          "type": "address"
        }
      ],
      "payable": false,
      "stateMutability": "view",
      "type": "function"
    },
    {
      "constant": true,
      "inputs": [],
      "name": "state",
      "outputs": [
        {
          "name": "",
          "type": "uint8"
        }
      ],
      "payable": false,
      "stateMutability": "view",
      "type": "function"
    },
    {
      "constant": true,
      "inputs": [],
      "name": "autoApprovalTimeoutSec",
      "outputs": [
        {
          "name": "",
          "type": "uint32"
        }
      ],
      "payable": false,
      "stateMutability": "view",
      "type": "function"
    },
    {
      "constant": true,
      "inputs": [],
      "name": "disapprovalCommissionBeneficiary",
      "outputs": [
        {
          "name": "",
          "type": "address"
        }
      ],
      "payable": false,
      "stateMutability": "view",
      "type": "function"
    },
    {
      "constant": true,
      "inputs": [],
      "name": "VERSION",
      "outputs": [
        {
          "name": "",
          "type": "uint16"
        }
      ],
      "payable": false,
      "stateMutability": "view",
      "type": "function"
    },
    {
      "inputs": [
        {
          "name": "_tokenContractAddress",
          "type": "address"
        },
        {
          "name": "_clientAddress",
          "type": "address"
        },
        {
          "name": "_approvalCommissionBenificiaryAddress",
          "type": "address"
        },
        {
          "name": "_disapprovalCommissionBeneficiaryAddress",
          "type": "address"
        },
        {
          "name": "_approvalCommissionFractionThousands",
          "type": "uint256"
        },
        {
          "name": "_disapprovalCommissionFractionThousands",
          "type": "uint256"
        },
        {
          "name": "_totalWorkItems",
          "type": "uint256"
        },
        {
          "name": "_workItemPrice",
          "type": "uint256"
        },
        {
          "name": "_autoApprovalTimeoutSec",
          "type": "uint256"
        }
      ],
      "payable": false,
      "stateMutability": "nonpayable",
      "type": "constructor"
    },
    {
      "constant": false,
      "inputs": [],
      "name": "activate",
      "outputs": [],
      "payable": false,
      "stateMutability": "nonpayable",
      "type": "function"
    },
    {
      "constant": true,
      "inputs": [],
      "name": "describe",
      "outputs": [
        {
          "name": "_state",
          "type": "uint8"
        },
        {
          "name": "_totalWorkItems",
          "type": "uint256"
        },
        {
          "name": "_workItemPrice",
          "type": "uint256"
        },
        {
          "name": "_tokenBalance",
          "type": "uint256"
        },
        {
          "name": "_workItemsBalance",
          "type": "uint256"
        },
        {
          "name": "_workItemsLeft",
          "type": "uint256"
        },
        {
          "name": "_requiredInitialTokenBalance",
          "type": "uint256"
        },
        {
          "name": "_canForceFinalize",
          "type": "bool"
        }
      ],
      "payable": false,
      "stateMutability": "view",
      "type": "function"
    },
    {
      "constant": true,
      "inputs": [],
      "name": "getRequiredInitialTokenBalance",
      "outputs": [
        {
          "name": "",
          "type": "uint256"
        }
      ],
      "payable": false,
      "stateMutability": "view",
      "type": "function"
    },
    {
      "constant": true,
      "inputs": [],
      "name": "getTokenBalance",
      "outputs": [
        {
          "name": "",
          "type": "uint256"
        }
      ],
      "payable": false,
      "stateMutability": "view",
      "type": "function"
    },
    {
      "constant": true,
      "inputs": [],
      "name": "getWorkItemsBalance",
      "outputs": [
        {
          "name": "",
          "type": "uint256"
        }
      ],
      "payable": false,
      "stateMutability": "view",
      "type": "function"
    },
    {
      "constant": true,
      "inputs": [],
      "name": "getWorkItemsLeft",
      "outputs": [
        {
          "name": "",
          "type": "uint256"
        }
      ],
      "payable": false,
      "stateMutability": "view",
      "type": "function"
    },
    {
      "constant": true,
      "inputs": [],
      "name": "getCanForceFinalize",
      "outputs": [
        {
          "name": "",
          "type": "bool"
        }
      ],
      "payable": false,
      "stateMutability": "view",
      "type": "function"
    },
    {
      "constant": true,
      "inputs": [],
      "name": "getPerformance",
      "outputs": [
        {
          "name": "",
          "type": "address[]"
        },
        {
          "name": "",
          "type": "uint256[]"
        },
        {
          "name": "",
          "type": "uint256[]"
        },
        {
          "name": "",
          "type": "uint256[]"
        }
      ],
      "payable": false,
      "stateMutability": "view",
      "type": "function"
    },
    {
      "constant": false,
      "inputs": [
        {
          "name": "contractorAddrs",
          "type": "address[]"
        },
        {
          "name": "totalItems",
          "type": "uint256[]"
        }
      ],
      "name": "updateTotals",
      "outputs": [],
      "payable": false,
      "stateMutability": "nonpayable",
      "type": "function"
    },
    {
      "constant": false,
      "inputs": [
        {
          "name": "contractorAddrs",
          "type": "address[]"
        },
        {
          "name": "approvedItems",
          "type": "uint256[]"
        },
        {
          "name": "declinedItems",
          "type": "uint256[]"
        }
      ],
      "name": "updatePerformance",
      "outputs": [],
      "payable": false,
      "stateMutability": "nonpayable",
      "type": "function"
    },
    {
      "constant": false,
      "inputs": [],
      "name": "finalize",
      "outputs": [],
      "payable": false,
      "stateMutability": "nonpayable",
      "type": "function"
    },
    {
      "constant": false,
      "inputs": [],
      "name": "forceFinalize",
      "outputs": [],
      "payable": false,
      "stateMutability": "nonpayable",
      "type": "function"
    }
  ],
  "bytecode": "0x606060405260008060006101000a81548160ff021916908360028111156200002357fe5b021790555033600060016101000a81548173ffffffffffffffffffffffffffffffffffffffff021916908373ffffffffffffffffffffffffffffffffffffffff16021790555034156200007557600080fd5b60405161012080620020568339810160405280805190602001909190805190602001909190805190602001909190805190602001909190805190602001909190805190602001909190805190602001909190805190602001909190805190602001909190505060008973ffffffffffffffffffffffffffffffffffffffff16141515156200010257600080fd5b60008873ffffffffffffffffffffffffffffffffffffffff16141515156200012957600080fd5b60008773ffffffffffffffffffffffffffffffffffffffff16141515156200015057600080fd5b60008673ffffffffffffffffffffffffffffffffffffffff16141515156200017757600080fd5b6103e885111515156200018957600080fd5b6103e884111515156200019b57600080fd5b64010000000083101515620001af57600080fd5b64010000000081101515620001c357600080fd5b87600160006101000a81548173ffffffffffffffffffffffffffffffffffffffff021916908373ffffffffffffffffffffffffffffffffffffffff16021790555088600260006101000a81548173ffffffffffffffffffffffffffffffffffffffff021916908373ffffffffffffffffffffffffffffffffffffffff16021790555086600360006101000a81548173ffffffffffffffffffffffffffffffffffffffff021916908373ffffffffffffffffffffffffffffffffffffffff16021790555085600460006101000a81548173ffffffffffffffffffffffffffffffffffffffff021916908373ffffffffffffffffffffffffffffffffffffffff16021790555084600460146101000a81548161ffff021916908361ffff16021790555083600460166101000a81548161ffff021916908361ffff16021790555082600460186101000a81548163ffffffff021916908363ffffffff16021790555081600681905550806004601c6101000a81548163ffffffff021916908363ffffffff160217905550505050505050505050611cf380620003636000396000f30060606040526004361061015f576000357c0100000000000000000000000000000000000000000000000000000000900463ffffffff16806304621ce8146101645780630d34ca771461018d5780630f15f4c0146101ba5780630f15f59f146101cf5780631001ffaf14610200578063109e94cf146102315780631ad184ff1461028657806329d04065146102f25780632eafe009146103275780633481a95a1461035057806342de4e9c146103b357806346439f47146104f55780634bb278f31461054a57806355a373d61461055f578063663fd2ac146105b4578063730c7e821461063e57806382b2e2571461067b57806383d6a1d9146106a4578063877a96b0146106cd5780638da5cb5b14610767578063bee22cea146107bc578063c19d93fb146107d1578063c34763a014610808578063d328c430146108e2578063ea9b941314610917578063f53e2c241461096c578063ffa1ad7414610995575b600080fd5b341561016f57600080fd5b6101776109c6565b6040518082815260200191505060405180910390f35b341561019857600080fd5b6101a06109f8565b604051808215151515815260200191505060405180910390f35b34156101c557600080fd5b6101cd610a44565b005b34156101da57600080fd5b6101e2610b54565b604051808261ffff1661ffff16815260200191505060405180910390f35b341561020b57600080fd5b610213610b68565b604051808261ffff1661ffff16815260200191505060405180910390f35b341561023c57600080fd5b610244610b7c565b604051808273ffffffffffffffffffffffffffffffffffffffff1673ffffffffffffffffffffffffffffffffffffffff16815260200191505060405180910390f35b341561029157600080fd5b610299610ba2565b604051808960028111156102a957fe5b60ff168152602001888152602001878152602001868152602001858152602001848152602001838152602001821515151581526020019850505050505050505060405180910390f35b34156102fd57600080fd5b610305610c1b565b604051808263ffffffff1663ffffffff16815260200191505060405180910390f35b341561033257600080fd5b61033a610c31565b6040518082815260200191505060405180910390f35b341561035b57600080fd5b6103716004808035906020019091905050610c37565b604051808273ffffffffffffffffffffffffffffffffffffffff1673ffffffffffffffffffffffffffffffffffffffff16815260200191505060405180910390f35b34156103be57600080fd5b6103c6610c76565b6040518080602001806020018060200180602001858103855289818151815260200191508051906020019060200280838360005b838110156104155780820151818401526020810190506103fa565b50505050905001858103845288818151815260200191508051906020019060200280838360005b8381101561045757808201518184015260208101905061043c565b50505050905001858103835287818151815260200191508051906020019060200280838360005b8381101561049957808201518184015260208101905061047e565b50505050905001858103825286818151815260200191508051906020019060200280838360005b838110156104db5780820151818401526020810190506104c0565b505050509050019850505050505050505060405180910390f35b341561050057600080fd5b610508610eff565b604051808273ffffffffffffffffffffffffffffffffffffffff1673ffffffffffffffffffffffffffffffffffffffff16815260200191505060405180910390f35b341561055557600080fd5b61055d610f25565b005b341561056a57600080fd5b610572610fe8565b604051808273ffffffffffffffffffffffffffffffffffffffff1673ffffffffffffffffffffffffffffffffffffffff16815260200191505060405180910390f35b34156105bf57600080fd5b6105eb600480803573ffffffffffffffffffffffffffffffffffffffff1690602001909190505061100e565b60405180851515151581526020018463ffffffff1663ffffffff1681526020018363ffffffff1663ffffffff1681526020018263ffffffff1663ffffffff16815260200194505050505060405180910390f35b341561064957600080fd5b61065161107b565b604051808267ffffffffffffffff1667ffffffffffffffff16815260200191505060405180910390f35b341561068657600080fd5b61068e611095565b6040518082815260200191505060405180910390f35b34156106af57600080fd5b6106b761117c565b6040518082815260200191505060405180910390f35b34156106d857600080fd5b610765600480803590602001908201803590602001908080602002602001604051908101604052809392919081815260200183836020028082843782019150505050505091908035906020019082018035906020019080806020026020016040519081016040528093929190818152602001838360200280828437820191505050505050919050506111b0565b005b341561077257600080fd5b61077a6114dc565b604051808273ffffffffffffffffffffffffffffffffffffffff1673ffffffffffffffffffffffffffffffffffffffff16815260200191505060405180910390f35b34156107c757600080fd5b6107cf611502565b005b34156107dc57600080fd5b6107e4611681565b604051808260028111156107f457fe5b60ff16815260200191505060405180910390f35b341561081357600080fd5b6108e06004808035906020019082018035906020019080806020026020016040519081016040528093929190818152602001838360200280828437820191505050505050919080359060200190820180359060200190808060200260200160405190810160405280939291908181526020018383602002808284378201915050505050509190803590602001908201803590602001908080602002602001604051908101604052809392919081815260200183836020028082843782019150505050505091905050611693565b005b34156108ed57600080fd5b6108f5611902565b604051808263ffffffff1663ffffffff16815260200191505060405180910390f35b341561092257600080fd5b61092a611918565b604051808273ffffffffffffffffffffffffffffffffffffffff1673ffffffffffffffffffffffffffffffffffffffff16815260200191505060405180910390f35b341561097757600080fd5b61097f61193e565b6040518082815260200191505060405180910390f35b34156109a057600080fd5b6109a8611961565b604051808261ffff1661ffff16815260200191505060405180910390f35b6000806109d1611966565b90508091505080600460189054906101000a900463ffffffff160363ffffffff1691505090565b60006004601c9054906101000a900463ffffffff1663ffffffff16600560009054906101000a900467ffffffffffffffff16610a32611a82565b0367ffffffffffffffff161015905090565b600080600160009054906101000a900473ffffffffffffffffffffffffffffffffffffffff168073ffffffffffffffffffffffffffffffffffffffff163373ffffffffffffffffffffffffffffffffffffffff16141515610aa457600080fd5b6000806002811115610ab257fe5b6000809054906101000a900460ff166002811115610acc57fe5b141515610ad857600080fd5b610ae0611095565b9350610aea61117c565b9250828410151515610afb57600080fd5b60016000806101000a81548160ff02191690836002811115610b1957fe5b0217905550610b26611a82565b600560006101000a81548167ffffffffffffffff021916908367ffffffffffffffff16021790555050505050565b600460169054906101000a900461ffff1681565b600460149054906101000a900461ffff1681565b600160009054906101000a900473ffffffffffffffffffffffffffffffffffffffff1681565b6000806000806000806000806000809054906101000a900460ff169750600460189054906101000a900463ffffffff1663ffffffff1696506006549550610be7611095565b9450610bf161193e565b9350610bfb6109c6565b9250610c0561117c565b9150610c0f6109f8565b90509091929394959697565b600460189054906101000a900463ffffffff1681565b60065481565b600881815481101515610c4657fe5b90600052602060002090016000915054906101000a900473ffffffffffffffffffffffffffffffffffffffff1681565b610c7e611c4e565b610c86611c62565b610c8e611c62565b610c96611c62565b6000610ca0611c62565b610ca8611c62565b610cb0611c62565b6000806000600880549050965086604051805910610ccb5750595b9080825280602002602001820160405250955086604051805910610cec5750595b9080825280602002602001820160405250945086604051805910610d0d5750595b90808252806020026020018201604052509350600092505b86831015610e5d57600883815481101515610d3c57fe5b906000526020600020900160009054906101000a900473ffffffffffffffffffffffffffffffffffffffff169150600760008373ffffffffffffffffffffffffffffffffffffffff1673ffffffffffffffffffffffffffffffffffffffff16815260200190815260200160002090508060000160019054906101000a900463ffffffff1663ffffffff168684815181101515610dd457fe5b90602001906020020181815250508060000160059054906101000a900463ffffffff1663ffffffff168584815181101515610e0b57fe5b90602001906020020181815250508060000160099054906101000a900463ffffffff1663ffffffff168484815181101515610e4257fe5b90602001906020020181815250508280600101935050610d25565b600886868683805480602002602001604051908101604052809291908181526020018280548015610ee357602002820191906000526020600020905b8160009054906101000a900473ffffffffffffffffffffffffffffffffffffffff1673ffffffffffffffffffffffffffffffffffffffff1681526020019060010190808311610e99575b505050505093509a509a509a509a505050505050505090919293565b600360009054906101000a900473ffffffffffffffffffffffffffffffffffffffff1681565b6000600160009054906101000a900473ffffffffffffffffffffffffffffffffffffffff168073ffffffffffffffffffffffffffffffffffffffff163373ffffffffffffffffffffffffffffffffffffffff16141515610f8457600080fd5b6001806002811115610f9257fe5b6000809054906101000a900460ff166002811115610fac57fe5b141515610fb857600080fd5b610fc0611966565b90508093505060008363ffffffff16141515610fdb57600080fd5b610fe3611a8a565b505050565b600260009054906101000a900473ffffffffffffffffffffffffffffffffffffffff1681565b60076020528060005260406000206000915090508060000160009054906101000a900460ff16908060000160019054906101000a900463ffffffff16908060000160059054906101000a900463ffffffff16908060000160099054906101000a900463ffffffff16905084565b600560009054906101000a900467ffffffffffffffff1681565b6000600260009054906101000a900473ffffffffffffffffffffffffffffffffffffffff1673ffffffffffffffffffffffffffffffffffffffff166370a08231306000604051602001526040518263ffffffff167c0100000000000000000000000000000000000000000000000000000000028152600401808273ffffffffffffffffffffffffffffffffffffffff1673ffffffffffffffffffffffffffffffffffffffff168152602001915050602060405180830381600087803b151561115c57600080fd5b6102c65a03f1151561116d57600080fd5b50505060405180519050905090565b60006111ab600460189054906101000a900463ffffffff1663ffffffff16600654611ab790919063ffffffff16565b905090565b60008060008060008060019054906101000a900473ffffffffffffffffffffffffffffffffffffffff168073ffffffffffffffffffffffffffffffffffffffff163373ffffffffffffffffffffffffffffffffffffffff1614151561121457600080fd5b600180600281111561122257fe5b6000809054906101000a900460ff16600281111561123c57fe5b14151561124857600080fd5b8751895114151561125857600080fd5b600096505b88518710156113e057888781518110151561127457fe5b906020019060200201519550600760008773ffffffffffffffffffffffffffffffffffffffff1673ffffffffffffffffffffffffffffffffffffffff16815260200190815260200160002094508460000160009054906101000a900460ff16151561135a5760018560000160006101000a81548160ff0219169083151502179055506008805480600101828161130a9190611c76565b9160005260206000209001600088909190916101000a81548173ffffffffffffffffffffffffffffffffffffffff021916908373ffffffffffffffffffffffffffffffffffffffff160217905550505b878781518110151561136857fe5b9060200190602002015193508460000160019054906101000a900463ffffffff1663ffffffff16841015151561139d57600080fd5b640100000000841015156113b057600080fd5b838560000160016101000a81548163ffffffff021916908363ffffffff160217905550868060010197505061125d565b60009250600096505b6008805490508710156114aa5761149b6007600060088a81548110151561140c57fe5b906000526020600020900160009054906101000a900473ffffffffffffffffffffffffffffffffffffffff1673ffffffffffffffffffffffffffffffffffffffff1673ffffffffffffffffffffffffffffffffffffffff16815260200190815260200160002060000160019054906101000a900463ffffffff1663ffffffff1684611aea90919063ffffffff16565b925086806001019750506113e9565b600460189054906101000a900463ffffffff1663ffffffff1683111515156114d157600080fd5b505050505050505050565b600060019054906101000a900473ffffffffffffffffffffffffffffffffffffffff1681565b6000806000600180600281111561151557fe5b6000809054906101000a900460ff16600281111561152f57fe5b14151561153b57600080fd5b6115436109f8565b151561154e57600080fd5b600093505b600880549050841015611673576007600060088681548110151561157357fe5b906000526020600020900160009054906101000a900473ffffffffffffffffffffffffffffffffffffffff1673ffffffffffffffffffffffffffffffffffffffff1673ffffffffffffffffffffffffffffffffffffffff16815260200190815260200160002092508260000160099054906101000a900463ffffffff168360000160059054906101000a900463ffffffff168460000160019054906101000a900463ffffffff160303915060008263ffffffff16111561166657818360000160058282829054906101000a900463ffffffff160192506101000a81548163ffffffff021916908363ffffffff1602179055505b8380600101945050611553565b61167b611a8a565b50505050565b6000809054906101000a900460ff1681565b600080600080600080600160009054906101000a900473ffffffffffffffffffffffffffffffffffffffff168073ffffffffffffffffffffffffffffffffffffffff163373ffffffffffffffffffffffffffffffffffffffff161415156116f957600080fd5b600180600281111561170757fe5b6000809054906101000a900460ff16600281111561172157fe5b14151561172d57600080fd5b89518b5114151561173d57600080fd5b88518b5114151561174d57600080fd5b600097505b8a518810156118c5578a8881518110151561176957fe5b906020019060200201519650600760008873ffffffffffffffffffffffffffffffffffffffff1673ffffffffffffffffffffffffffffffffffffffff16815260200190815260200160002095508560000160009054906101000a900460ff1615156117d357600080fd5b89888151811015156117e157fe5b90602001906020020151945088888151811015156117fb57fe5b90602001906020020151935061181a8486611aea90919063ffffffff16565b92508560000160019054906101000a900463ffffffff1663ffffffff168314151561184457600080fd5b898881518110151561185257fe5b906020019060200201518660000160056101000a81548163ffffffff021916908363ffffffff160217905550888881518110151561188c57fe5b906020019060200201518660000160096101000a81548163ffffffff021916908363ffffffff1602179055508780600101985050611752565b6118cd611a82565b600560006101000a81548167ffffffffffffffff021916908367ffffffffffffffff1602179055505050505050505050505050565b6004601c9054906101000a900463ffffffff1681565b600460009054906101000a900473ffffffffffffffffffffffffffffffffffffffff1681565b600061195c60065461194e611095565b611b0890919063ffffffff16565b905090565b600181565b600080600080600080600080945060009350600092505b600880549050831015611a73576007600060088581548110151561199d57fe5b906000526020600020900160009054906101000a900473ffffffffffffffffffffffffffffffffffffffff1673ffffffffffffffffffffffffffffffffffffffff1673ffffffffffffffffffffffffffffffffffffffff16815260200190815260200160002091508160000160099054906101000a900463ffffffff168260000160059054906101000a900463ffffffff168360000160019054906101000a900463ffffffff16030390508160000160059054906101000a900463ffffffff16850194508084019350828060010193505061197d565b84849650965050505050509091565b600042905090565b60026000806101000a81548160ff02191690836002811115611aa857fe5b0217905550611ab5611b23565b565b60008082840290506000841480611ad85750828482811515611ad557fe5b04145b1515611ae057fe5b8091505092915050565b6000808284019050838110151515611afe57fe5b8091505092915050565b6000808284811515611b1657fe5b0490508091505092915050565b6000611b2d611095565b90506000811115611c4b57600260009054906101000a900473ffffffffffffffffffffffffffffffffffffffff1673ffffffffffffffffffffffffffffffffffffffff1663a9059cbb600160009054906101000a900473ffffffffffffffffffffffffffffffffffffffff16836000604051602001526040518363ffffffff167c0100000000000000000000000000000000000000000000000000000000028152600401808373ffffffffffffffffffffffffffffffffffffffff1673ffffffffffffffffffffffffffffffffffffffff16815260200182815260200192505050602060405180830381600087803b1515611c2757600080fd5b6102c65a03f11515611c3857600080fd5b505050604051805190501515611c4a57fe5b5b50565b602060405190810160405280600081525090565b602060405190810160405280600081525090565b815481835581811511611c9d57818360005260206000209182019101611c9c9190611ca2565b5b505050565b611cc491905b80821115611cc0576000816000905550600101611ca8565b5090565b905600a165627a7a723058202b1c40d3acb67ca64e5ad127029f01cb48f0ff4a326457d93f974465b7acf1d80029",
  "source": "pragma solidity ^0.4.17;\n\nimport \"./ERC20.sol\";\nimport \"./SafeMath.sol\";\n\n\ncontract GGProject {\n  using SafeMath for uint256;\n\n  enum State {\n    New,\n    Active,\n    Finalized\n  }\n\n  uint16 public constant VERSION = 1;\n  State public state = State.New;\n\n  address public owner = msg.sender;\n  address public client;\n  ERC20 public tokenContract;\n  address public approvalCommissionBenificiary;\n  address public disapprovalCommissionBeneficiary;\n\n  uint16 public approvalCommissionFractionThousands;\n  uint16 public disapprovalCommissionFractionThousands;\n  uint32 public totalWorkItems;\n  uint32 public autoApprovalTimeoutSec;\n  uint64 public lastClientActivity;\n  uint256 public workItemPrice;\n\n  struct ContractorPerformance {\n    bool isSet;\n    uint32 totalItems;\n    uint32 approvedItems;\n    uint32 declinedItems;\n  }\n\n  mapping(address => ContractorPerformance) public performanceByContractor;\n  address[] public contractors;\n\n  modifier atState(State _state) {\n    require(state == _state);\n    _;\n  }\n\n  modifier allowOnly(address callerAddress) {\n    require(msg.sender == callerAddress);\n    _;\n  }\n\n  function GGProject(\n    address _tokenContractAddress,\n    address _clientAddress,\n    address _approvalCommissionBenificiaryAddress,\n    address _disapprovalCommissionBeneficiaryAddress,\n    uint256 _approvalCommissionFractionThousands,\n    uint256 _disapprovalCommissionFractionThousands,\n    uint256 _totalWorkItems,\n    uint256 _workItemPrice,\n    uint256 _autoApprovalTimeoutSec\n  ) public {\n    require(_tokenContractAddress != 0);\n    require(_clientAddress != 0);\n    require(_approvalCommissionBenificiaryAddress != 0);\n    require(_disapprovalCommissionBeneficiaryAddress != 0);\n\n    require(_approvalCommissionFractionThousands <= 1000);\n    require(_disapprovalCommissionFractionThousands <= 1000);\n\n    require(_totalWorkItems < 4294967296); // 2^32\n    require(_autoApprovalTimeoutSec < 4294967296); // 2^32\n\n    client = _clientAddress;\n    tokenContract = ERC20(_tokenContractAddress);\n    approvalCommissionBenificiary = _approvalCommissionBenificiaryAddress;\n    disapprovalCommissionBeneficiary = _disapprovalCommissionBeneficiaryAddress;\n\n    approvalCommissionFractionThousands = uint16(_approvalCommissionFractionThousands);\n    disapprovalCommissionFractionThousands = uint16(_disapprovalCommissionFractionThousands);\n\n    totalWorkItems = uint32(_totalWorkItems);\n    workItemPrice = _workItemPrice;\n    autoApprovalTimeoutSec = uint32(_autoApprovalTimeoutSec);\n  }\n\n  function activate() public allowOnly(client) atState(State.New) {\n    uint256 tokenBalance = getTokenBalance();\n    uint256 requiredInitialTokenBalance = getRequiredInitialTokenBalance();\n\n    require(tokenBalance >= requiredInitialTokenBalance);\n\n    state = State.Active;\n    lastClientActivity = getTimestamp();\n  }\n\n  function describe() external view returns (\n    State _state,\n    uint256 _totalWorkItems,\n    uint256 _workItemPrice,\n    uint256 _tokenBalance,\n    uint256 _workItemsBalance,\n    uint256 _workItemsLeft,\n    uint256 _requiredInitialTokenBalance,\n    bool _canForceFinalize\n  ) {\n    _state = state;\n    _totalWorkItems = totalWorkItems;\n    _workItemPrice = workItemPrice;\n    _tokenBalance = getTokenBalance();\n    _workItemsBalance = getWorkItemsBalance();\n    _workItemsLeft = getWorkItemsLeft();\n    _requiredInitialTokenBalance = getRequiredInitialTokenBalance();\n    _canForceFinalize = getCanForceFinalize();\n  }\n\n  function getRequiredInitialTokenBalance() public view returns (uint256) {\n    return workItemPrice.mul(totalWorkItems);\n  }\n\n  function getTokenBalance() public view returns (uint256) {\n    return tokenContract.balanceOf(address(this));\n  }\n\n  function getWorkItemsBalance() public view returns (uint256) {\n    return getTokenBalance().div(workItemPrice);\n  }\n\n  function getWorkItemsLeft() public view returns (uint256) {\n    uint32 totalPendingItems;\n    (, totalPendingItems) = _getPerformanceTotals();\n    // We know this won't wrap around zero, see comments in _getPerformanceTotals.\n    return totalWorkItems - totalPendingItems;\n  }\n\n  function getCanForceFinalize() public view returns (bool) {\n    return getTimestamp() - lastClientActivity >= autoApprovalTimeoutSec;\n  }\n\n  function getPerformance() external view returns (address[], uint256[], uint256[], uint256[]) {\n    uint256 totalContractors = contractors.length;\n\n    uint256[] memory totalItems = new uint256[](totalContractors);\n    uint256[] memory approvedItems = new uint256[](totalContractors);\n    uint256[] memory declinedItems = new uint256[](totalContractors);\n\n    for (uint256 i = 0; i < totalContractors; i++) {\n      address addr = contractors[i];\n      ContractorPerformance storage perf = performanceByContractor[addr];\n      totalItems[i] = perf.totalItems;\n      approvedItems[i] = perf.approvedItems;\n      declinedItems[i] = perf.declinedItems;\n    }\n\n    return (contractors, totalItems, approvedItems, declinedItems);\n  }\n\n  function updateTotals(address[] contractorAddrs, uint256[] totalItems) public\n    allowOnly(owner)\n    atState(State.Active)\n  {\n    require(contractorAddrs.length == totalItems.length);\n\n    uint256 i;\n\n    for (i = 0; i < contractorAddrs.length; i++) {\n      address addr = contractorAddrs[i];\n      ContractorPerformance storage perf = performanceByContractor[addr];\n\n      if (!perf.isSet) {\n        perf.isSet = true;\n        contractors.push(addr);\n      }\n\n      uint256 newTotalItems = totalItems[i];\n\n      require(newTotalItems >= perf.totalItems);\n      require(newTotalItems < 2 ** 32);\n\n      perf.totalItems = uint32(newTotalItems);\n    }\n\n    uint256 totalCompletedItems = 0;\n\n    for (i = 0; i < contractors.length; i++) {\n      totalCompletedItems = totalCompletedItems.add(\n        performanceByContractor[contractors[i]].totalItems\n      );\n    }\n\n    require(totalCompletedItems <= totalWorkItems);\n  }\n\n  function updatePerformance(\n    address[] contractorAddrs,\n    uint256[] approvedItems,\n    uint256[] declinedItems\n  ) public\n    allowOnly(client)\n    atState(State.Active)\n  {\n    require(contractorAddrs.length == approvedItems.length);\n    require(contractorAddrs.length == declinedItems.length);\n\n    for (uint256 i = 0; i < contractorAddrs.length; i++) {\n      address addr = contractorAddrs[i];\n      ContractorPerformance storage perf = performanceByContractor[addr];\n      require(perf.isSet);\n\n      uint256 newApprovedItems = approvedItems[i];\n      uint256 newDeclinedItems = declinedItems[i];\n\n      uint256 newTotalItems = newApprovedItems.add(newDeclinedItems);\n      require(newTotalItems == perf.totalItems);\n\n      // We know both these numbers fit into uint32 since their sum\n      // equals to perf.totalItems, which is itself uint32.\n      perf.approvedItems = uint32(approvedItems[i]);\n      perf.declinedItems = uint32(declinedItems[i]);\n    }\n\n    lastClientActivity = getTimestamp();\n  }\n\n  function finalize() public allowOnly(client) atState(State.Active) {\n    uint32 totalPendingItems;\n    (, totalPendingItems) = _getPerformanceTotals();\n    require(totalPendingItems == 0);\n    _finalizeAndRefundClient();\n  }\n\n  function forceFinalize() public atState(State.Active) {\n    require(getCanForceFinalize());\n\n    for (uint256 i = 0; i < contractors.length; i++) {\n      ContractorPerformance storage perf = performanceByContractor[contractors[i]];\n      uint32 pendingItems = perf.totalItems - perf.approvedItems - perf.declinedItems;\n      if (pendingItems > 0) {\n        perf.approvedItems += pendingItems;\n      }\n    }\n\n    _finalizeAndRefundClient();\n  }\n\n  function _finalizeAndRefundClient() internal {\n    state = State.Finalized;\n    _refundClient();\n  }\n\n  function _refundClient() internal {\n    uint256 tokenBalance = getTokenBalance();\n    if (tokenBalance > 0) {\n      assert(tokenContract.transfer(client, tokenBalance));\n    }\n  }\n\n  // Returns (uint32 totalApprovedItems, uint32 totalPendingItems).\n  //\n  function _getPerformanceTotals() internal view returns (uint32, uint32) {\n    uint32 totalApprovedItems = 0;\n    uint32 totalPendingItems = 0;\n\n    for (uint256 i = 0; i < contractors.length; i++) {\n      ContractorPerformance storage perf = performanceByContractor[contractors[i]];\n      // We know that sum of approvedItems and declinedItems is less than or equal to\n      // totalItems since we're checking this in updatePerformance, which is the only\n      // place these values get updated.\n      uint32 pendingItems = perf.totalItems - perf.approvedItems - perf.declinedItems;\n      // We know that sum of perf.totalItems for all contractors is less than totalWorkItems,\n      // which is uint32, since we're checking this in updateTotals, which is the only place\n      // perf.totalItems get updated. So we know that both sum of all perf.approvedItems and\n      // and sum of all pendingItems fit into uint32, since both of these values are less\n      // than or equal to perf.totalItems (see above).\n      totalApprovedItems += perf.approvedItems;\n      totalPendingItems += pendingItems;\n    }\n\n    return (totalApprovedItems, totalPendingItems);\n  }\n\n  // We can rely on the value of block.timestamp for our purposes, as the consensus\n  // rule is that a block's timestamp must be 1) more than the parent's block timestamp;\n  // and 2) less than the current wall clock time. See:\n  // https://github.com/ethereum/go-ethereum/blob/885c13c/consensus/ethash/consensus.go#L223\n  //\n  function getTimestamp() internal view returns (uint64) {\n    return uint64(block.timestamp);\n  }\n}\n",
  "sourcePath": "/Users/sam/dev/projects/gg/smart-contracts/truffle/contracts/GGProject.sol",
  "compiler": {
    "name": "solc",
    "version": "0.4.19+commit.c4cbbb05.Emscripten.clang"
  },
  "schemaVersion": "2.0.0",
  "updatedAt": "2018-03-18T12:26:37.223Z"
}