{
  "contractName": "GGProjectDebug",
  "abi": [
    {
      "constant": true,
      "inputs": [],
      "name": "getWorkItemsLeft",
      "outputs": [
        {
          "name": "",
          "type": "uint256"
        }
      ],
      "payable": false,
      "stateMutability": "view",
      "type": "function"
    },
    {
      "constant": true,
      "inputs": [],
      "name": "getCanForceFinalizeAt",
      "outputs": [
        {
          "name": "",
          "type": "uint64"
        }
      ],
      "payable": false,
      "stateMutability": "view",
      "type": "function"
    },
    {
      "constant": true,
      "inputs": [],
      "name": "getCanForceFinalize",
      "outputs": [
        {
          "name": "",
          "type": "bool"
        }
      ],
      "payable": false,
      "stateMutability": "view",
      "type": "function"
    },
    {
      "constant": false,
      "inputs": [],
      "name": "activate",
      "outputs": [],
      "payable": false,
      "stateMutability": "nonpayable",
      "type": "function"
    },
    {
      "constant": true,
      "inputs": [],
      "name": "disapprovalCommissionFractionThousands",
      "outputs": [
        {
          "name": "",
          "type": "uint16"
        }
      ],
      "payable": false,
      "stateMutability": "view",
      "type": "function"
    },
    {
      "constant": true,
      "inputs": [],
      "name": "approvalCommissionFractionThousands",
      "outputs": [
        {
          "name": "",
          "type": "uint16"
        }
      ],
      "payable": false,
      "stateMutability": "view",
      "type": "function"
    },
    {
      "constant": true,
      "inputs": [],
      "name": "client",
      "outputs": [
        {
          "name": "",
          "type": "address"
        }
      ],
      "payable": false,
      "stateMutability": "view",
      "type": "function"
    },
    {
      "constant": true,
      "inputs": [],
      "name": "describe",
      "outputs": [
        {
          "name": "_state",
          "type": "uint8"
        },
        {
          "name": "_totalWorkItems",
          "type": "uint256"
        },
        {
          "name": "_workItemPrice",
          "type": "uint256"
        },
        {
          "name": "_tokenBalance",
          "type": "uint256"
        },
        {
          "name": "_workItemsBalance",
          "type": "uint256"
        },
        {
          "name": "_workItemsLeft",
          "type": "uint256"
        },
        {
          "name": "_requiredInitialTokenBalance",
          "type": "uint256"
        },
        {
          "name": "_canFinalize",
          "type": "bool"
        },
        {
          "name": "_canForceFinalize",
          "type": "bool"
        },
        {
          "name": "_canForceFinalizeAt",
          "type": "uint256"
        }
      ],
      "payable": false,
      "stateMutability": "view",
      "type": "function"
    },
    {
      "constant": true,
      "inputs": [],
      "name": "totalWorkItems",
      "outputs": [
        {
          "name": "",
          "type": "uint32"
        }
      ],
      "payable": false,
      "stateMutability": "view",
      "type": "function"
    },
    {
      "constant": true,
      "inputs": [],
      "name": "workItemPrice",
      "outputs": [
        {
          "name": "",
          "type": "uint256"
        }
      ],
      "payable": false,
      "stateMutability": "view",
      "type": "function"
    },
    {
      "constant": true,
      "inputs": [
        {
          "name": "",
          "type": "uint256"
        }
      ],
      "name": "contractors",
      "outputs": [
        {
          "name": "",
          "type": "address"
        }
      ],
      "payable": false,
      "stateMutability": "view",
      "type": "function"
    },
    {
      "constant": true,
      "inputs": [],
      "name": "getPerformance",
      "outputs": [
        {
          "name": "",
          "type": "address[]"
        },
        {
          "name": "",
          "type": "uint256[]"
        },
        {
          "name": "",
          "type": "uint256[]"
        },
        {
          "name": "",
          "type": "uint256[]"
        }
      ],
      "payable": false,
      "stateMutability": "view",
      "type": "function"
    },
    {
      "constant": true,
      "inputs": [],
      "name": "approvalCommissionBenificiary",
      "outputs": [
        {
          "name": "",
          "type": "address"
        }
      ],
      "payable": false,
      "stateMutability": "view",
      "type": "function"
    },
    {
      "constant": false,
      "inputs": [],
      "name": "finalize",
      "outputs": [],
      "payable": false,
      "stateMutability": "nonpayable",
      "type": "function"
    },
    {
      "constant": true,
      "inputs": [],
      "name": "tokenContract",
      "outputs": [
        {
          "name": "",
          "type": "address"
        }
      ],
      "payable": false,
      "stateMutability": "view",
      "type": "function"
    },
    {
      "constant": true,
      "inputs": [
        {
          "name": "",
          "type": "address"
        }
      ],
      "name": "performanceByContractor",
      "outputs": [
        {
          "name": "isSet",
          "type": "bool"
        },
        {
          "name": "totalItems",
          "type": "uint32"
        },
        {
          "name": "approvedItems",
          "type": "uint32"
        },
        {
          "name": "declinedItems",
          "type": "uint32"
        }
      ],
      "payable": false,
      "stateMutability": "view",
      "type": "function"
    },
    {
      "constant": true,
      "inputs": [],
      "name": "getTokenBalance",
      "outputs": [
        {
          "name": "",
          "type": "uint256"
        }
      ],
      "payable": false,
      "stateMutability": "view",
      "type": "function"
    },
    {
      "constant": true,
      "inputs": [],
      "name": "getRequiredInitialTokenBalance",
      "outputs": [
        {
          "name": "",
          "type": "uint256"
        }
      ],
      "payable": false,
      "stateMutability": "view",
      "type": "function"
    },
    {
      "constant": false,
      "inputs": [
        {
          "name": "contractorAddrs",
          "type": "address[]"
        },
        {
          "name": "totalItems",
          "type": "uint256[]"
        }
      ],
      "name": "updateTotals",
      "outputs": [],
      "payable": false,
      "stateMutability": "nonpayable",
      "type": "function"
    },
    {
      "constant": true,
      "inputs": [],
      "name": "owner",
      "outputs": [
        {
          "name": "",
          "type": "address"
        }
      ],
      "payable": false,
      "stateMutability": "view",
      "type": "function"
    },
    {
      "constant": true,
      "inputs": [],
      "name": "performanceUpdatedAt",
      "outputs": [
        {
          "name": "",
          "type": "uint64"
        }
      ],
      "payable": false,
      "stateMutability": "view",
      "type": "function"
    },
    {
      "constant": true,
      "inputs": [],
      "name": "getCanFinalize",
      "outputs": [
        {
          "name": "",
          "type": "bool"
        }
      ],
      "payable": false,
      "stateMutability": "view",
      "type": "function"
    },
    {
      "constant": true,
      "inputs": [],
      "name": "debugTimestamp",
      "outputs": [
        {
          "name": "",
          "type": "uint64"
        }
      ],
      "payable": false,
      "stateMutability": "view",
      "type": "function"
    },
    {
      "constant": false,
      "inputs": [],
      "name": "forceFinalize",
      "outputs": [],
      "payable": false,
      "stateMutability": "nonpayable",
      "type": "function"
    },
    {
      "constant": true,
      "inputs": [],
      "name": "state",
      "outputs": [
        {
          "name": "",
          "type": "uint8"
        }
      ],
      "payable": false,
      "stateMutability": "view",
      "type": "function"
    },
    {
      "constant": false,
      "inputs": [
        {
          "name": "contractorAddrs",
          "type": "address[]"
        },
        {
          "name": "approvedItems",
          "type": "uint256[]"
        },
        {
          "name": "declinedItems",
          "type": "uint256[]"
        }
      ],
      "name": "updatePerformance",
      "outputs": [],
      "payable": false,
      "stateMutability": "nonpayable",
      "type": "function"
    },
    {
      "constant": true,
      "inputs": [],
      "name": "hasPendingItems",
      "outputs": [
        {
          "name": "",
          "type": "bool"
        }
      ],
      "payable": false,
      "stateMutability": "view",
      "type": "function"
    },
    {
      "constant": true,
      "inputs": [],
      "name": "autoApprovalTimeoutSec",
      "outputs": [
        {
          "name": "",
          "type": "uint32"
        }
      ],
      "payable": false,
      "stateMutability": "view",
      "type": "function"
    },
    {
      "constant": true,
      "inputs": [],
      "name": "disapprovalCommissionBeneficiary",
      "outputs": [
        {
          "name": "",
          "type": "address"
        }
      ],
      "payable": false,
      "stateMutability": "view",
      "type": "function"
    },
    {
      "constant": true,
      "inputs": [],
      "name": "getWorkItemsBalance",
      "outputs": [
        {
          "name": "",
          "type": "uint256"
        }
      ],
      "payable": false,
      "stateMutability": "view",
      "type": "function"
    },
    {
      "constant": true,
      "inputs": [],
      "name": "VERSION",
      "outputs": [
        {
          "name": "",
          "type": "uint16"
        }
      ],
      "payable": false,
      "stateMutability": "view",
      "type": "function"
    },
    {
      "inputs": [
        {
          "name": "_tokenContractAddress",
          "type": "address"
        },
        {
          "name": "_clientAddress",
          "type": "address"
        },
        {
          "name": "_approvalCommissionBenificiaryAddress",
          "type": "address"
        },
        {
          "name": "_disapprovalCommissionBeneficiaryAddress",
          "type": "address"
        },
        {
          "name": "_approvalCommissionFractionThousands",
          "type": "uint256"
        },
        {
          "name": "_disapprovalCommissionFractionThousands",
          "type": "uint256"
        },
        {
          "name": "_totalWorkItems",
          "type": "uint256"
        },
        {
          "name": "_workItemPrice",
          "type": "uint256"
        },
        {
          "name": "_autoApprovalTimeoutSec",
          "type": "uint256"
        }
      ],
      "payable": false,
      "stateMutability": "nonpayable",
      "type": "constructor"
    },
    {
      "anonymous": false,
      "inputs": [],
      "name": "Activated",
      "type": "event"
    },
    {
      "anonymous": false,
      "inputs": [],
      "name": "UpdatedPerformance",
      "type": "event"
    },
    {
      "anonymous": false,
      "inputs": [],
      "name": "Finalized",
      "type": "event"
    },
    {
      "constant": false,
      "inputs": [
        {
          "name": "sec",
          "type": "uint64"
        }
      ],
      "name": "increaseTimeBy",
      "outputs": [],
      "payable": false,
      "stateMutability": "nonpayable",
      "type": "function"
    }
  ],
  "bytecode": "0x606060405260008060006101000a81548160ff021916908360028111156200002357fe5b021790555033600060016101000a81548173ffffffffffffffffffffffffffffffffffffffff021916908373ffffffffffffffffffffffffffffffffffffffff160217905550602a600960006101000a81548167ffffffffffffffff021916908367ffffffffffffffff16021790555034156200009f57600080fd5b604051610120806200281c8339810160405280805190602001909190805190602001909190805190602001909190805190602001909190805190602001909190805190602001909190805190602001909190805190602001909190805190602001909190505088888888888888888860008973ffffffffffffffffffffffffffffffffffffffff16141515156200013557600080fd5b60008873ffffffffffffffffffffffffffffffffffffffff16141515156200015c57600080fd5b60008773ffffffffffffffffffffffffffffffffffffffff16141515156200018357600080fd5b60008673ffffffffffffffffffffffffffffffffffffffff1614151515620001aa57600080fd5b6103e88511151515620001bc57600080fd5b6103e88411151515620001ce57600080fd5b64010000000083101515620001e257600080fd5b64010000000081101515620001f657600080fd5b87600160006101000a81548173ffffffffffffffffffffffffffffffffffffffff021916908373ffffffffffffffffffffffffffffffffffffffff16021790555088600260006101000a81548173ffffffffffffffffffffffffffffffffffffffff021916908373ffffffffffffffffffffffffffffffffffffffff16021790555086600360006101000a81548173ffffffffffffffffffffffffffffffffffffffff021916908373ffffffffffffffffffffffffffffffffffffffff16021790555085600460006101000a81548173ffffffffffffffffffffffffffffffffffffffff021916908373ffffffffffffffffffffffffffffffffffffffff16021790555084600460146101000a81548161ffff021916908361ffff16021790555083600460166101000a81548161ffff021916908361ffff16021790555082600460186101000a81548163ffffffff021916908363ffffffff16021790555081600681905550806004601c6101000a81548163ffffffff021916908363ffffffff16021790555050505050505050505050505050505050505061247d806200039f6000396000f300606060405260043610610196576000357c0100000000000000000000000000000000000000000000000000000000900463ffffffff16806304621ce81461019b578063088c00f9146101c45780630d34ca77146102015780630f15f4c01461022e5780630f15f59f146102435780631001ffaf14610274578063109e94cf146102a55780631ad184ff146102fa57806329d04065146103785780632eafe009146103ad5780633481a95a146103d657806342de4e9c1461043957806346439f471461057b5780634bb278f3146105d057806355a373d6146105e55780635878e0861461063a578063663fd2ac1461066757806382b2e257146106f157806383d6a1d91461071a578063877a96b0146107435780638da5cb5b146107dd5780639d0c4fb314610832578063a3ac03081461086f578063b63c9e441461089c578063bee22cea146108d9578063c19d93fb146108ee578063c34763a014610925578063d0805582146109ff578063d328c43014610a2c578063ea9b941314610a61578063f53e2c2414610ab6578063ffa1ad7414610adf575b600080fd5b34156101a657600080fd5b6101ae610b10565b6040518082815260200191505060405180910390f35b34156101cf57600080fd5b6101d7610b49565b604051808267ffffffffffffffff1667ffffffffffffffff16815260200191505060405180910390f35b341561020c57600080fd5b610214610b99565b604051808215151515815260200191505060405180910390f35b341561023957600080fd5b610241610bd6565b005b341561024e57600080fd5b610256610d12565b604051808261ffff1661ffff16815260200191505060405180910390f35b341561027f57600080fd5b610287610d26565b604051808261ffff1661ffff16815260200191505060405180910390f35b34156102b057600080fd5b6102b8610d3a565b604051808273ffffffffffffffffffffffffffffffffffffffff1673ffffffffffffffffffffffffffffffffffffffff16815260200191505060405180910390f35b341561030557600080fd5b61030d610d60565b604051808b600281111561031d57fe5b60ff1681526020018a815260200189815260200188815260200187815260200186815260200185815260200184151515158152602001831515151581526020018281526020019a505050505050505050505060405180910390f35b341561038357600080fd5b61038b610dfc565b604051808263ffffffff1663ffffffff16815260200191505060405180910390f35b34156103b857600080fd5b6103c0610e12565b6040518082815260200191505060405180910390f35b34156103e157600080fd5b6103f76004808035906020019091905050610e18565b604051808273ffffffffffffffffffffffffffffffffffffffff1673ffffffffffffffffffffffffffffffffffffffff16815260200191505060405180910390f35b341561044457600080fd5b61044c610e57565b6040518080602001806020018060200180602001858103855289818151815260200191508051906020019060200280838360005b8381101561049b578082015181840152602081019050610480565b50505050905001858103845288818151815260200191508051906020019060200280838360005b838110156104dd5780820151818401526020810190506104c2565b50505050905001858103835287818151815260200191508051906020019060200280838360005b8381101561051f578082015181840152602081019050610504565b50505050905001858103825286818151815260200191508051906020019060200280838360005b83811015610561578082015181840152602081019050610546565b505050509050019850505050505050505060405180910390f35b341561058657600080fd5b61058e6110e0565b604051808273ffffffffffffffffffffffffffffffffffffffff1673ffffffffffffffffffffffffffffffffffffffff16815260200191505060405180910390f35b34156105db57600080fd5b6105e3611106565b005b34156105f057600080fd5b6105f86111b6565b604051808273ffffffffffffffffffffffffffffffffffffffff1673ffffffffffffffffffffffffffffffffffffffff16815260200191505060405180910390f35b341561064557600080fd5b610665600480803567ffffffffffffffff169060200190919050506111dc565b005b341561067257600080fd5b61069e600480803573ffffffffffffffffffffffffffffffffffffffff16906020019091905050611221565b60405180851515151581526020018463ffffffff1663ffffffff1681526020018363ffffffff1663ffffffff1681526020018263ffffffff1663ffffffff16815260200194505050505060405180910390f35b34156106fc57600080fd5b61070461128e565b6040518082815260200191505060405180910390f35b341561072557600080fd5b61072d611375565b6040518082815260200191505060405180910390f35b341561074e57600080fd5b6107db600480803590602001908201803590602001908080602002602001604051908101604052809392919081815260200183836020028082843782019150505050505091908035906020019082018035906020019080806020026020016040519081016040528093929190818152602001838360200280828437820191505050505050919050506113a9565b005b34156107e857600080fd5b6107f061168e565b604051808273ffffffffffffffffffffffffffffffffffffffff1673ffffffffffffffffffffffffffffffffffffffff16815260200191505060405180910390f35b341561083d57600080fd5b6108456116b4565b604051808267ffffffffffffffff1667ffffffffffffffff16815260200191505060405180910390f35b341561087a57600080fd5b6108826116ce565b604051808215151515815260200191505060405180910390f35b34156108a757600080fd5b6108af6116de565b604051808267ffffffffffffffff1667ffffffffffffffff16815260200191505060405180910390f35b34156108e457600080fd5b6108ec6116f8565b005b34156108f957600080fd5b6109016118de565b6040518082600281111561091157fe5b60ff16815260200191505060405180910390f35b341561093057600080fd5b6109fd60048080359060200190820180359060200190808060200260200160405190810160405280939291908181526020018383602002808284378201915050505050509190803590602001908201803590602001908080602002602001604051908101604052809392919081815260200183836020028082843782019150505050505091908035906020019082018035906020019080806020026020016040519081016040528093929190818152602001838360200280828437820191505050505050919050506118f0565b005b3415610a0a57600080fd5b610a12611dcc565b604051808215151515815260200191505060405180910390f35b3415610a3757600080fd5b610a3f611dee565b604051808263ffffffff1663ffffffff16815260200191505060405180910390f35b3415610a6c57600080fd5b610a74611e04565b604051808273ffffffffffffffffffffffffffffffffffffffff1673ffffffffffffffffffffffffffffffffffffffff16815260200191505060405180910390f35b3415610ac157600080fd5b610ac9611e2a565b6040518082815260200191505060405180910390f35b3415610aea57600080fd5b610af2611e4d565b604051808261ffff1661ffff16815260200191505060405180910390f35b6000806000610b1d611e52565b80925081935050508082600460189054906101000a900463ffffffff16030363ffffffff169250505090565b6000610b53611dcc565b1515610b625760009050610b96565b6004601c9054906101000a900463ffffffff1663ffffffff16600560009054906101000a900467ffffffffffffffff160190505b90565b6000610ba3611dcc565b8015610bd15750610bb2610b49565b67ffffffffffffffff16610bc4611f6e565b67ffffffffffffffff1610155b905090565b600080600160009054906101000a900473ffffffffffffffffffffffffffffffffffffffff168073ffffffffffffffffffffffffffffffffffffffff163373ffffffffffffffffffffffffffffffffffffffff16141515610c3657600080fd5b6000806002811115610c4457fe5b6000809054906101000a900460ff166002811115610c5e57fe5b141515610c6a57600080fd5b610c7261128e565b9350610c7c611375565b9250828410151515610c8d57600080fd5b60016000806101000a81548160ff02191690836002811115610cab57fe5b0217905550610cb8611f6e565b600560006101000a81548167ffffffffffffffff021916908367ffffffffffffffff1602179055507fed1cd0670ee0c0017f550451a038818c696d0b6a9d6ce5b369e44275573cf9b060405160405180910390a150505050565b600460169054906101000a900461ffff1681565b600460149054906101000a900461ffff1681565b600160009054906101000a900473ffffffffffffffffffffffffffffffffffffffff1681565b6000806000806000806000806000806000809054906101000a900460ff169950600460189054906101000a900463ffffffff1663ffffffff1698506006549750610da861128e565b9650610db2611e2a565b9550610dbc610b10565b9450610dc6611375565b9350610dd06116ce565b9250610dda610b99565b9150610de4610b49565b67ffffffffffffffff16905090919293949596979899565b600460189054906101000a900463ffffffff1681565b60065481565b600881815481101515610e2757fe5b90600052602060002090016000915054906101000a900473ffffffffffffffffffffffffffffffffffffffff1681565b610e5f6123d8565b610e676123ec565b610e6f6123ec565b610e776123ec565b6000610e816123ec565b610e896123ec565b610e916123ec565b6000806000600880549050965086604051805910610eac5750595b9080825280602002602001820160405250955086604051805910610ecd5750595b9080825280602002602001820160405250945086604051805910610eee5750595b90808252806020026020018201604052509350600092505b8683101561103e57600883815481101515610f1d57fe5b906000526020600020900160009054906101000a900473ffffffffffffffffffffffffffffffffffffffff169150600760008373ffffffffffffffffffffffffffffffffffffffff1673ffffffffffffffffffffffffffffffffffffffff16815260200190815260200160002090508060000160019054906101000a900463ffffffff1663ffffffff168684815181101515610fb557fe5b90602001906020020181815250508060000160059054906101000a900463ffffffff1663ffffffff168584815181101515610fec57fe5b90602001906020020181815250508060000160099054906101000a900463ffffffff1663ffffffff16848481518110151561102357fe5b90602001906020020181815250508280600101935050610f06565b6008868686838054806020026020016040519081016040528092919081815260200182805480156110c457602002820191906000526020600020905b8160009054906101000a900473ffffffffffffffffffffffffffffffffffffffff1673ffffffffffffffffffffffffffffffffffffffff168152602001906001019080831161107a575b505050505093509a509a509a509a505050505050505090919293565b600360009054906101000a900473ffffffffffffffffffffffffffffffffffffffff1681565b600160009054906101000a900473ffffffffffffffffffffffffffffffffffffffff168073ffffffffffffffffffffffffffffffffffffffff163373ffffffffffffffffffffffffffffffffffffffff1614151561116357600080fd5b600180600281111561117157fe5b6000809054906101000a900460ff16600281111561118b57fe5b14151561119757600080fd5b61119f6116ce565b15156111aa57600080fd5b6111b2611f8c565b5050565b600260009054906101000a900473ffffffffffffffffffffffffffffffffffffffff1681565b80600960008282829054906101000a900467ffffffffffffffff160192506101000a81548167ffffffffffffffff021916908367ffffffffffffffff16021790555050565b60076020528060005260406000206000915090508060000160009054906101000a900460ff16908060000160019054906101000a900463ffffffff16908060000160059054906101000a900463ffffffff16908060000160099054906101000a900463ffffffff16905084565b6000600260009054906101000a900473ffffffffffffffffffffffffffffffffffffffff1673ffffffffffffffffffffffffffffffffffffffff166370a08231306000604051602001526040518263ffffffff167c0100000000000000000000000000000000000000000000000000000000028152600401808273ffffffffffffffffffffffffffffffffffffffff1673ffffffffffffffffffffffffffffffffffffffff168152602001915050602060405180830381600087803b151561135557600080fd5b6102c65a03f1151561136657600080fd5b50505060405180519050905090565b60006113a4600460189054906101000a900463ffffffff1663ffffffff16600654611fe590919063ffffffff16565b905090565b600080600080600080600060019054906101000a900473ffffffffffffffffffffffffffffffffffffffff168073ffffffffffffffffffffffffffffffffffffffff163373ffffffffffffffffffffffffffffffffffffffff1614151561140f57600080fd5b600180600281111561141d57fe5b6000809054906101000a900460ff16600281111561143757fe5b14151561144357600080fd5b88518a5114151561145357600080fd5b600097505b89518810156115db57898881518110151561146f57fe5b906020019060200201519650600760008873ffffffffffffffffffffffffffffffffffffffff1673ffffffffffffffffffffffffffffffffffffffff16815260200190815260200160002095508560000160009054906101000a900460ff1615156115555760018660000160006101000a81548160ff021916908315150217905550600880548060010182816115059190612400565b9160005260206000209001600089909190916101000a81548173ffffffffffffffffffffffffffffffffffffffff021916908373ffffffffffffffffffffffffffffffffffffffff160217905550505b888881518110151561156357fe5b9060200190602002015194508560000160019054906101000a900463ffffffff1663ffffffff16851015151561159857600080fd5b640100000000851015156115ab57600080fd5b848660000160016101000a81548163ffffffff021916908363ffffffff1602179055508780600101985050611458565b6115e3611e52565b8163ffffffff1691508063ffffffff1690508094508195505050600460189054906101000a900463ffffffff1663ffffffff168385011115151561162657600080fd5b61162e611f6e565b600560006101000a81548167ffffffffffffffff021916908367ffffffffffffffff1602179055507fa2a39cf902dc415af242340d20e57d1afb51e76030e02c5f0053b569b1ee857860405160405180910390a150505050505050505050565b600060019054906101000a900473ffffffffffffffffffffffffffffffffffffffff1681565b600560009054906101000a900467ffffffffffffffff1681565b60006116d8611dcc565b15905090565b600960009054906101000a900467ffffffffffffffff1681565b6000806000806000600180600281111561170e57fe5b6000809054906101000a900460ff16600281111561172857fe5b14151561173457600080fd5b61173c610b99565b151561174757600080fd5b600095505b6008805490508610156118ce5760088681548110151561176857fe5b906000526020600020900160009054906101000a900473ffffffffffffffffffffffffffffffffffffffff169450600760008673ffffffffffffffffffffffffffffffffffffffff1673ffffffffffffffffffffffffffffffffffffffff16815260200190815260200160002093508360000160099054906101000a900463ffffffff168460000160059054906101000a900463ffffffff168560000160019054906101000a900463ffffffff160303925060008363ffffffff1611156118c157828460000160058282829054906101000a900463ffffffff160192506101000a81548163ffffffff021916908363ffffffff16021790555061187c8363ffffffff16600654611fe590919063ffffffff16565b91506118c082600460149054906101000a900461ffff1661ffff16600360009054906101000a900473ffffffffffffffffffffffffffffffffffffffff1688612018565b5b858060010196505061174c565b6118d6611f8c565b505050505050565b6000809054906101000a900460ff1681565b600080600080600080600080600080600160009054906101000a900473ffffffffffffffffffffffffffffffffffffffff168073ffffffffffffffffffffffffffffffffffffffff163373ffffffffffffffffffffffffffffffffffffffff1614151561195c57600080fd5b600180600281111561196a57fe5b6000809054906101000a900460ff16600281111561198457fe5b14151561199057600080fd5b8d518f511415156119a057600080fd5b8c518f511415156119b057600080fd5b60009b505b8e518c1015611d5f578e8c8151811015156119cc57fe5b906020019060200201519a50600760008c73ffffffffffffffffffffffffffffffffffffffff1673ffffffffffffffffffffffffffffffffffffffff16815260200190815260200160002099508960000160009054906101000a900460ff161515611a3657600080fd5b8d8c815181101515611a4457fe5b9060200190602002015198508c8c815181101515611a5e57fe5b9060200190602002015197508960000160059054906101000a900463ffffffff1663ffffffff168910151515611a9357600080fd5b8960000160099054906101000a900463ffffffff1663ffffffff168810151515611abc57600080fd5b611acf888a61225b90919063ffffffff16565b96508960000160019054906101000a900463ffffffff1663ffffffff1687141515611af957600080fd5b8960000160059054906101000a900463ffffffff1663ffffffff16890395508960000160099054906101000a900463ffffffff1663ffffffff1688039450600086141515611b9b57611b5686600654611fe590919063ffffffff16565b9350611b9a84600460149054906101000a900461ffff1661ffff16600360009054906101000a900473ffffffffffffffffffffffffffffffffffffffff168e612018565b5b600085141515611d0c57611bf46103e8611be6600460169054906101000a900461ffff1661ffff16611bd889600654611fe590919063ffffffff16565b611fe590919063ffffffff16565b61227990919063ffffffff16565b9250600260009054906101000a900473ffffffffffffffffffffffffffffffffffffffff1673ffffffffffffffffffffffffffffffffffffffff1663a9059cbb600460009054906101000a900473ffffffffffffffffffffffffffffffffffffffff16856000604051602001526040518363ffffffff167c0100000000000000000000000000000000000000000000000000000000028152600401808373ffffffffffffffffffffffffffffffffffffffff1673ffffffffffffffffffffffffffffffffffffffff16815260200182815260200192505050602060405180830381600087803b1515611ce557600080fd5b6102c65a03f11515611cf657600080fd5b505050604051805190501515611d0b57600080fd5b5b888a60000160056101000a81548163ffffffff021916908363ffffffff160217905550878a60000160096101000a81548163ffffffff021916908363ffffffff1602179055508b806001019c50506119b5565b611d67611f6e565b600560006101000a81548167ffffffffffffffff021916908367ffffffffffffffff1602179055507fa2a39cf902dc415af242340d20e57d1afb51e76030e02c5f0053b569b1ee857860405160405180910390a1505050505050505050505050505050565b600080611dd7611e52565b90508091505060008163ffffffff16141591505090565b6004601c9054906101000a900463ffffffff1681565b600460009054906101000a900473ffffffffffffffffffffffffffffffffffffffff1681565b6000611e48600654611e3a61128e565b61227990919063ffffffff16565b905090565b600181565b600080600080600080600080945060009350600092505b600880549050831015611f5f5760076000600885815481101515611e8957fe5b906000526020600020900160009054906101000a900473ffffffffffffffffffffffffffffffffffffffff1673ffffffffffffffffffffffffffffffffffffffff1673ffffffffffffffffffffffffffffffffffffffff16815260200190815260200160002091508160000160099054906101000a900463ffffffff168260000160059054906101000a900463ffffffff168360000160019054906101000a900463ffffffff16030390508160000160059054906101000a900463ffffffff168501945080840193508280600101935050611e69565b84849650965050505050509091565b6000600960009054906101000a900467ffffffffffffffff16905090565b60026000806101000a81548160ff02191690836002811115611faa57fe5b0217905550611fb7612294565b7f6823b073d48d6e3a7d385eeb601452d680e74bb46afe3255a7d778f3a9b1768160405160405180910390a1565b60008082840290506000841480612006575082848281151561200357fe5b04145b151561200e57fe5b8091505092915050565b6000806120426103e86120348789611fe590919063ffffffff16565b61227990919063ffffffff16565b915061205782876123bf90919063ffffffff16565b9050600082111561215657600260009054906101000a900473ffffffffffffffffffffffffffffffffffffffff1673ffffffffffffffffffffffffffffffffffffffff1663a9059cbb85846000604051602001526040518363ffffffff167c0100000000000000000000000000000000000000000000000000000000028152600401808373ffffffffffffffffffffffffffffffffffffffff1673ffffffffffffffffffffffffffffffffffffffff16815260200182815260200192505050602060405180830381600087803b151561212f57600080fd5b6102c65a03f1151561214057600080fd5b50505060405180519050151561215557600080fd5b5b600081111561225357600260009054906101000a900473ffffffffffffffffffffffffffffffffffffffff1673ffffffffffffffffffffffffffffffffffffffff1663a9059cbb84836000604051602001526040518363ffffffff167c0100000000000000000000000000000000000000000000000000000000028152600401808373ffffffffffffffffffffffffffffffffffffffff1673ffffffffffffffffffffffffffffffffffffffff16815260200182815260200192505050602060405180830381600087803b151561222c57600080fd5b6102c65a03f1151561223d57600080fd5b50505060405180519050151561225257600080fd5b5b505050505050565b600080828401905083811015151561226f57fe5b8091505092915050565b600080828481151561228757fe5b0490508091505092915050565b600061229e61128e565b905060008111156123bc57600260009054906101000a900473ffffffffffffffffffffffffffffffffffffffff1673ffffffffffffffffffffffffffffffffffffffff1663a9059cbb600160009054906101000a900473ffffffffffffffffffffffffffffffffffffffff16836000604051602001526040518363ffffffff167c0100000000000000000000000000000000000000000000000000000000028152600401808373ffffffffffffffffffffffffffffffffffffffff1673ffffffffffffffffffffffffffffffffffffffff16815260200182815260200192505050602060405180830381600087803b151561239857600080fd5b6102c65a03f115156123a957600080fd5b5050506040518051905015156123bb57fe5b5b50565b60008282111515156123cd57fe5b818303905092915050565b602060405190810160405280600081525090565b602060405190810160405280600081525090565b81548183558181151161242757818360005260206000209182019101612426919061242c565b5b505050565b61244e91905b8082111561244a576000816000905550600101612432565b5090565b905600a165627a7a72305820cf9ca9bd7e47b98968ad6591a0911093a2e8a979b1114c28a54a38fc4b9e6b580029",
  "source": "pragma solidity ^0.4.17;\n\nimport \"./GGProject.sol\";\n\ncontract GGProjectDebug is GGProject {\n\n  function GGProjectDebug(\n    address _tokenContractAddress,\n    address _clientAddress,\n    address _approvalCommissionBenificiaryAddress,\n    address _disapprovalCommissionBeneficiaryAddress,\n    uint256 _approvalCommissionFractionThousands,\n    uint256 _disapprovalCommissionFractionThousands,\n    uint256 _totalWorkItems,\n    uint256 _workItemPrice,\n    uint256 _autoApprovalTimeoutSec\n  ) GGProject(\n    _tokenContractAddress,\n    _clientAddress,\n    _approvalCommissionBenificiaryAddress,\n    _disapprovalCommissionBeneficiaryAddress,\n    _approvalCommissionFractionThousands,\n    _disapprovalCommissionFractionThousands,\n    _totalWorkItems,\n    _workItemPrice,\n    _autoApprovalTimeoutSec\n  ) public {}\n\n  uint64 public debugTimestamp = 42;\n\n  function increaseTimeBy(uint64 sec) external {\n    debugTimestamp += sec;\n  }\n\n  function getTimestamp() internal view returns (uint64) {\n    return debugTimestamp;\n  }\n}\n",
  "sourcePath": "/Users/sam/dev/projects/gg/smart-contracts/truffle/contracts/GGProjectDebug.sol",
  "compiler": {
    "name": "solc",
    "version": "0.4.19+commit.c4cbbb05.Emscripten.clang"
  },
  "schemaVersion": "2.0.0",
  "updatedAt": "2018-03-21T21:21:56.454Z"
}