{
  "contractName": "GGProject",
  "abi": [
    {
      "constant": true,
      "inputs": [],
      "name": "disapprovalCommissionFractionThousands",
      "outputs": [
        {
          "name": "",
          "type": "uint16"
        }
      ],
      "payable": false,
      "stateMutability": "view",
      "type": "function"
    },
    {
      "constant": true,
      "inputs": [],
      "name": "approvalCommissionFractionThousands",
      "outputs": [
        {
          "name": "",
          "type": "uint16"
        }
      ],
      "payable": false,
      "stateMutability": "view",
      "type": "function"
    },
    {
      "constant": true,
      "inputs": [],
      "name": "client",
      "outputs": [
        {
          "name": "",
          "type": "address"
        }
      ],
      "payable": false,
      "stateMutability": "view",
      "type": "function"
    },
    {
      "constant": true,
      "inputs": [],
      "name": "totalWorkItems",
      "outputs": [
        {
          "name": "",
          "type": "uint32"
        }
      ],
      "payable": false,
      "stateMutability": "view",
      "type": "function"
    },
    {
      "constant": true,
      "inputs": [],
      "name": "workItemPrice",
      "outputs": [
        {
          "name": "",
          "type": "uint256"
        }
      ],
      "payable": false,
      "stateMutability": "view",
      "type": "function"
    },
    {
      "constant": true,
      "inputs": [
        {
          "name": "",
          "type": "uint256"
        }
      ],
      "name": "contractors",
      "outputs": [
        {
          "name": "",
          "type": "address"
        }
      ],
      "payable": false,
      "stateMutability": "view",
      "type": "function"
    },
    {
      "constant": true,
      "inputs": [],
      "name": "approvalCommissionBenificiary",
      "outputs": [
        {
          "name": "",
          "type": "address"
        }
      ],
      "payable": false,
      "stateMutability": "view",
      "type": "function"
    },
    {
      "constant": true,
      "inputs": [],
      "name": "tokenContract",
      "outputs": [
        {
          "name": "",
          "type": "address"
        }
      ],
      "payable": false,
      "stateMutability": "view",
      "type": "function"
    },
    {
      "constant": true,
      "inputs": [
        {
          "name": "",
          "type": "address"
        }
      ],
      "name": "performanceByContractor",
      "outputs": [
        {
          "name": "isSet",
          "type": "bool"
        },
        {
          "name": "totalItems",
          "type": "uint32"
        },
        {
          "name": "approvedItems",
          "type": "uint32"
        },
        {
          "name": "declinedItems",
          "type": "uint32"
        }
      ],
      "payable": false,
      "stateMutability": "view",
      "type": "function"
    },
    {
      "constant": true,
      "inputs": [],
      "name": "owner",
      "outputs": [
        {
          "name": "",
          "type": "address"
        }
      ],
      "payable": false,
      "stateMutability": "view",
      "type": "function"
    },
    {
      "constant": true,
      "inputs": [],
      "name": "state",
      "outputs": [
        {
          "name": "",
          "type": "uint8"
        }
      ],
      "payable": false,
      "stateMutability": "view",
      "type": "function"
    },
    {
      "constant": true,
      "inputs": [],
      "name": "autoApprovalTimeoutSec",
      "outputs": [
        {
          "name": "",
          "type": "uint32"
        }
      ],
      "payable": false,
      "stateMutability": "view",
      "type": "function"
    },
    {
      "constant": true,
      "inputs": [],
      "name": "disapprovalCommissionBeneficiary",
      "outputs": [
        {
          "name": "",
          "type": "address"
        }
      ],
      "payable": false,
      "stateMutability": "view",
      "type": "function"
    },
    {
      "constant": true,
      "inputs": [],
      "name": "VERSION",
      "outputs": [
        {
          "name": "",
          "type": "uint16"
        }
      ],
      "payable": false,
      "stateMutability": "view",
      "type": "function"
    },
    {
      "inputs": [
        {
          "name": "_tokenContractAddress",
          "type": "address"
        },
        {
          "name": "_clientAddress",
          "type": "address"
        },
        {
          "name": "_approvalCommissionBenificiaryAddress",
          "type": "address"
        },
        {
          "name": "_disapprovalCommissionBeneficiaryAddress",
          "type": "address"
        },
        {
          "name": "_approvalCommissionFractionThousands",
          "type": "uint256"
        },
        {
          "name": "_disapprovalCommissionFractionThousands",
          "type": "uint256"
        },
        {
          "name": "_totalWorkItems",
          "type": "uint256"
        },
        {
          "name": "_workItemPrice",
          "type": "uint256"
        },
        {
          "name": "_autoApprovalTimeoutSec",
          "type": "uint256"
        }
      ],
      "payable": false,
      "stateMutability": "nonpayable",
      "type": "constructor"
    },
    {
      "constant": false,
      "inputs": [],
      "name": "activate",
      "outputs": [],
      "payable": false,
      "stateMutability": "nonpayable",
      "type": "function"
    },
    {
      "constant": true,
      "inputs": [],
      "name": "describe",
      "outputs": [
        {
          "name": "_state",
          "type": "uint8"
        },
        {
          "name": "_totalWorkItems",
          "type": "uint256"
        },
        {
          "name": "_workItemPrice",
          "type": "uint256"
        },
        {
          "name": "_tokenBalance",
          "type": "uint256"
        },
        {
          "name": "_workItemsBalance",
          "type": "uint256"
        },
        {
          "name": "_workItemsLeft",
          "type": "uint256"
        },
        {
          "name": "_requiredInitialTokenBalance",
          "type": "uint256"
        },
        {
          "name": "_canForceFinalize",
          "type": "bool"
        }
      ],
      "payable": false,
      "stateMutability": "view",
      "type": "function"
    },
    {
      "constant": true,
      "inputs": [],
      "name": "getRequiredInitialTokenBalance",
      "outputs": [
        {
          "name": "",
          "type": "uint256"
        }
      ],
      "payable": false,
      "stateMutability": "view",
      "type": "function"
    },
    {
      "constant": true,
      "inputs": [],
      "name": "getTokenBalance",
      "outputs": [
        {
          "name": "",
          "type": "uint256"
        }
      ],
      "payable": false,
      "stateMutability": "view",
      "type": "function"
    },
    {
      "constant": true,
      "inputs": [],
      "name": "getWorkItemsBalance",
      "outputs": [
        {
          "name": "",
          "type": "uint256"
        }
      ],
      "payable": false,
      "stateMutability": "view",
      "type": "function"
    },
    {
      "constant": true,
      "inputs": [],
      "name": "getWorkItemsLeft",
      "outputs": [
        {
          "name": "",
          "type": "uint256"
        }
      ],
      "payable": false,
      "stateMutability": "view",
      "type": "function"
    },
    {
      "constant": true,
      "inputs": [],
      "name": "getCanForceFinalize",
      "outputs": [
        {
          "name": "",
          "type": "bool"
        }
      ],
      "payable": false,
      "stateMutability": "view",
      "type": "function"
    },
    {
      "constant": true,
      "inputs": [],
      "name": "getPerformance",
      "outputs": [
        {
          "name": "",
          "type": "address[]"
        },
        {
          "name": "",
          "type": "uint256[]"
        },
        {
          "name": "",
          "type": "uint256[]"
        },
        {
          "name": "",
          "type": "uint256[]"
        }
      ],
      "payable": false,
      "stateMutability": "view",
      "type": "function"
    },
    {
      "constant": false,
      "inputs": [
        {
          "name": "contractorAddrs",
          "type": "address[]"
        },
        {
          "name": "totalItems",
          "type": "uint256[]"
        }
      ],
      "name": "updateTotals",
      "outputs": [],
      "payable": false,
      "stateMutability": "nonpayable",
      "type": "function"
    },
    {
      "constant": false,
      "inputs": [
        {
          "name": "contractorAddrs",
          "type": "address[]"
        },
        {
          "name": "approvedItems",
          "type": "uint256[]"
        },
        {
          "name": "declinedItems",
          "type": "uint256[]"
        }
      ],
      "name": "updatePerformance",
      "outputs": [],
      "payable": false,
      "stateMutability": "nonpayable",
      "type": "function"
    },
    {
      "constant": false,
      "inputs": [],
      "name": "finalize",
      "outputs": [],
      "payable": false,
      "stateMutability": "nonpayable",
      "type": "function"
    },
    {
      "constant": false,
      "inputs": [],
      "name": "forceFinalize",
      "outputs": [],
      "payable": false,
      "stateMutability": "nonpayable",
      "type": "function"
    }
  ],
  "bytecode": "0x606060405260008060006101000a81548160ff021916908360028111156200002357fe5b021790555033600060016101000a81548173ffffffffffffffffffffffffffffffffffffffff021916908373ffffffffffffffffffffffffffffffffffffffff16021790555034156200007557600080fd5b6040516101208062001b448339810160405280805190602001909190805190602001909190805190602001909190805190602001909190805190602001909190805190602001909190805190602001909190805190602001909190805190602001909190505060008973ffffffffffffffffffffffffffffffffffffffff16141515156200010257600080fd5b60008873ffffffffffffffffffffffffffffffffffffffff16141515156200012957600080fd5b60008773ffffffffffffffffffffffffffffffffffffffff16141515156200015057600080fd5b60008673ffffffffffffffffffffffffffffffffffffffff16141515156200017757600080fd5b6103e885111515156200018957600080fd5b6103e884111515156200019b57600080fd5b64010000000083101515620001af57600080fd5b64010000000081101515620001c357600080fd5b87600160006101000a81548173ffffffffffffffffffffffffffffffffffffffff021916908373ffffffffffffffffffffffffffffffffffffffff16021790555088600260006101000a81548173ffffffffffffffffffffffffffffffffffffffff021916908373ffffffffffffffffffffffffffffffffffffffff16021790555086600360006101000a81548173ffffffffffffffffffffffffffffffffffffffff021916908373ffffffffffffffffffffffffffffffffffffffff16021790555085600460006101000a81548173ffffffffffffffffffffffffffffffffffffffff021916908373ffffffffffffffffffffffffffffffffffffffff16021790555084600460146101000a81548161ffff021916908361ffff16021790555083600460166101000a81548161ffff021916908361ffff16021790555082600460186101000a81548163ffffffff021916908363ffffffff16021790555081600581905550806004601c6101000a81548163ffffffff021916908363ffffffff1602179055505050505050505050506117e180620003636000396000f300606060405260043610610154576000357c0100000000000000000000000000000000000000000000000000000000900463ffffffff16806304621ce8146101595780630d34ca77146101825780630f15f4c0146101af5780630f15f59f146101c45780631001ffaf146101f5578063109e94cf146102265780631ad184ff1461027b57806329d04065146102e75780632eafe0091461031c5780633481a95a1461034557806342de4e9c146103a857806346439f47146104ea5780634bb278f31461053f57806355a373d614610554578063663fd2ac146105a957806382b2e2571461063357806383d6a1d91461065c578063877a96b0146106855780638da5cb5b1461071f578063bee22cea14610774578063c19d93fb14610789578063c34763a0146107c0578063d328c4301461089a578063ea9b9413146108cf578063f53e2c2414610924578063ffa1ad741461094d575b600080fd5b341561016457600080fd5b61016c61097e565b6040518082815260200191505060405180910390f35b341561018d57600080fd5b610195610986565b604051808215151515815260200191505060405180910390f35b34156101ba57600080fd5b6101c261098e565b005b34156101cf57600080fd5b6101d7610a6e565b604051808261ffff1661ffff16815260200191505060405180910390f35b341561020057600080fd5b610208610a82565b604051808261ffff1661ffff16815260200191505060405180910390f35b341561023157600080fd5b610239610a96565b604051808273ffffffffffffffffffffffffffffffffffffffff1673ffffffffffffffffffffffffffffffffffffffff16815260200191505060405180910390f35b341561028657600080fd5b61028e610abc565b6040518089600281111561029e57fe5b60ff168152602001888152602001878152602001868152602001858152602001848152602001838152602001821515151581526020019850505050505050505060405180910390f35b34156102f257600080fd5b6102fa610b35565b604051808263ffffffff1663ffffffff16815260200191505060405180910390f35b341561032757600080fd5b61032f610b4b565b6040518082815260200191505060405180910390f35b341561035057600080fd5b6103666004808035906020019091905050610b51565b604051808273ffffffffffffffffffffffffffffffffffffffff1673ffffffffffffffffffffffffffffffffffffffff16815260200191505060405180910390f35b34156103b357600080fd5b6103bb610b90565b6040518080602001806020018060200180602001858103855289818151815260200191508051906020019060200280838360005b8381101561040a5780820151818401526020810190506103ef565b50505050905001858103845288818151815260200191508051906020019060200280838360005b8381101561044c578082015181840152602081019050610431565b50505050905001858103835287818151815260200191508051906020019060200280838360005b8381101561048e578082015181840152602081019050610473565b50505050905001858103825286818151815260200191508051906020019060200280838360005b838110156104d05780820151818401526020810190506104b5565b505050509050019850505050505050505060405180910390f35b34156104f557600080fd5b6104fd610e19565b604051808273ffffffffffffffffffffffffffffffffffffffff1673ffffffffffffffffffffffffffffffffffffffff16815260200191505060405180910390f35b341561054a57600080fd5b610552610e3f565b005b341561055f57600080fd5b610567610ef7565b604051808273ffffffffffffffffffffffffffffffffffffffff1673ffffffffffffffffffffffffffffffffffffffff16815260200191505060405180910390f35b34156105b457600080fd5b6105e0600480803573ffffffffffffffffffffffffffffffffffffffff16906020019091905050610f1d565b60405180851515151581526020018463ffffffff1663ffffffff1681526020018363ffffffff1663ffffffff1681526020018263ffffffff1663ffffffff16815260200194505050505060405180910390f35b341561063e57600080fd5b610646610f8a565b6040518082815260200191505060405180910390f35b341561066757600080fd5b61066f611071565b6040518082815260200191505060405180910390f35b341561069057600080fd5b61071d600480803590602001908201803590602001908080602002602001604051908101604052809392919081815260200183836020028082843782019150505050505091908035906020019082018035906020019080806020026020016040519081016040528093929190818152602001838360200280828437820191505050505050919050506110a5565b005b341561072a57600080fd5b6107326113d1565b604051808273ffffffffffffffffffffffffffffffffffffffff1673ffffffffffffffffffffffffffffffffffffffff16815260200191505060405180910390f35b341561077f57600080fd5b6107876113f7565b005b341561079457600080fd5b61079c611451565b604051808260028111156107ac57fe5b60ff16815260200191505060405180910390f35b34156107cb57600080fd5b6108986004808035906020019082018035906020019080806020026020016040519081016040528093929190818152602001838360200280828437820191505050505050919080359060200190820180359060200190808060200260200160405190810160405280939291908181526020018383602002808284378201915050505050509190803590602001908201803590602001908080602002602001604051908101604052809392919081815260200183836020028082843782019150505050505091905050611463565b005b34156108a557600080fd5b6108ad6116a2565b604051808263ffffffff1663ffffffff16815260200191505060405180910390f35b34156108da57600080fd5b6108e26116b8565b604051808273ffffffffffffffffffffffffffffffffffffffff1673ffffffffffffffffffffffffffffffffffffffff16815260200191505060405180910390f35b341561092f57600080fd5b6109376116de565b6040518082815260200191505060405180910390f35b341561095857600080fd5b6109606116e6565b604051808261ffff1661ffff16815260200191505060405180910390f35b600080905090565b600080905090565b600080600160009054906101000a900473ffffffffffffffffffffffffffffffffffffffff168073ffffffffffffffffffffffffffffffffffffffff163373ffffffffffffffffffffffffffffffffffffffff161415156109ee57600080fd5b60008060028111156109fc57fe5b6000809054906101000a900460ff166002811115610a1657fe5b141515610a2257600080fd5b610a2a610f8a565b9350610a34611071565b9250828410151515610a4557600080fd5b60016000806101000a81548160ff02191690836002811115610a6357fe5b021790555050505050565b600460169054906101000a900461ffff1681565b600460149054906101000a900461ffff1681565b600160009054906101000a900473ffffffffffffffffffffffffffffffffffffffff1681565b6000806000806000806000806000809054906101000a900460ff169750600460189054906101000a900463ffffffff1663ffffffff1696506005549550610b01610f8a565b9450610b0b6116de565b9350610b1561097e565b9250610b1f611071565b9150610b29610986565b90509091929394959697565b600460189054906101000a900463ffffffff1681565b60055481565b600781815481101515610b6057fe5b90600052602060002090016000915054906101000a900473ffffffffffffffffffffffffffffffffffffffff1681565b610b9861173c565b610ba0611750565b610ba8611750565b610bb0611750565b6000610bba611750565b610bc2611750565b610bca611750565b6000806000600780549050965086604051805910610be55750595b9080825280602002602001820160405250955086604051805910610c065750595b9080825280602002602001820160405250945086604051805910610c275750595b90808252806020026020018201604052509350600092505b86831015610d7757600783815481101515610c5657fe5b906000526020600020900160009054906101000a900473ffffffffffffffffffffffffffffffffffffffff169150600660008373ffffffffffffffffffffffffffffffffffffffff1673ffffffffffffffffffffffffffffffffffffffff16815260200190815260200160002090508060000160019054906101000a900463ffffffff1663ffffffff168684815181101515610cee57fe5b90602001906020020181815250508060000160059054906101000a900463ffffffff1663ffffffff168584815181101515610d2557fe5b90602001906020020181815250508060000160099054906101000a900463ffffffff1663ffffffff168484815181101515610d5c57fe5b90602001906020020181815250508280600101935050610c3f565b600786868683805480602002602001604051908101604052809291908181526020018280548015610dfd57602002820191906000526020600020905b8160009054906101000a900473ffffffffffffffffffffffffffffffffffffffff1673ffffffffffffffffffffffffffffffffffffffff1681526020019060010190808311610db3575b505050505093509a509a509a509a505050505050505090919293565b600360009054906101000a900473ffffffffffffffffffffffffffffffffffffffff1681565b600160009054906101000a900473ffffffffffffffffffffffffffffffffffffffff168073ffffffffffffffffffffffffffffffffffffffff163373ffffffffffffffffffffffffffffffffffffffff16141515610e9c57600080fd5b6001806002811115610eaa57fe5b6000809054906101000a900460ff166002811115610ec457fe5b141515610ed057600080fd5b60026000806101000a81548160ff02191690836002811115610eee57fe5b02179055505050565b600260009054906101000a900473ffffffffffffffffffffffffffffffffffffffff1681565b60066020528060005260406000206000915090508060000160009054906101000a900460ff16908060000160019054906101000a900463ffffffff16908060000160059054906101000a900463ffffffff16908060000160099054906101000a900463ffffffff16905084565b6000600260009054906101000a900473ffffffffffffffffffffffffffffffffffffffff1673ffffffffffffffffffffffffffffffffffffffff166370a08231306000604051602001526040518263ffffffff167c0100000000000000000000000000000000000000000000000000000000028152600401808273ffffffffffffffffffffffffffffffffffffffff1673ffffffffffffffffffffffffffffffffffffffff168152602001915050602060405180830381600087803b151561105157600080fd5b6102c65a03f1151561106257600080fd5b50505060405180519050905090565b60006110a0600460189054906101000a900463ffffffff1663ffffffff166005546116eb90919063ffffffff16565b905090565b60008060008060008060019054906101000a900473ffffffffffffffffffffffffffffffffffffffff168073ffffffffffffffffffffffffffffffffffffffff163373ffffffffffffffffffffffffffffffffffffffff1614151561110957600080fd5b600180600281111561111757fe5b6000809054906101000a900460ff16600281111561113157fe5b14151561113d57600080fd5b8751895114151561114d57600080fd5b600096505b88518710156112d557888781518110151561116957fe5b906020019060200201519550600660008773ffffffffffffffffffffffffffffffffffffffff1673ffffffffffffffffffffffffffffffffffffffff16815260200190815260200160002094508460000160009054906101000a900460ff16151561124f5760018560000160006101000a81548160ff021916908315150217905550600780548060010182816111ff9190611764565b9160005260206000209001600088909190916101000a81548173ffffffffffffffffffffffffffffffffffffffff021916908373ffffffffffffffffffffffffffffffffffffffff160217905550505b878781518110151561125d57fe5b9060200190602002015193508460000160019054906101000a900463ffffffff1663ffffffff16841015151561129257600080fd5b640100000000841015156112a557600080fd5b838560000160016101000a81548163ffffffff021916908363ffffffff1602179055508680600101975050611152565b60009250600096505b60078054905087101561139f576113906006600060078a81548110151561130157fe5b906000526020600020900160009054906101000a900473ffffffffffffffffffffffffffffffffffffffff1673ffffffffffffffffffffffffffffffffffffffff1673ffffffffffffffffffffffffffffffffffffffff16815260200190815260200160002060000160019054906101000a900463ffffffff1663ffffffff168461171e90919063ffffffff16565b925086806001019750506112de565b600460189054906101000a900463ffffffff1663ffffffff1683111515156113c657600080fd5b505050505050505050565b600060019054906101000a900473ffffffffffffffffffffffffffffffffffffffff1681565b600180600281111561140557fe5b6000809054906101000a900460ff16600281111561141f57fe5b14151561142b57600080fd5b60026000806101000a81548160ff0219169083600281111561144957fe5b021790555050565b6000809054906101000a900460ff1681565b600080600080600080600160009054906101000a900473ffffffffffffffffffffffffffffffffffffffff168073ffffffffffffffffffffffffffffffffffffffff163373ffffffffffffffffffffffffffffffffffffffff161415156114c957600080fd5b60018060028111156114d757fe5b6000809054906101000a900460ff1660028111156114f157fe5b1415156114fd57600080fd5b89518b5114151561150d57600080fd5b88518b5114151561151d57600080fd5b600097505b8a51881015611695578a8881518110151561153957fe5b906020019060200201519650600660008873ffffffffffffffffffffffffffffffffffffffff1673ffffffffffffffffffffffffffffffffffffffff16815260200190815260200160002095508560000160009054906101000a900460ff1615156115a357600080fd5b89888151811015156115b157fe5b90602001906020020151945088888151811015156115cb57fe5b9060200190602002015193506115ea848661171e90919063ffffffff16565b92508560000160019054906101000a900463ffffffff1663ffffffff168314151561161457600080fd5b898881518110151561162257fe5b906020019060200201518660000160056101000a81548163ffffffff021916908363ffffffff160217905550888881518110151561165c57fe5b906020019060200201518660000160096101000a81548163ffffffff021916908363ffffffff1602179055508780600101985050611522565b5050505050505050505050565b6004601c9054906101000a900463ffffffff1681565b600460009054906101000a900473ffffffffffffffffffffffffffffffffffffffff1681565b600080905090565b600181565b6000808284029050600084148061170c575082848281151561170957fe5b04145b151561171457fe5b8091505092915050565b600080828401905083811015151561173257fe5b8091505092915050565b602060405190810160405280600081525090565b602060405190810160405280600081525090565b81548183558181151161178b5781836000526020600020918201910161178a9190611790565b5b505050565b6117b291905b808211156117ae576000816000905550600101611796565b5090565b905600a165627a7a723058208c326a5539f6bb4e23444f81994f02f50f81d1ee70a4e334df947e933793cbba0029",
  "source": "pragma solidity ^0.4.17;\n\nimport \"./ERC20.sol\";\nimport \"./SafeMath.sol\";\n\n\ncontract GGProject {\n  using SafeMath for uint256;\n\n  enum State {\n    New,\n    Active,\n    Finalized\n  }\n\n  uint16 public constant VERSION = 1;\n  State public state = State.New;\n\n  address public owner = msg.sender;\n  address public client;\n  ERC20 public tokenContract;\n  address public approvalCommissionBenificiary;\n  address public disapprovalCommissionBeneficiary;\n\n  uint16 public approvalCommissionFractionThousands;\n  uint16 public disapprovalCommissionFractionThousands;\n  uint32 public totalWorkItems;\n  uint32 public autoApprovalTimeoutSec;\n  uint256 public workItemPrice;\n\n  struct ContractorPerformance {\n    bool isSet;\n    uint32 totalItems;\n    uint32 approvedItems;\n    uint32 declinedItems;\n  }\n\n  mapping(address => ContractorPerformance) public performanceByContractor;\n  address[] public contractors;\n\n  modifier atState(State _state) {\n    require(state == _state);\n    _;\n  }\n\n  modifier allowOnly(address callerAddress) {\n    require(msg.sender == callerAddress);\n    _;\n  }\n\n  function GGProject(\n    address _tokenContractAddress,\n    address _clientAddress,\n    address _approvalCommissionBenificiaryAddress,\n    address _disapprovalCommissionBeneficiaryAddress,\n    uint256 _approvalCommissionFractionThousands,\n    uint256 _disapprovalCommissionFractionThousands,\n    uint256 _totalWorkItems,\n    uint256 _workItemPrice,\n    uint256 _autoApprovalTimeoutSec\n  ) public {\n    require(_tokenContractAddress != 0);\n    require(_clientAddress != 0);\n    require(_approvalCommissionBenificiaryAddress != 0);\n    require(_disapprovalCommissionBeneficiaryAddress != 0);\n\n    require(_approvalCommissionFractionThousands <= 1000);\n    require(_disapprovalCommissionFractionThousands <= 1000);\n\n    require(_totalWorkItems < 4294967296); // 2^32\n    require(_autoApprovalTimeoutSec < 4294967296); // 2^32\n\n    client = _clientAddress;\n    tokenContract = ERC20(_tokenContractAddress);\n    approvalCommissionBenificiary = _approvalCommissionBenificiaryAddress;\n    disapprovalCommissionBeneficiary = _disapprovalCommissionBeneficiaryAddress;\n\n    approvalCommissionFractionThousands = uint16(_approvalCommissionFractionThousands);\n    disapprovalCommissionFractionThousands = uint16(_disapprovalCommissionFractionThousands);\n\n    totalWorkItems = uint32(_totalWorkItems);\n    workItemPrice = _workItemPrice;\n    autoApprovalTimeoutSec = uint32(_autoApprovalTimeoutSec);\n  }\n\n  function activate() public allowOnly(client) atState(State.New) {\n    uint256 tokenBalance = getTokenBalance();\n    uint256 requiredInitialTokenBalance = getRequiredInitialTokenBalance();\n    require(tokenBalance >= requiredInitialTokenBalance);\n    state = State.Active;\n  }\n\n  function describe() external view returns (\n    State _state,\n    uint256 _totalWorkItems,\n    uint256 _workItemPrice,\n    uint256 _tokenBalance,\n    uint256 _workItemsBalance,\n    uint256 _workItemsLeft,\n    uint256 _requiredInitialTokenBalance,\n    bool _canForceFinalize\n  ) {\n    _state = state;\n    _totalWorkItems = totalWorkItems;\n    _workItemPrice = workItemPrice;\n    _tokenBalance = getTokenBalance();\n    _workItemsBalance = getWorkItemsBalance();\n    _workItemsLeft = getWorkItemsLeft();\n    _requiredInitialTokenBalance = getRequiredInitialTokenBalance();\n    _canForceFinalize = getCanForceFinalize();\n  }\n\n  function getRequiredInitialTokenBalance() public view returns (uint256) {\n    return workItemPrice.mul(totalWorkItems);\n  }\n\n  function getTokenBalance() public view returns (uint256) {\n    return tokenContract.balanceOf(address(this));\n  }\n\n  function getWorkItemsBalance() public view returns (uint256) {\n    // TODO\n    return 0;\n  }\n\n  function getWorkItemsLeft() public view returns (uint256) {\n    // TODO\n    return 0;\n  }\n\n  function getCanForceFinalize() public view returns (bool) {\n    // TODO\n    return false;\n  }\n\n  function getPerformance() external view returns (address[], uint256[], uint256[], uint256[]) {\n    uint256 totalContractors = contractors.length;\n\n    uint256[] memory totalItems = new uint256[](totalContractors);\n    uint256[] memory approvedItems = new uint256[](totalContractors);\n    uint256[] memory declinedItems = new uint256[](totalContractors);\n\n    for (uint256 i = 0; i < totalContractors; i++) {\n      address addr = contractors[i];\n      ContractorPerformance storage perf = performanceByContractor[addr];\n      totalItems[i] = perf.totalItems;\n      approvedItems[i] = perf.approvedItems;\n      declinedItems[i] = perf.declinedItems;\n    }\n\n    return (contractors, totalItems, approvedItems, declinedItems);\n  }\n\n  function updateTotals(address[] contractorAddrs, uint256[] totalItems) public\n    allowOnly(owner)\n    atState(State.Active)\n  {\n    require(contractorAddrs.length == totalItems.length);\n\n    uint256 i;\n\n    for (i = 0; i < contractorAddrs.length; i++) {\n      address addr = contractorAddrs[i];\n      ContractorPerformance storage perf = performanceByContractor[addr];\n\n      if (!perf.isSet) {\n        perf.isSet = true;\n        contractors.push(addr);\n      }\n\n      uint256 newTotalItems = totalItems[i];\n\n      require(newTotalItems >= perf.totalItems);\n      require(newTotalItems < 2 ** 32);\n\n      perf.totalItems = uint32(newTotalItems);\n    }\n\n    uint totalCompletedItems = 0;\n\n    for (i = 0; i < contractors.length; i++) {\n      totalCompletedItems = totalCompletedItems.add(\n        performanceByContractor[contractors[i]].totalItems\n      );\n    }\n\n    require(totalCompletedItems <= totalWorkItems);\n  }\n\n  function updatePerformance(\n    address[] contractorAddrs,\n    uint256[] approvedItems,\n    uint256[] declinedItems\n  ) public\n    allowOnly(client)\n    atState(State.Active)\n  {\n    require(contractorAddrs.length == approvedItems.length);\n    require(contractorAddrs.length == declinedItems.length);\n\n    for (uint256 i = 0; i < contractorAddrs.length; i++) {\n      address addr = contractorAddrs[i];\n      ContractorPerformance storage perf = performanceByContractor[addr];\n      require(perf.isSet);\n\n      uint256 newApprovedItems = approvedItems[i];\n      uint256 newDeclinedItems = declinedItems[i];\n\n      uint256 newTotalItems = newApprovedItems.add(newDeclinedItems);\n      require(newTotalItems == perf.totalItems);\n\n      // We know both these numbers fit into uint32 since their sum\n      // equals to perf.totalItems, which is itself uint32.\n      perf.approvedItems = uint32(approvedItems[i]);\n      perf.declinedItems = uint32(declinedItems[i]);\n    }\n  }\n\n  function finalize() public allowOnly(client) atState(State.Active) {\n    // TODO\n    state = State.Finalized;\n  }\n\n  function forceFinalize() public atState(State.Active) {\n    // TODO\n    state = State.Finalized;\n  }\n\n}\n",
  "sourcePath": "/Users/sam/dev/projects/gg/smart-contracts/truffle/contracts/GGProject.sol",
  "compiler": {
    "name": "solc",
    "version": "0.4.19+commit.c4cbbb05.Emscripten.clang"
  },
  "schemaVersion": "2.0.0",
  "updatedAt": "2018-03-17T18:18:50.399Z"
}