{
  "contractName": "GGProject",
  "abi": [
    {
      "constant": true,
      "inputs": [],
      "name": "disapprovalCommissionFractionThousands",
      "outputs": [
        {
          "name": "",
          "type": "uint16"
        }
      ],
      "payable": false,
      "stateMutability": "view",
      "type": "function"
    },
    {
      "constant": true,
      "inputs": [],
      "name": "approvalCommissionFractionThousands",
      "outputs": [
        {
          "name": "",
          "type": "uint16"
        }
      ],
      "payable": false,
      "stateMutability": "view",
      "type": "function"
    },
    {
      "constant": true,
      "inputs": [],
      "name": "client",
      "outputs": [
        {
          "name": "",
          "type": "address"
        }
      ],
      "payable": false,
      "stateMutability": "view",
      "type": "function"
    },
    {
      "constant": true,
      "inputs": [],
      "name": "totalWorkItems",
      "outputs": [
        {
          "name": "",
          "type": "uint32"
        }
      ],
      "payable": false,
      "stateMutability": "view",
      "type": "function"
    },
    {
      "constant": true,
      "inputs": [],
      "name": "workItemPrice",
      "outputs": [
        {
          "name": "",
          "type": "uint256"
        }
      ],
      "payable": false,
      "stateMutability": "view",
      "type": "function"
    },
    {
      "constant": true,
      "inputs": [
        {
          "name": "",
          "type": "uint256"
        }
      ],
      "name": "contractors",
      "outputs": [
        {
          "name": "",
          "type": "address"
        }
      ],
      "payable": false,
      "stateMutability": "view",
      "type": "function"
    },
    {
      "constant": true,
      "inputs": [],
      "name": "approvalCommissionBenificiary",
      "outputs": [
        {
          "name": "",
          "type": "address"
        }
      ],
      "payable": false,
      "stateMutability": "view",
      "type": "function"
    },
    {
      "constant": true,
      "inputs": [],
      "name": "tokenContract",
      "outputs": [
        {
          "name": "",
          "type": "address"
        }
      ],
      "payable": false,
      "stateMutability": "view",
      "type": "function"
    },
    {
      "constant": true,
      "inputs": [
        {
          "name": "",
          "type": "address"
        }
      ],
      "name": "performanceByContractor",
      "outputs": [
        {
          "name": "isSet",
          "type": "bool"
        },
        {
          "name": "totalItems",
          "type": "uint16"
        },
        {
          "name": "approvedItems",
          "type": "uint16"
        },
        {
          "name": "declinedItems",
          "type": "uint16"
        }
      ],
      "payable": false,
      "stateMutability": "view",
      "type": "function"
    },
    {
      "constant": true,
      "inputs": [],
      "name": "owner",
      "outputs": [
        {
          "name": "",
          "type": "address"
        }
      ],
      "payable": false,
      "stateMutability": "view",
      "type": "function"
    },
    {
      "constant": true,
      "inputs": [],
      "name": "state",
      "outputs": [
        {
          "name": "",
          "type": "uint8"
        }
      ],
      "payable": false,
      "stateMutability": "view",
      "type": "function"
    },
    {
      "constant": true,
      "inputs": [],
      "name": "autoApprovalTimeoutSec",
      "outputs": [
        {
          "name": "",
          "type": "uint32"
        }
      ],
      "payable": false,
      "stateMutability": "view",
      "type": "function"
    },
    {
      "constant": true,
      "inputs": [],
      "name": "disapprovalCommissionBeneficiary",
      "outputs": [
        {
          "name": "",
          "type": "address"
        }
      ],
      "payable": false,
      "stateMutability": "view",
      "type": "function"
    },
    {
      "constant": true,
      "inputs": [],
      "name": "VERSION",
      "outputs": [
        {
          "name": "",
          "type": "uint16"
        }
      ],
      "payable": false,
      "stateMutability": "view",
      "type": "function"
    },
    {
      "inputs": [
        {
          "name": "_tokenContractAddress",
          "type": "address"
        },
        {
          "name": "_clientAddress",
          "type": "address"
        },
        {
          "name": "_approvalCommissionBenificiaryAddress",
          "type": "address"
        },
        {
          "name": "_disapprovalCommissionBeneficiaryAddress",
          "type": "address"
        },
        {
          "name": "_approvalCommissionFractionThousands",
          "type": "uint256"
        },
        {
          "name": "_disapprovalCommissionFractionThousands",
          "type": "uint256"
        },
        {
          "name": "_totalWorkItems",
          "type": "uint256"
        },
        {
          "name": "_workItemPrice",
          "type": "uint256"
        },
        {
          "name": "_autoApprovalTimeoutSec",
          "type": "uint256"
        }
      ],
      "payable": false,
      "stateMutability": "nonpayable",
      "type": "constructor"
    },
    {
      "constant": false,
      "inputs": [],
      "name": "activate",
      "outputs": [],
      "payable": false,
      "stateMutability": "nonpayable",
      "type": "function"
    },
    {
      "constant": true,
      "inputs": [],
      "name": "getTokenBalance",
      "outputs": [
        {
          "name": "",
          "type": "uint256"
        }
      ],
      "payable": false,
      "stateMutability": "view",
      "type": "function"
    },
    {
      "constant": true,
      "inputs": [],
      "name": "getWorkItemsBalance",
      "outputs": [
        {
          "name": "",
          "type": "uint256"
        }
      ],
      "payable": false,
      "stateMutability": "view",
      "type": "function"
    },
    {
      "constant": true,
      "inputs": [],
      "name": "getWorkItemsLeft",
      "outputs": [
        {
          "name": "",
          "type": "uint256"
        }
      ],
      "payable": false,
      "stateMutability": "view",
      "type": "function"
    },
    {
      "constant": true,
      "inputs": [],
      "name": "getCanForceFinalize",
      "outputs": [
        {
          "name": "",
          "type": "bool"
        }
      ],
      "payable": false,
      "stateMutability": "view",
      "type": "function"
    },
    {
      "constant": true,
      "inputs": [],
      "name": "getPerformance",
      "outputs": [
        {
          "name": "",
          "type": "address[]"
        },
        {
          "name": "",
          "type": "uint256[]"
        },
        {
          "name": "",
          "type": "uint256[]"
        },
        {
          "name": "",
          "type": "uint256[]"
        }
      ],
      "payable": false,
      "stateMutability": "view",
      "type": "function"
    },
    {
      "constant": false,
      "inputs": [
        {
          "name": "contractorAddrs",
          "type": "address[]"
        },
        {
          "name": "totalItems",
          "type": "uint16[]"
        }
      ],
      "name": "updateTotals",
      "outputs": [],
      "payable": false,
      "stateMutability": "nonpayable",
      "type": "function"
    },
    {
      "constant": false,
      "inputs": [
        {
          "name": "contractorAddrs",
          "type": "address[]"
        },
        {
          "name": "approvedItems",
          "type": "uint16[]"
        },
        {
          "name": "declinedItems",
          "type": "uint16[]"
        }
      ],
      "name": "updatePerformance",
      "outputs": [],
      "payable": false,
      "stateMutability": "nonpayable",
      "type": "function"
    },
    {
      "constant": false,
      "inputs": [],
      "name": "finalize",
      "outputs": [],
      "payable": false,
      "stateMutability": "nonpayable",
      "type": "function"
    },
    {
      "constant": false,
      "inputs": [],
      "name": "forceFinalize",
      "outputs": [],
      "payable": false,
      "stateMutability": "nonpayable",
      "type": "function"
    }
  ],
  "bytecode": "0x606060405260008060006101000a81548160ff0219169083600281111561002257fe5b021790555033600060016101000a81548173ffffffffffffffffffffffffffffffffffffffff021916908373ffffffffffffffffffffffffffffffffffffffff160217905550341561007357600080fd5b604051610120806116478339810160405280805190602001909190805190602001909190805190602001909190805190602001909190805190602001909190805190602001909190805190602001909190805190602001909190805190602001909190505060008973ffffffffffffffffffffffffffffffffffffffff16141515156100fe57600080fd5b60008873ffffffffffffffffffffffffffffffffffffffff161415151561012457600080fd5b60008773ffffffffffffffffffffffffffffffffffffffff161415151561014a57600080fd5b60008673ffffffffffffffffffffffffffffffffffffffff161415151561017057600080fd5b6103e8851115151561018157600080fd5b6103e8841115151561019257600080fd5b640100000000831015156101a557600080fd5b640100000000811015156101b857600080fd5b87600160006101000a81548173ffffffffffffffffffffffffffffffffffffffff021916908373ffffffffffffffffffffffffffffffffffffffff16021790555088600260006101000a81548173ffffffffffffffffffffffffffffffffffffffff021916908373ffffffffffffffffffffffffffffffffffffffff16021790555086600360006101000a81548173ffffffffffffffffffffffffffffffffffffffff021916908373ffffffffffffffffffffffffffffffffffffffff16021790555085600460006101000a81548173ffffffffffffffffffffffffffffffffffffffff021916908373ffffffffffffffffffffffffffffffffffffffff16021790555084600460146101000a81548161ffff021916908361ffff16021790555083600460166101000a81548161ffff021916908361ffff16021790555082600460186101000a81548163ffffffff021916908363ffffffff16021790555081600581905550806004601c6101000a81548163ffffffff021916908363ffffffff1602179055505050505050505050506112f0806103576000396000f30060606040526004361061013e576000357c0100000000000000000000000000000000000000000000000000000000900463ffffffff16806304621ce8146101435780630d34ca771461016c5780630f15f4c0146101995780630f15f59f146101ae5780631001ffaf146101df578063109e94cf1461021057806329d04065146102655780632eafe0091461029a5780633481a95a146102c357806342de4e9c1461032657806346439f47146104685780634bb278f3146104bd57806355a373d6146104d2578063663fd2ac1461052757806382b2e257146105a55780638bfc7c5d146105ce5780638da5cb5b146106a8578063bee22cea146106fd578063c19d93fb14610712578063d328c43014610749578063dd460a251461077e578063ea9b941314610818578063f53e2c241461086d578063ffa1ad7414610896575b600080fd5b341561014e57600080fd5b6101566108c7565b6040518082815260200191505060405180910390f35b341561017757600080fd5b61017f6108cf565b604051808215151515815260200191505060405180910390f35b34156101a457600080fd5b6101ac6108d7565b005b34156101b957600080fd5b6101c161098f565b604051808261ffff1661ffff16815260200191505060405180910390f35b34156101ea57600080fd5b6101f26109a3565b604051808261ffff1661ffff16815260200191505060405180910390f35b341561021b57600080fd5b6102236109b7565b604051808273ffffffffffffffffffffffffffffffffffffffff1673ffffffffffffffffffffffffffffffffffffffff16815260200191505060405180910390f35b341561027057600080fd5b6102786109dd565b604051808263ffffffff1663ffffffff16815260200191505060405180910390f35b34156102a557600080fd5b6102ad6109f3565b6040518082815260200191505060405180910390f35b34156102ce57600080fd5b6102e460048080359060200190919050506109f9565b604051808273ffffffffffffffffffffffffffffffffffffffff1673ffffffffffffffffffffffffffffffffffffffff16815260200191505060405180910390f35b341561033157600080fd5b610339610a38565b6040518080602001806020018060200180602001858103855289818151815260200191508051906020019060200280838360005b8381101561038857808201518184015260208101905061036d565b50505050905001858103845288818151815260200191508051906020019060200280838360005b838110156103ca5780820151818401526020810190506103af565b50505050905001858103835287818151815260200191508051906020019060200280838360005b8381101561040c5780820151818401526020810190506103f1565b50505050905001858103825286818151815260200191508051906020019060200280838360005b8381101561044e578082015181840152602081019050610433565b505050509050019850505050505050505060405180910390f35b341561047357600080fd5b61047b610cb5565b604051808273ffffffffffffffffffffffffffffffffffffffff1673ffffffffffffffffffffffffffffffffffffffff16815260200191505060405180910390f35b34156104c857600080fd5b6104d0610cdb565b005b34156104dd57600080fd5b6104e5610d93565b604051808273ffffffffffffffffffffffffffffffffffffffff1673ffffffffffffffffffffffffffffffffffffffff16815260200191505060405180910390f35b341561053257600080fd5b61055e600480803573ffffffffffffffffffffffffffffffffffffffff16906020019091905050610db9565b60405180851515151581526020018461ffff1661ffff1681526020018361ffff1661ffff1681526020018261ffff1661ffff16815260200194505050505060405180910390f35b34156105b057600080fd5b6105b8610e20565b6040518082815260200191505060405180910390f35b34156105d957600080fd5b6106a66004808035906020019082018035906020019080806020026020016040519081016040528093929190818152602001838360200280828437820191505050505050919080359060200190820180359060200190808060200260200160405190810160405280939291908181526020018383602002808284378201915050505050509190803590602001908201803590602001908080602002602001604051908101604052809392919081815260200183836020028082843782019150505050505091905050610e28565b005b34156106b357600080fd5b6106bb610fb2565b604051808273ffffffffffffffffffffffffffffffffffffffff1673ffffffffffffffffffffffffffffffffffffffff16815260200191505060405180910390f35b341561070857600080fd5b610710610fd8565b005b341561071d57600080fd5b610725611032565b6040518082600281111561073557fe5b60ff16815260200191505060405180910390f35b341561075457600080fd5b61075c611044565b604051808263ffffffff1663ffffffff16815260200191505060405180910390f35b341561078957600080fd5b6108166004808035906020019082018035906020019080806020026020016040519081016040528093929190818152602001838360200280828437820191505050505050919080359060200190820180359060200190808060200260200160405190810160405280939291908181526020018383602002808284378201915050505050509190505061105a565b005b341561082357600080fd5b61082b611218565b604051808273ffffffffffffffffffffffffffffffffffffffff1673ffffffffffffffffffffffffffffffffffffffff16815260200191505060405180910390f35b341561087857600080fd5b61088061123e565b6040518082815260200191505060405180910390f35b34156108a157600080fd5b6108a9611246565b604051808261ffff1661ffff16815260200191505060405180910390f35b600080905090565b600080905090565b600160009054906101000a900473ffffffffffffffffffffffffffffffffffffffff168073ffffffffffffffffffffffffffffffffffffffff163373ffffffffffffffffffffffffffffffffffffffff1614151561093457600080fd5b600080600281111561094257fe5b6000809054906101000a900460ff16600281111561095c57fe5b14151561096857600080fd5b60016000806101000a81548160ff0219169083600281111561098657fe5b02179055505050565b600460169054906101000a900461ffff1681565b600460149054906101000a900461ffff1681565b600160009054906101000a900473ffffffffffffffffffffffffffffffffffffffff1681565b600460189054906101000a900463ffffffff1681565b60055481565b600781815481101515610a0857fe5b90600052602060002090016000915054906101000a900473ffffffffffffffffffffffffffffffffffffffff1681565b610a4061124b565b610a4861125f565b610a5061125f565b610a5861125f565b6000610a6261125f565b610a6a61125f565b610a7261125f565b6000806000600780549050965086604051805910610a8d5750595b9080825280602002602001820160405250955086604051805910610aae5750595b9080825280602002602001820160405250945086604051805910610acf5750595b90808252806020026020018201604052509350600092505b86831015610c1357600783815481101515610afe57fe5b906000526020600020900160009054906101000a900473ffffffffffffffffffffffffffffffffffffffff169150600660008373ffffffffffffffffffffffffffffffffffffffff1673ffffffffffffffffffffffffffffffffffffffff16815260200190815260200160002090508060000160019054906101000a900461ffff1661ffff168684815181101515610b9257fe5b90602001906020020181815250508060000160039054906101000a900461ffff1661ffff168584815181101515610bc557fe5b90602001906020020181815250508060000160059054906101000a900461ffff1661ffff168484815181101515610bf857fe5b90602001906020020181815250508280600101935050610ae7565b600786868683805480602002602001604051908101604052809291908181526020018280548015610c9957602002820191906000526020600020905b8160009054906101000a900473ffffffffffffffffffffffffffffffffffffffff1673ffffffffffffffffffffffffffffffffffffffff1681526020019060010190808311610c4f575b505050505093509a509a509a509a505050505050505090919293565b600360009054906101000a900473ffffffffffffffffffffffffffffffffffffffff1681565b600160009054906101000a900473ffffffffffffffffffffffffffffffffffffffff168073ffffffffffffffffffffffffffffffffffffffff163373ffffffffffffffffffffffffffffffffffffffff16141515610d3857600080fd5b6001806002811115610d4657fe5b6000809054906101000a900460ff166002811115610d6057fe5b141515610d6c57600080fd5b60026000806101000a81548160ff02191690836002811115610d8a57fe5b02179055505050565b600260009054906101000a900473ffffffffffffffffffffffffffffffffffffffff1681565b60066020528060005260406000206000915090508060000160009054906101000a900460ff16908060000160019054906101000a900461ffff16908060000160039054906101000a900461ffff16908060000160059054906101000a900461ffff16905084565b600080905090565b6000806000600160009054906101000a900473ffffffffffffffffffffffffffffffffffffffff168073ffffffffffffffffffffffffffffffffffffffff163373ffffffffffffffffffffffffffffffffffffffff16141515610e8a57600080fd5b85518751141515610e9a57600080fd5b84518751141515610eaa57600080fd5b600093505b8651841015610fa9578684815181101515610ec657fe5b906020019060200201519250600660008473ffffffffffffffffffffffffffffffffffffffff1673ffffffffffffffffffffffffffffffffffffffff16815260200190815260200160002091508160000160009054906101000a900460ff161515610f3057600080fd5b8584815181101515610f3e57fe5b906020019060200201518260000160036101000a81548161ffff021916908361ffff1602179055508484815181101515610f7457fe5b906020019060200201518260000160056101000a81548161ffff021916908361ffff1602179055508380600101945050610eaf565b50505050505050565b600060019054906101000a900473ffffffffffffffffffffffffffffffffffffffff1681565b6001806002811115610fe657fe5b6000809054906101000a900460ff16600281111561100057fe5b14151561100c57600080fd5b60026000806101000a81548160ff0219169083600281111561102a57fe5b021790555050565b6000809054906101000a900460ff1681565b6004601c9054906101000a900463ffffffff1681565b60008060008060019054906101000a900473ffffffffffffffffffffffffffffffffffffffff168073ffffffffffffffffffffffffffffffffffffffff163373ffffffffffffffffffffffffffffffffffffffff161415156110bb57600080fd5b845186511415156110cb57600080fd5b600093505b85518410156112105785848151811015156110e757fe5b906020019060200201519250600660008473ffffffffffffffffffffffffffffffffffffffff1673ffffffffffffffffffffffffffffffffffffffff16815260200190815260200160002091508160000160009054906101000a900460ff1615156111cd5760018260000160006101000a81548160ff0219169083151502179055506007805480600101828161117d9190611273565b9160005260206000209001600085909190916101000a81548173ffffffffffffffffffffffffffffffffffffffff021916908373ffffffffffffffffffffffffffffffffffffffff160217905550505b84848151811015156111db57fe5b906020019060200201518260000160016101000a81548161ffff021916908361ffff16021790555083806001019450506110d0565b505050505050565b600460009054906101000a900473ffffffffffffffffffffffffffffffffffffffff1681565b600080905090565b600181565b602060405190810160405280600081525090565b602060405190810160405280600081525090565b81548183558181151161129a57818360005260206000209182019101611299919061129f565b5b505050565b6112c191905b808211156112bd5760008160009055506001016112a5565b5090565b905600a165627a7a723058205b6f9f703bf7373c254c818eb6ebe510f1d40bb05c903a91e9d8a5cc0e01a5170029",
  "source": "pragma solidity ^0.4.17;\n\nimport \"./ERC20.sol\";\n\n\ncontract GGProject {\n\n  enum State {\n    New,\n    Active,\n    Finalized\n  }\n\n  uint16 public constant VERSION = 1;\n  State public state = State.New;\n\n  address public owner = msg.sender;\n  address public client;\n  ERC20 public tokenContract;\n  address public approvalCommissionBenificiary;\n  address public disapprovalCommissionBeneficiary;\n\n  uint16 public approvalCommissionFractionThousands;\n  uint16 public disapprovalCommissionFractionThousands;\n  uint32 public totalWorkItems;\n  uint32 public autoApprovalTimeoutSec;\n  uint public workItemPrice;\n\n  struct ContractorPerformance {\n    bool isSet;\n    uint16 totalItems;\n    uint16 approvedItems;\n    uint16 declinedItems;\n  }\n\n  mapping(address => ContractorPerformance) public performanceByContractor;\n  address[] public contractors;\n\n  modifier atState(State _state) {\n    require(state == _state);\n    _;\n  }\n\n  modifier allowOnly(address callerAddress) {\n    require(msg.sender == callerAddress);\n    _;\n  }\n\n  function GGProject(\n    address _tokenContractAddress,\n    address _clientAddress,\n    address _approvalCommissionBenificiaryAddress,\n    address _disapprovalCommissionBeneficiaryAddress,\n    uint _approvalCommissionFractionThousands,\n    uint _disapprovalCommissionFractionThousands,\n    uint _totalWorkItems,\n    uint _workItemPrice,\n    uint _autoApprovalTimeoutSec\n  ) public {\n    require(_tokenContractAddress != 0);\n    require(_clientAddress != 0);\n    require(_approvalCommissionBenificiaryAddress != 0);\n    require(_disapprovalCommissionBeneficiaryAddress != 0);\n\n    require(_approvalCommissionFractionThousands <= 1000);\n    require(_disapprovalCommissionFractionThousands <= 1000);\n\n    require(_totalWorkItems < 4294967296); // 2^32\n    require(_autoApprovalTimeoutSec < 4294967296); // 2^32\n\n    client = _clientAddress;\n    tokenContract = ERC20(_tokenContractAddress);\n    approvalCommissionBenificiary = _approvalCommissionBenificiaryAddress;\n    disapprovalCommissionBeneficiary = _disapprovalCommissionBeneficiaryAddress;\n\n    approvalCommissionFractionThousands = uint16(_approvalCommissionFractionThousands);\n    disapprovalCommissionFractionThousands = uint16(_disapprovalCommissionFractionThousands);\n\n    totalWorkItems = uint32(_totalWorkItems);\n    workItemPrice = _workItemPrice;\n    autoApprovalTimeoutSec = uint32(_autoApprovalTimeoutSec);\n  }\n\n  function activate() public allowOnly(client) atState(State.New) {\n    // TODO\n    state = State.Active;\n  }\n\n  function getTokenBalance() public view returns (uint) {\n    // TODO\n    return 0;\n  }\n\n  function getWorkItemsBalance() public view returns (uint) {\n    // TODO\n    return 0;\n  }\n\n  function getWorkItemsLeft() public view returns (uint) {\n    // TODO\n    return 0;\n  }\n\n  function getCanForceFinalize() public view returns (bool) {\n    // TODO\n    return false;\n  }\n\n  function getPerformance() external view returns (address[], uint[], uint[], uint[]) {\n    uint totalContractors = contractors.length;\n\n    uint[] memory totalItems = new uint[](totalContractors);\n    uint[] memory approvedItems = new uint[](totalContractors);\n    uint[] memory declinedItems = new uint[](totalContractors);\n\n    for (uint i = 0; i < totalContractors; i++) {\n      address addr = contractors[i];\n      ContractorPerformance storage perf = performanceByContractor[addr];\n      totalItems[i] = perf.totalItems;\n      approvedItems[i] = perf.approvedItems;\n      declinedItems[i] = perf.declinedItems;\n    }\n\n    return (contractors, totalItems, approvedItems, declinedItems);\n  }\n\n  function updateTotals(address[] contractorAddrs, uint16[] totalItems) public allowOnly(owner) {\n    require(contractorAddrs.length == totalItems.length);\n\n    for (uint i = 0; i < contractorAddrs.length; i++) {\n      address addr = contractorAddrs[i];\n      ContractorPerformance storage perf = performanceByContractor[addr];\n\n      if (!perf.isSet) {\n        perf.isSet = true;\n        contractors.push(addr);\n      }\n\n      perf.totalItems = totalItems[i];\n    }\n  }\n\n  function updatePerformance(\n    address[] contractorAddrs,\n    uint16[] approvedItems,\n    uint16[] declinedItems\n  ) public\n    allowOnly(client)\n  {\n    require(contractorAddrs.length == approvedItems.length);\n    require(contractorAddrs.length == declinedItems.length);\n\n    for (uint i = 0; i < contractorAddrs.length; i++) {\n      address addr = contractorAddrs[i];\n      ContractorPerformance storage perf = performanceByContractor[addr];\n      require(perf.isSet);\n      perf.approvedItems = approvedItems[i];\n      perf.declinedItems = declinedItems[i];\n    }\n  }\n\n  function finalize() public allowOnly(client) atState(State.Active) {\n    // TODO\n    state = State.Finalized;\n  }\n\n  function forceFinalize() public atState(State.Active) {\n    // TODO\n    state = State.Finalized;\n  }\n\n}\n",
  "sourcePath": "/Users/sam/dev/projects/gg/smart-contracts/truffle/contracts/GGProject.sol",
  "compiler": {
    "name": "solc",
    "version": "0.4.19+commit.c4cbbb05.Emscripten.clang"
  },
  "schemaVersion": "2.0.0",
  "updatedAt": "2018-03-17T16:35:08.113Z"
}