{
  "contractName": "GGProject",
  "abi": [
    {
      "constant": true,
      "inputs": [],
      "name": "disapprovalCommissionFractionThousands",
      "outputs": [
        {
          "name": "",
          "type": "uint16"
        }
      ],
      "payable": false,
      "stateMutability": "view",
      "type": "function"
    },
    {
      "constant": true,
      "inputs": [],
      "name": "approvalCommissionFractionThousands",
      "outputs": [
        {
          "name": "",
          "type": "uint16"
        }
      ],
      "payable": false,
      "stateMutability": "view",
      "type": "function"
    },
    {
      "constant": true,
      "inputs": [],
      "name": "client",
      "outputs": [
        {
          "name": "",
          "type": "address"
        }
      ],
      "payable": false,
      "stateMutability": "view",
      "type": "function"
    },
    {
      "constant": true,
      "inputs": [],
      "name": "totalWorkItems",
      "outputs": [
        {
          "name": "",
          "type": "uint32"
        }
      ],
      "payable": false,
      "stateMutability": "view",
      "type": "function"
    },
    {
      "constant": true,
      "inputs": [],
      "name": "workItemPrice",
      "outputs": [
        {
          "name": "",
          "type": "uint256"
        }
      ],
      "payable": false,
      "stateMutability": "view",
      "type": "function"
    },
    {
      "constant": true,
      "inputs": [
        {
          "name": "",
          "type": "uint256"
        }
      ],
      "name": "contractors",
      "outputs": [
        {
          "name": "",
          "type": "address"
        }
      ],
      "payable": false,
      "stateMutability": "view",
      "type": "function"
    },
    {
      "constant": true,
      "inputs": [],
      "name": "approvalCommissionBenificiary",
      "outputs": [
        {
          "name": "",
          "type": "address"
        }
      ],
      "payable": false,
      "stateMutability": "view",
      "type": "function"
    },
    {
      "constant": true,
      "inputs": [],
      "name": "tokenContract",
      "outputs": [
        {
          "name": "",
          "type": "address"
        }
      ],
      "payable": false,
      "stateMutability": "view",
      "type": "function"
    },
    {
      "constant": true,
      "inputs": [
        {
          "name": "",
          "type": "address"
        }
      ],
      "name": "performanceByContractor",
      "outputs": [
        {
          "name": "isSet",
          "type": "bool"
        },
        {
          "name": "totalItems",
          "type": "uint16"
        },
        {
          "name": "approvedItems",
          "type": "uint16"
        },
        {
          "name": "declinedItems",
          "type": "uint16"
        }
      ],
      "payable": false,
      "stateMutability": "view",
      "type": "function"
    },
    {
      "constant": true,
      "inputs": [],
      "name": "owner",
      "outputs": [
        {
          "name": "",
          "type": "address"
        }
      ],
      "payable": false,
      "stateMutability": "view",
      "type": "function"
    },
    {
      "constant": true,
      "inputs": [],
      "name": "state",
      "outputs": [
        {
          "name": "",
          "type": "uint8"
        }
      ],
      "payable": false,
      "stateMutability": "view",
      "type": "function"
    },
    {
      "constant": true,
      "inputs": [],
      "name": "autoApprovalTimeoutSec",
      "outputs": [
        {
          "name": "",
          "type": "uint32"
        }
      ],
      "payable": false,
      "stateMutability": "view",
      "type": "function"
    },
    {
      "constant": true,
      "inputs": [],
      "name": "disapprovalCommissionBeneficiary",
      "outputs": [
        {
          "name": "",
          "type": "address"
        }
      ],
      "payable": false,
      "stateMutability": "view",
      "type": "function"
    },
    {
      "constant": true,
      "inputs": [],
      "name": "VERSION",
      "outputs": [
        {
          "name": "",
          "type": "uint16"
        }
      ],
      "payable": false,
      "stateMutability": "view",
      "type": "function"
    },
    {
      "inputs": [
        {
          "name": "_tokenContractAddress",
          "type": "address"
        },
        {
          "name": "_clientAddress",
          "type": "address"
        },
        {
          "name": "_approvalCommissionBenificiaryAddress",
          "type": "address"
        },
        {
          "name": "_disapprovalCommissionBeneficiaryAddress",
          "type": "address"
        },
        {
          "name": "_approvalCommissionFractionThousands",
          "type": "uint256"
        },
        {
          "name": "_disapprovalCommissionFractionThousands",
          "type": "uint256"
        },
        {
          "name": "_totalWorkItems",
          "type": "uint256"
        },
        {
          "name": "_workItemPrice",
          "type": "uint256"
        },
        {
          "name": "_autoApprovalTimeoutSec",
          "type": "uint256"
        }
      ],
      "payable": false,
      "stateMutability": "nonpayable",
      "type": "constructor"
    },
    {
      "constant": true,
      "inputs": [],
      "name": "getPerformance",
      "outputs": [
        {
          "name": "",
          "type": "address[]"
        },
        {
          "name": "",
          "type": "uint256[]"
        },
        {
          "name": "",
          "type": "uint256[]"
        },
        {
          "name": "",
          "type": "uint256[]"
        }
      ],
      "payable": false,
      "stateMutability": "view",
      "type": "function"
    },
    {
      "constant": false,
      "inputs": [
        {
          "name": "contractorAddrs",
          "type": "address[]"
        },
        {
          "name": "totalItems",
          "type": "uint16[]"
        }
      ],
      "name": "updateTotals",
      "outputs": [],
      "payable": false,
      "stateMutability": "nonpayable",
      "type": "function"
    },
    {
      "constant": false,
      "inputs": [
        {
          "name": "contractorAddrs",
          "type": "address[]"
        },
        {
          "name": "approvedItems",
          "type": "uint16[]"
        },
        {
          "name": "declinedItems",
          "type": "uint16[]"
        }
      ],
      "name": "updatePerformance",
      "outputs": [],
      "payable": false,
      "stateMutability": "nonpayable",
      "type": "function"
    }
  ],
  "bytecode": "0x606060405260008060006101000a81548160ff0219169083600281111561002257fe5b021790555033600060016101000a81548173ffffffffffffffffffffffffffffffffffffffff021916908373ffffffffffffffffffffffffffffffffffffffff160217905550341561007357600080fd5b604051610120806113298339810160405280805190602001909190805190602001909190805190602001909190805190602001909190805190602001909190805190602001909190805190602001909190805190602001909190805190602001909190505060008973ffffffffffffffffffffffffffffffffffffffff16141515156100fe57600080fd5b60008873ffffffffffffffffffffffffffffffffffffffff161415151561012457600080fd5b60008773ffffffffffffffffffffffffffffffffffffffff161415151561014a57600080fd5b60008673ffffffffffffffffffffffffffffffffffffffff161415151561017057600080fd5b6103e8851115151561018157600080fd5b6103e8841115151561019257600080fd5b640100000000831015156101a557600080fd5b640100000000811015156101b857600080fd5b87600160006101000a81548173ffffffffffffffffffffffffffffffffffffffff021916908373ffffffffffffffffffffffffffffffffffffffff16021790555088600260006101000a81548173ffffffffffffffffffffffffffffffffffffffff021916908373ffffffffffffffffffffffffffffffffffffffff16021790555086600360006101000a81548173ffffffffffffffffffffffffffffffffffffffff021916908373ffffffffffffffffffffffffffffffffffffffff16021790555085600460006101000a81548173ffffffffffffffffffffffffffffffffffffffff021916908373ffffffffffffffffffffffffffffffffffffffff16021790555084600460146101000a81548161ffff021916908361ffff16021790555083600460166101000a81548161ffff021916908361ffff16021790555082600460186101000a81548163ffffffff021916908363ffffffff16021790555081600581905550806004601c6101000a81548163ffffffff021916908363ffffffff160217905550505050505050505050610fd2806103576000396000f3006060604052600436106100f1576000357c0100000000000000000000000000000000000000000000000000000000900463ffffffff1680630f15f59f146100f65780631001ffaf14610127578063109e94cf1461015857806329d04065146101ad5780632eafe009146101e25780633481a95a1461020b57806342de4e9c1461026e57806346439f47146103b057806355a373d614610405578063663fd2ac1461045a5780638bfc7c5d146104d85780638da5cb5b146105b2578063c19d93fb14610607578063d328c4301461063e578063dd460a2514610673578063ea9b94131461070d578063ffa1ad7414610762575b600080fd5b341561010157600080fd5b610109610793565b604051808261ffff1661ffff16815260200191505060405180910390f35b341561013257600080fd5b61013a6107a7565b604051808261ffff1661ffff16815260200191505060405180910390f35b341561016357600080fd5b61016b6107bb565b604051808273ffffffffffffffffffffffffffffffffffffffff1673ffffffffffffffffffffffffffffffffffffffff16815260200191505060405180910390f35b34156101b857600080fd5b6101c06107e1565b604051808263ffffffff1663ffffffff16815260200191505060405180910390f35b34156101ed57600080fd5b6101f56107f7565b6040518082815260200191505060405180910390f35b341561021657600080fd5b61022c60048080359060200190919050506107fd565b604051808273ffffffffffffffffffffffffffffffffffffffff1673ffffffffffffffffffffffffffffffffffffffff16815260200191505060405180910390f35b341561027957600080fd5b61028161083c565b6040518080602001806020018060200180602001858103855289818151815260200191508051906020019060200280838360005b838110156102d05780820151818401526020810190506102b5565b50505050905001858103845288818151815260200191508051906020019060200280838360005b838110156103125780820151818401526020810190506102f7565b50505050905001858103835287818151815260200191508051906020019060200280838360005b83811015610354578082015181840152602081019050610339565b50505050905001858103825286818151815260200191508051906020019060200280838360005b8381101561039657808201518184015260208101905061037b565b505050509050019850505050505050505060405180910390f35b34156103bb57600080fd5b6103c3610ab9565b604051808273ffffffffffffffffffffffffffffffffffffffff1673ffffffffffffffffffffffffffffffffffffffff16815260200191505060405180910390f35b341561041057600080fd5b610418610adf565b604051808273ffffffffffffffffffffffffffffffffffffffff1673ffffffffffffffffffffffffffffffffffffffff16815260200191505060405180910390f35b341561046557600080fd5b610491600480803573ffffffffffffffffffffffffffffffffffffffff16906020019091905050610b05565b60405180851515151581526020018461ffff1661ffff1681526020018361ffff1661ffff1681526020018261ffff1661ffff16815260200194505050505060405180910390f35b34156104e357600080fd5b6105b06004808035906020019082018035906020019080806020026020016040519081016040528093929190818152602001838360200280828437820191505050505050919080359060200190820180359060200190808060200260200160405190810160405280939291908181526020018383602002808284378201915050505050509190803590602001908201803590602001908080602002602001604051908101604052809392919081815260200183836020028082843782019150505050505091905050610b6c565b005b34156105bd57600080fd5b6105c5610cf6565b604051808273ffffffffffffffffffffffffffffffffffffffff1673ffffffffffffffffffffffffffffffffffffffff16815260200191505060405180910390f35b341561061257600080fd5b61061a610d1c565b6040518082600281111561062a57fe5b60ff16815260200191505060405180910390f35b341561064957600080fd5b610651610d2e565b604051808263ffffffff1663ffffffff16815260200191505060405180910390f35b341561067e57600080fd5b61070b60048080359060200190820180359060200190808060200260200160405190810160405280939291908181526020018383602002808284378201915050505050509190803590602001908201803590602001908080602002602001604051908101604052809392919081815260200183836020028082843782019150505050505091905050610d44565b005b341561071857600080fd5b610720610f02565b604051808273ffffffffffffffffffffffffffffffffffffffff1673ffffffffffffffffffffffffffffffffffffffff16815260200191505060405180910390f35b341561076d57600080fd5b610775610f28565b604051808261ffff1661ffff16815260200191505060405180910390f35b600460169054906101000a900461ffff1681565b600460149054906101000a900461ffff1681565b600160009054906101000a900473ffffffffffffffffffffffffffffffffffffffff1681565b600460189054906101000a900463ffffffff1681565b60055481565b60078181548110151561080c57fe5b90600052602060002090016000915054906101000a900473ffffffffffffffffffffffffffffffffffffffff1681565b610844610f2d565b61084c610f41565b610854610f41565b61085c610f41565b6000610866610f41565b61086e610f41565b610876610f41565b60008060006007805490509650866040518059106108915750595b90808252806020026020018201604052509550866040518059106108b25750595b90808252806020026020018201604052509450866040518059106108d35750595b90808252806020026020018201604052509350600092505b86831015610a175760078381548110151561090257fe5b906000526020600020900160009054906101000a900473ffffffffffffffffffffffffffffffffffffffff169150600660008373ffffffffffffffffffffffffffffffffffffffff1673ffffffffffffffffffffffffffffffffffffffff16815260200190815260200160002090508060000160019054906101000a900461ffff1661ffff16868481518110151561099657fe5b90602001906020020181815250508060000160039054906101000a900461ffff1661ffff1685848151811015156109c957fe5b90602001906020020181815250508060000160059054906101000a900461ffff1661ffff1684848151811015156109fc57fe5b906020019060200201818152505082806001019350506108eb565b600786868683805480602002602001604051908101604052809291908181526020018280548015610a9d57602002820191906000526020600020905b8160009054906101000a900473ffffffffffffffffffffffffffffffffffffffff1673ffffffffffffffffffffffffffffffffffffffff1681526020019060010190808311610a53575b505050505093509a509a509a509a505050505050505090919293565b600360009054906101000a900473ffffffffffffffffffffffffffffffffffffffff1681565b600260009054906101000a900473ffffffffffffffffffffffffffffffffffffffff1681565b60066020528060005260406000206000915090508060000160009054906101000a900460ff16908060000160019054906101000a900461ffff16908060000160039054906101000a900461ffff16908060000160059054906101000a900461ffff16905084565b6000806000600160009054906101000a900473ffffffffffffffffffffffffffffffffffffffff168073ffffffffffffffffffffffffffffffffffffffff163373ffffffffffffffffffffffffffffffffffffffff16141515610bce57600080fd5b85518751141515610bde57600080fd5b84518751141515610bee57600080fd5b600093505b8651841015610ced578684815181101515610c0a57fe5b906020019060200201519250600660008473ffffffffffffffffffffffffffffffffffffffff1673ffffffffffffffffffffffffffffffffffffffff16815260200190815260200160002091508160000160009054906101000a900460ff161515610c7457600080fd5b8584815181101515610c8257fe5b906020019060200201518260000160036101000a81548161ffff021916908361ffff1602179055508484815181101515610cb857fe5b906020019060200201518260000160056101000a81548161ffff021916908361ffff1602179055508380600101945050610bf3565b50505050505050565b600060019054906101000a900473ffffffffffffffffffffffffffffffffffffffff1681565b6000809054906101000a900460ff1681565b6004601c9054906101000a900463ffffffff1681565b60008060008060019054906101000a900473ffffffffffffffffffffffffffffffffffffffff168073ffffffffffffffffffffffffffffffffffffffff163373ffffffffffffffffffffffffffffffffffffffff16141515610da557600080fd5b84518651141515610db557600080fd5b600093505b8551841015610efa578584815181101515610dd157fe5b906020019060200201519250600660008473ffffffffffffffffffffffffffffffffffffffff1673ffffffffffffffffffffffffffffffffffffffff16815260200190815260200160002091508160000160009054906101000a900460ff161515610eb75760018260000160006101000a81548160ff02191690831515021790555060078054806001018281610e679190610f55565b9160005260206000209001600085909190916101000a81548173ffffffffffffffffffffffffffffffffffffffff021916908373ffffffffffffffffffffffffffffffffffffffff160217905550505b8484815181101515610ec557fe5b906020019060200201518260000160016101000a81548161ffff021916908361ffff1602179055508380600101945050610dba565b505050505050565b600460009054906101000a900473ffffffffffffffffffffffffffffffffffffffff1681565b600181565b602060405190810160405280600081525090565b602060405190810160405280600081525090565b815481835581811511610f7c57818360005260206000209182019101610f7b9190610f81565b5b505050565b610fa391905b80821115610f9f576000816000905550600101610f87565b5090565b905600a165627a7a7230582020c6095c6144fb4ede54e7e9ec8fe7a8201d946b0c606bd36d4bd8244261becd0029",
  "source": "pragma solidity ^0.4.17;\n\nimport \"./ERC20.sol\";\n\n\ncontract GGProject {\n\n  enum State {\n    New,\n    Active,\n    Finalized\n  }\n\n  uint16 public constant VERSION = 1;\n  State public state = State.New;\n\n  address public owner = msg.sender;\n  address public client;\n  ERC20 public tokenContract;\n  address public approvalCommissionBenificiary;\n  address public disapprovalCommissionBeneficiary;\n\n  uint16 public approvalCommissionFractionThousands;\n  uint16 public disapprovalCommissionFractionThousands;\n  uint32 public totalWorkItems;\n  uint32 public autoApprovalTimeoutSec;\n  uint public workItemPrice;\n\n  struct ContractorPerformance {\n    bool isSet;\n    uint16 totalItems;\n    uint16 approvedItems;\n    uint16 declinedItems;\n  }\n\n  mapping(address => ContractorPerformance) public performanceByContractor;\n  address[] public contractors;\n\n  modifier atState(State _state) {\n    require(state == _state);\n    _;\n  }\n\n  modifier allowOnly(address callerAddress) {\n    require(msg.sender == callerAddress);\n    _;\n  }\n\n  function GGProject(\n    address _tokenContractAddress,\n    address _clientAddress,\n    address _approvalCommissionBenificiaryAddress,\n    address _disapprovalCommissionBeneficiaryAddress,\n    uint _approvalCommissionFractionThousands,\n    uint _disapprovalCommissionFractionThousands,\n    uint _totalWorkItems,\n    uint _workItemPrice,\n    uint _autoApprovalTimeoutSec\n  ) public {\n    require(_tokenContractAddress != 0);\n    require(_clientAddress != 0);\n    require(_approvalCommissionBenificiaryAddress != 0);\n    require(_disapprovalCommissionBeneficiaryAddress != 0);\n\n    require(_approvalCommissionFractionThousands <= 1000);\n    require(_disapprovalCommissionFractionThousands <= 1000);\n\n    require(_totalWorkItems < 4294967296); // 2^32\n    require(_autoApprovalTimeoutSec < 4294967296); // 2^32\n\n    client = _clientAddress;\n    tokenContract = ERC20(_tokenContractAddress);\n    approvalCommissionBenificiary = _approvalCommissionBenificiaryAddress;\n    disapprovalCommissionBeneficiary = _disapprovalCommissionBeneficiaryAddress;\n\n    approvalCommissionFractionThousands = uint16(_approvalCommissionFractionThousands);\n    disapprovalCommissionFractionThousands = uint16(_disapprovalCommissionFractionThousands);\n\n    totalWorkItems = uint32(_totalWorkItems);\n    workItemPrice = _workItemPrice;\n    autoApprovalTimeoutSec = uint32(_autoApprovalTimeoutSec);\n  }\n\n  function getPerformance() external view returns (address[], uint[], uint[], uint[]) {\n    uint totalContractors = contractors.length;\n\n    uint[] memory totalItems = new uint[](totalContractors);\n    uint[] memory approvedItems = new uint[](totalContractors);\n    uint[] memory declinedItems = new uint[](totalContractors);\n\n    for (uint i = 0; i < totalContractors; i++) {\n      address addr = contractors[i];\n      ContractorPerformance storage perf = performanceByContractor[addr];\n      totalItems[i] = perf.totalItems;\n      approvedItems[i] = perf.approvedItems;\n      declinedItems[i] = perf.declinedItems;\n    }\n\n    return (contractors, totalItems, approvedItems, declinedItems);\n  }\n\n  function updateTotals(address[] contractorAddrs, uint16[] totalItems) public allowOnly(owner) {\n    require(contractorAddrs.length == totalItems.length);\n\n    for (uint i = 0; i < contractorAddrs.length; i++) {\n      address addr = contractorAddrs[i];\n      ContractorPerformance storage perf = performanceByContractor[addr];\n\n      if (!perf.isSet) {\n        perf.isSet = true;\n        contractors.push(addr);\n      }\n\n      perf.totalItems = totalItems[i];\n    }\n  }\n\n  function updatePerformance(\n    address[] contractorAddrs,\n    uint16[] approvedItems,\n    uint16[] declinedItems\n  ) public\n    allowOnly(client)\n  {\n    require(contractorAddrs.length == approvedItems.length);\n    require(contractorAddrs.length == declinedItems.length);\n\n    for (uint i = 0; i < contractorAddrs.length; i++) {\n      address addr = contractorAddrs[i];\n      ContractorPerformance storage perf = performanceByContractor[addr];\n      require(perf.isSet);\n      perf.approvedItems = approvedItems[i];\n      perf.declinedItems = declinedItems[i];\n    }\n  }\n\n}\n",
  "sourcePath": "/Users/sam/dev/projects/gg/smart-contracts/truffle/contracts/GGProject.sol",
  "compiler": {
    "name": "solc",
    "version": "0.4.19+commit.c4cbbb05.Emscripten.clang"
  },
  "schemaVersion": "2.0.0",
  "updatedAt": "2018-03-17T16:02:08.696Z"
}