{
  "contractName": "GGProject",
  "abi": [
    {
      "constant": true,
      "inputs": [],
      "name": "disapprovalCommissionFractionThousands",
      "outputs": [
        {
          "name": "",
          "type": "uint16"
        }
      ],
      "payable": false,
      "stateMutability": "view",
      "type": "function"
    },
    {
      "constant": true,
      "inputs": [],
      "name": "approvalCommissionFractionThousands",
      "outputs": [
        {
          "name": "",
          "type": "uint16"
        }
      ],
      "payable": false,
      "stateMutability": "view",
      "type": "function"
    },
    {
      "constant": true,
      "inputs": [],
      "name": "client",
      "outputs": [
        {
          "name": "",
          "type": "address"
        }
      ],
      "payable": false,
      "stateMutability": "view",
      "type": "function"
    },
    {
      "constant": true,
      "inputs": [],
      "name": "totalWorkItems",
      "outputs": [
        {
          "name": "",
          "type": "uint32"
        }
      ],
      "payable": false,
      "stateMutability": "view",
      "type": "function"
    },
    {
      "constant": true,
      "inputs": [],
      "name": "workItemPrice",
      "outputs": [
        {
          "name": "",
          "type": "uint256"
        }
      ],
      "payable": false,
      "stateMutability": "view",
      "type": "function"
    },
    {
      "constant": true,
      "inputs": [
        {
          "name": "",
          "type": "uint256"
        }
      ],
      "name": "contractors",
      "outputs": [
        {
          "name": "",
          "type": "address"
        }
      ],
      "payable": false,
      "stateMutability": "view",
      "type": "function"
    },
    {
      "constant": true,
      "inputs": [],
      "name": "approvalCommissionBenificiary",
      "outputs": [
        {
          "name": "",
          "type": "address"
        }
      ],
      "payable": false,
      "stateMutability": "view",
      "type": "function"
    },
    {
      "constant": true,
      "inputs": [],
      "name": "tokenContract",
      "outputs": [
        {
          "name": "",
          "type": "address"
        }
      ],
      "payable": false,
      "stateMutability": "view",
      "type": "function"
    },
    {
      "constant": true,
      "inputs": [
        {
          "name": "",
          "type": "address"
        }
      ],
      "name": "performanceByContractor",
      "outputs": [
        {
          "name": "isSet",
          "type": "bool"
        },
        {
          "name": "totalItems",
          "type": "uint32"
        },
        {
          "name": "approvedItems",
          "type": "uint32"
        },
        {
          "name": "declinedItems",
          "type": "uint32"
        }
      ],
      "payable": false,
      "stateMutability": "view",
      "type": "function"
    },
    {
      "constant": true,
      "inputs": [],
      "name": "owner",
      "outputs": [
        {
          "name": "",
          "type": "address"
        }
      ],
      "payable": false,
      "stateMutability": "view",
      "type": "function"
    },
    {
      "constant": true,
      "inputs": [],
      "name": "performanceUpdatedAt",
      "outputs": [
        {
          "name": "",
          "type": "uint64"
        }
      ],
      "payable": false,
      "stateMutability": "view",
      "type": "function"
    },
    {
      "constant": true,
      "inputs": [],
      "name": "state",
      "outputs": [
        {
          "name": "",
          "type": "uint8"
        }
      ],
      "payable": false,
      "stateMutability": "view",
      "type": "function"
    },
    {
      "constant": true,
      "inputs": [],
      "name": "autoApprovalTimeoutSec",
      "outputs": [
        {
          "name": "",
          "type": "uint32"
        }
      ],
      "payable": false,
      "stateMutability": "view",
      "type": "function"
    },
    {
      "constant": true,
      "inputs": [],
      "name": "disapprovalCommissionBeneficiary",
      "outputs": [
        {
          "name": "",
          "type": "address"
        }
      ],
      "payable": false,
      "stateMutability": "view",
      "type": "function"
    },
    {
      "constant": true,
      "inputs": [],
      "name": "VERSION",
      "outputs": [
        {
          "name": "",
          "type": "uint16"
        }
      ],
      "payable": false,
      "stateMutability": "view",
      "type": "function"
    },
    {
      "inputs": [
        {
          "name": "_tokenContractAddress",
          "type": "address"
        },
        {
          "name": "_clientAddress",
          "type": "address"
        },
        {
          "name": "_approvalCommissionBenificiaryAddress",
          "type": "address"
        },
        {
          "name": "_disapprovalCommissionBeneficiaryAddress",
          "type": "address"
        },
        {
          "name": "_approvalCommissionFractionThousands",
          "type": "uint256"
        },
        {
          "name": "_disapprovalCommissionFractionThousands",
          "type": "uint256"
        },
        {
          "name": "_totalWorkItems",
          "type": "uint256"
        },
        {
          "name": "_workItemPrice",
          "type": "uint256"
        },
        {
          "name": "_autoApprovalTimeoutSec",
          "type": "uint256"
        }
      ],
      "payable": false,
      "stateMutability": "nonpayable",
      "type": "constructor"
    },
    {
      "anonymous": false,
      "inputs": [],
      "name": "Activated",
      "type": "event"
    },
    {
      "anonymous": false,
      "inputs": [],
      "name": "UpdatedPerformance",
      "type": "event"
    },
    {
      "anonymous": false,
      "inputs": [],
      "name": "Finalized",
      "type": "event"
    },
    {
      "constant": false,
      "inputs": [],
      "name": "activate",
      "outputs": [],
      "payable": false,
      "stateMutability": "nonpayable",
      "type": "function"
    },
    {
      "constant": true,
      "inputs": [],
      "name": "describe",
      "outputs": [
        {
          "name": "_state",
          "type": "uint8"
        },
        {
          "name": "_totalWorkItems",
          "type": "uint256"
        },
        {
          "name": "_workItemPrice",
          "type": "uint256"
        },
        {
          "name": "_tokenBalance",
          "type": "uint256"
        },
        {
          "name": "_workItemsBalance",
          "type": "uint256"
        },
        {
          "name": "_workItemsLeft",
          "type": "uint256"
        },
        {
          "name": "_requiredInitialTokenBalance",
          "type": "uint256"
        },
        {
          "name": "_canFinalize",
          "type": "bool"
        },
        {
          "name": "_canForceFinalize",
          "type": "bool"
        },
        {
          "name": "_canForceFinalizeAt",
          "type": "uint256"
        }
      ],
      "payable": false,
      "stateMutability": "view",
      "type": "function"
    },
    {
      "constant": true,
      "inputs": [],
      "name": "getRequiredInitialTokenBalance",
      "outputs": [
        {
          "name": "",
          "type": "uint256"
        }
      ],
      "payable": false,
      "stateMutability": "view",
      "type": "function"
    },
    {
      "constant": true,
      "inputs": [],
      "name": "getTokenBalance",
      "outputs": [
        {
          "name": "",
          "type": "uint256"
        }
      ],
      "payable": false,
      "stateMutability": "view",
      "type": "function"
    },
    {
      "constant": true,
      "inputs": [],
      "name": "getWorkItemsBalance",
      "outputs": [
        {
          "name": "",
          "type": "uint256"
        }
      ],
      "payable": false,
      "stateMutability": "view",
      "type": "function"
    },
    {
      "constant": true,
      "inputs": [],
      "name": "getWorkItemsLeft",
      "outputs": [
        {
          "name": "",
          "type": "uint256"
        }
      ],
      "payable": false,
      "stateMutability": "view",
      "type": "function"
    },
    {
      "constant": true,
      "inputs": [],
      "name": "hasPendingItems",
      "outputs": [
        {
          "name": "",
          "type": "bool"
        }
      ],
      "payable": false,
      "stateMutability": "view",
      "type": "function"
    },
    {
      "constant": true,
      "inputs": [],
      "name": "getCanFinalize",
      "outputs": [
        {
          "name": "",
          "type": "bool"
        }
      ],
      "payable": false,
      "stateMutability": "view",
      "type": "function"
    },
    {
      "constant": true,
      "inputs": [],
      "name": "getCanForceFinalizeAt",
      "outputs": [
        {
          "name": "",
          "type": "uint64"
        }
      ],
      "payable": false,
      "stateMutability": "view",
      "type": "function"
    },
    {
      "constant": true,
      "inputs": [],
      "name": "getCanForceFinalize",
      "outputs": [
        {
          "name": "",
          "type": "bool"
        }
      ],
      "payable": false,
      "stateMutability": "view",
      "type": "function"
    },
    {
      "constant": true,
      "inputs": [],
      "name": "getPerformance",
      "outputs": [
        {
          "name": "",
          "type": "address[]"
        },
        {
          "name": "",
          "type": "uint256[]"
        },
        {
          "name": "",
          "type": "uint256[]"
        },
        {
          "name": "",
          "type": "uint256[]"
        }
      ],
      "payable": false,
      "stateMutability": "view",
      "type": "function"
    },
    {
      "constant": false,
      "inputs": [
        {
          "name": "contractorAddrs",
          "type": "address[]"
        },
        {
          "name": "totalItems",
          "type": "uint256[]"
        }
      ],
      "name": "updateTotals",
      "outputs": [],
      "payable": false,
      "stateMutability": "nonpayable",
      "type": "function"
    },
    {
      "constant": false,
      "inputs": [
        {
          "name": "contractorAddrs",
          "type": "address[]"
        },
        {
          "name": "approvedItems",
          "type": "uint256[]"
        },
        {
          "name": "declinedItems",
          "type": "uint256[]"
        }
      ],
      "name": "updatePerformance",
      "outputs": [],
      "payable": false,
      "stateMutability": "nonpayable",
      "type": "function"
    },
    {
      "constant": false,
      "inputs": [],
      "name": "finalize",
      "outputs": [],
      "payable": false,
      "stateMutability": "nonpayable",
      "type": "function"
    },
    {
      "constant": false,
      "inputs": [],
      "name": "forceFinalize",
      "outputs": [],
      "payable": false,
      "stateMutability": "nonpayable",
      "type": "function"
    }
  ],
  "bytecode": "0x606060405260008060006101000a81548160ff021916908360028111156200002357fe5b021790555033600060016101000a81548173ffffffffffffffffffffffffffffffffffffffff021916908373ffffffffffffffffffffffffffffffffffffffff16021790555034156200007557600080fd5b60405161012080620026eb8339810160405280805190602001909190805190602001909190805190602001909190805190602001909190805190602001909190805190602001909190805190602001909190805190602001909190805190602001909190505060008973ffffffffffffffffffffffffffffffffffffffff16141515156200010257600080fd5b60008873ffffffffffffffffffffffffffffffffffffffff16141515156200012957600080fd5b60008773ffffffffffffffffffffffffffffffffffffffff16141515156200015057600080fd5b60008673ffffffffffffffffffffffffffffffffffffffff16141515156200017757600080fd5b6103e885111515156200018957600080fd5b6103e884111515156200019b57600080fd5b64010000000083101515620001af57600080fd5b64010000000081101515620001c357600080fd5b87600160006101000a81548173ffffffffffffffffffffffffffffffffffffffff021916908373ffffffffffffffffffffffffffffffffffffffff16021790555088600260006101000a81548173ffffffffffffffffffffffffffffffffffffffff021916908373ffffffffffffffffffffffffffffffffffffffff16021790555086600360006101000a81548173ffffffffffffffffffffffffffffffffffffffff021916908373ffffffffffffffffffffffffffffffffffffffff16021790555085600460006101000a81548173ffffffffffffffffffffffffffffffffffffffff021916908373ffffffffffffffffffffffffffffffffffffffff16021790555084600460146101000a81548161ffff021916908361ffff16021790555083600460166101000a81548161ffff021916908361ffff16021790555082600460186101000a81548163ffffffff021916908363ffffffff16021790555081600681905550806004601c6101000a81548163ffffffff021916908363ffffffff16021790555050505050505050505061238880620003636000396000f300606060405260043610610180576000357c0100000000000000000000000000000000000000000000000000000000900463ffffffff16806304621ce814610185578063088c00f9146101ae5780630d34ca77146101eb5780630f15f4c0146102185780630f15f59f1461022d5780631001ffaf1461025e578063109e94cf1461028f5780631ad184ff146102e457806329d04065146103625780632eafe009146103975780633481a95a146103c057806342de4e9c1461042357806346439f47146105655780634bb278f3146105ba57806355a373d6146105cf578063663fd2ac1461062457806382b2e257146106ae57806383d6a1d9146106d7578063877a96b0146107005780638da5cb5b1461079a5780639d0c4fb3146107ef578063a3ac03081461082c578063bee22cea14610859578063c19d93fb1461086e578063c34763a0146108a5578063d08055821461097f578063d328c430146109ac578063ea9b9413146109e1578063f53e2c2414610a36578063ffa1ad7414610a5f575b600080fd5b341561019057600080fd5b610198610a90565b6040518082815260200191505060405180910390f35b34156101b957600080fd5b6101c1610ac9565b604051808267ffffffffffffffff1667ffffffffffffffff16815260200191505060405180910390f35b34156101f657600080fd5b6101fe610b19565b604051808215151515815260200191505060405180910390f35b341561022357600080fd5b61022b610b56565b005b341561023857600080fd5b610240610c92565b604051808261ffff1661ffff16815260200191505060405180910390f35b341561026957600080fd5b610271610ca6565b604051808261ffff1661ffff16815260200191505060405180910390f35b341561029a57600080fd5b6102a2610cba565b604051808273ffffffffffffffffffffffffffffffffffffffff1673ffffffffffffffffffffffffffffffffffffffff16815260200191505060405180910390f35b34156102ef57600080fd5b6102f7610ce0565b604051808b600281111561030757fe5b60ff1681526020018a815260200189815260200188815260200187815260200186815260200185815260200184151515158152602001831515151581526020018281526020019a505050505050505050505060405180910390f35b341561036d57600080fd5b610375610d7c565b604051808263ffffffff1663ffffffff16815260200191505060405180910390f35b34156103a257600080fd5b6103aa610d92565b6040518082815260200191505060405180910390f35b34156103cb57600080fd5b6103e16004808035906020019091905050610d98565b604051808273ffffffffffffffffffffffffffffffffffffffff1673ffffffffffffffffffffffffffffffffffffffff16815260200191505060405180910390f35b341561042e57600080fd5b610436610dd7565b6040518080602001806020018060200180602001858103855289818151815260200191508051906020019060200280838360005b8381101561048557808201518184015260208101905061046a565b50505050905001858103845288818151815260200191508051906020019060200280838360005b838110156104c75780820151818401526020810190506104ac565b50505050905001858103835287818151815260200191508051906020019060200280838360005b838110156105095780820151818401526020810190506104ee565b50505050905001858103825286818151815260200191508051906020019060200280838360005b8381101561054b578082015181840152602081019050610530565b505050509050019850505050505050505060405180910390f35b341561057057600080fd5b610578611060565b604051808273ffffffffffffffffffffffffffffffffffffffff1673ffffffffffffffffffffffffffffffffffffffff16815260200191505060405180910390f35b34156105c557600080fd5b6105cd611086565b005b34156105da57600080fd5b6105e2611136565b604051808273ffffffffffffffffffffffffffffffffffffffff1673ffffffffffffffffffffffffffffffffffffffff16815260200191505060405180910390f35b341561062f57600080fd5b61065b600480803573ffffffffffffffffffffffffffffffffffffffff1690602001909190505061115c565b60405180851515151581526020018463ffffffff1663ffffffff1681526020018363ffffffff1663ffffffff1681526020018263ffffffff1663ffffffff16815260200194505050505060405180910390f35b34156106b957600080fd5b6106c16111c9565b6040518082815260200191505060405180910390f35b34156106e257600080fd5b6106ea6112b0565b6040518082815260200191505060405180910390f35b341561070b57600080fd5b610798600480803590602001908201803590602001908080602002602001604051908101604052809392919081815260200183836020028082843782019150505050505091908035906020019082018035906020019080806020026020016040519081016040528093929190818152602001838360200280828437820191505050505050919050506112e4565b005b34156107a557600080fd5b6107ad6115c9565b604051808273ffffffffffffffffffffffffffffffffffffffff1673ffffffffffffffffffffffffffffffffffffffff16815260200191505060405180910390f35b34156107fa57600080fd5b6108026115ef565b604051808267ffffffffffffffff1667ffffffffffffffff16815260200191505060405180910390f35b341561083757600080fd5b61083f611609565b604051808215151515815260200191505060405180910390f35b341561086457600080fd5b61086c611619565b005b341561087957600080fd5b6108816117ff565b6040518082600281111561089157fe5b60ff16815260200191505060405180910390f35b34156108b057600080fd5b61097d6004808035906020019082018035906020019080806020026020016040519081016040528093929190818152602001838360200280828437820191505050505050919080359060200190820180359060200190808060200260200160405190810160405280939291908181526020018383602002808284378201915050505050509190803590602001908201803590602001908080602002602001604051908101604052809392919081815260200183836020028082843782019150505050505091905050611811565b005b341561098a57600080fd5b610992611ced565b604051808215151515815260200191505060405180910390f35b34156109b757600080fd5b6109bf611d0f565b604051808263ffffffff1663ffffffff16815260200191505060405180910390f35b34156109ec57600080fd5b6109f4611d25565b604051808273ffffffffffffffffffffffffffffffffffffffff1673ffffffffffffffffffffffffffffffffffffffff16815260200191505060405180910390f35b3415610a4157600080fd5b610a49611d4b565b6040518082815260200191505060405180910390f35b3415610a6a57600080fd5b610a72611d6e565b604051808261ffff1661ffff16815260200191505060405180910390f35b6000806000610a9d611d73565b80925081935050508082600460189054906101000a900463ffffffff16030363ffffffff169250505090565b6000610ad3611ced565b1515610ae25760009050610b16565b6004601c9054906101000a900463ffffffff1663ffffffff16600560009054906101000a900467ffffffffffffffff160190505b90565b6000610b23611ced565b8015610b515750610b32610ac9565b67ffffffffffffffff16610b44611e8f565b67ffffffffffffffff1610155b905090565b600080600160009054906101000a900473ffffffffffffffffffffffffffffffffffffffff168073ffffffffffffffffffffffffffffffffffffffff163373ffffffffffffffffffffffffffffffffffffffff16141515610bb657600080fd5b6000806002811115610bc457fe5b6000809054906101000a900460ff166002811115610bde57fe5b141515610bea57600080fd5b610bf26111c9565b9350610bfc6112b0565b9250828410151515610c0d57600080fd5b60016000806101000a81548160ff02191690836002811115610c2b57fe5b0217905550610c38611e8f565b600560006101000a81548167ffffffffffffffff021916908367ffffffffffffffff1602179055507fed1cd0670ee0c0017f550451a038818c696d0b6a9d6ce5b369e44275573cf9b060405160405180910390a150505050565b600460169054906101000a900461ffff1681565b600460149054906101000a900461ffff1681565b600160009054906101000a900473ffffffffffffffffffffffffffffffffffffffff1681565b6000806000806000806000806000806000809054906101000a900460ff169950600460189054906101000a900463ffffffff1663ffffffff1698506006549750610d286111c9565b9650610d32611d4b565b9550610d3c610a90565b9450610d466112b0565b9350610d50611609565b9250610d5a610b19565b9150610d64610ac9565b67ffffffffffffffff16905090919293949596979899565b600460189054906101000a900463ffffffff1681565b60065481565b600881815481101515610da757fe5b90600052602060002090016000915054906101000a900473ffffffffffffffffffffffffffffffffffffffff1681565b610ddf6122e3565b610de76122f7565b610def6122f7565b610df76122f7565b6000610e016122f7565b610e096122f7565b610e116122f7565b6000806000600880549050965086604051805910610e2c5750595b9080825280602002602001820160405250955086604051805910610e4d5750595b9080825280602002602001820160405250945086604051805910610e6e5750595b90808252806020026020018201604052509350600092505b86831015610fbe57600883815481101515610e9d57fe5b906000526020600020900160009054906101000a900473ffffffffffffffffffffffffffffffffffffffff169150600760008373ffffffffffffffffffffffffffffffffffffffff1673ffffffffffffffffffffffffffffffffffffffff16815260200190815260200160002090508060000160019054906101000a900463ffffffff1663ffffffff168684815181101515610f3557fe5b90602001906020020181815250508060000160059054906101000a900463ffffffff1663ffffffff168584815181101515610f6c57fe5b90602001906020020181815250508060000160099054906101000a900463ffffffff1663ffffffff168484815181101515610fa357fe5b90602001906020020181815250508280600101935050610e86565b60088686868380548060200260200160405190810160405280929190818152602001828054801561104457602002820191906000526020600020905b8160009054906101000a900473ffffffffffffffffffffffffffffffffffffffff1673ffffffffffffffffffffffffffffffffffffffff1681526020019060010190808311610ffa575b505050505093509a509a509a509a505050505050505090919293565b600360009054906101000a900473ffffffffffffffffffffffffffffffffffffffff1681565b600160009054906101000a900473ffffffffffffffffffffffffffffffffffffffff168073ffffffffffffffffffffffffffffffffffffffff163373ffffffffffffffffffffffffffffffffffffffff161415156110e357600080fd5b60018060028111156110f157fe5b6000809054906101000a900460ff16600281111561110b57fe5b14151561111757600080fd5b61111f611609565b151561112a57600080fd5b611132611e97565b5050565b600260009054906101000a900473ffffffffffffffffffffffffffffffffffffffff1681565b60076020528060005260406000206000915090508060000160009054906101000a900460ff16908060000160019054906101000a900463ffffffff16908060000160059054906101000a900463ffffffff16908060000160099054906101000a900463ffffffff16905084565b6000600260009054906101000a900473ffffffffffffffffffffffffffffffffffffffff1673ffffffffffffffffffffffffffffffffffffffff166370a08231306000604051602001526040518263ffffffff167c0100000000000000000000000000000000000000000000000000000000028152600401808273ffffffffffffffffffffffffffffffffffffffff1673ffffffffffffffffffffffffffffffffffffffff168152602001915050602060405180830381600087803b151561129057600080fd5b6102c65a03f115156112a157600080fd5b50505060405180519050905090565b60006112df600460189054906101000a900463ffffffff1663ffffffff16600654611ef090919063ffffffff16565b905090565b600080600080600080600060019054906101000a900473ffffffffffffffffffffffffffffffffffffffff168073ffffffffffffffffffffffffffffffffffffffff163373ffffffffffffffffffffffffffffffffffffffff1614151561134a57600080fd5b600180600281111561135857fe5b6000809054906101000a900460ff16600281111561137257fe5b14151561137e57600080fd5b88518a5114151561138e57600080fd5b600097505b89518810156115165789888151811015156113aa57fe5b906020019060200201519650600760008873ffffffffffffffffffffffffffffffffffffffff1673ffffffffffffffffffffffffffffffffffffffff16815260200190815260200160002095508560000160009054906101000a900460ff1615156114905760018660000160006101000a81548160ff02191690831515021790555060088054806001018281611440919061230b565b9160005260206000209001600089909190916101000a81548173ffffffffffffffffffffffffffffffffffffffff021916908373ffffffffffffffffffffffffffffffffffffffff160217905550505b888881518110151561149e57fe5b9060200190602002015194508560000160019054906101000a900463ffffffff1663ffffffff1685101515156114d357600080fd5b640100000000851015156114e657600080fd5b848660000160016101000a81548163ffffffff021916908363ffffffff1602179055508780600101985050611393565b61151e611d73565b8163ffffffff1691508063ffffffff1690508094508195505050600460189054906101000a900463ffffffff1663ffffffff168385011115151561156157600080fd5b611569611e8f565b600560006101000a81548167ffffffffffffffff021916908367ffffffffffffffff1602179055507fa2a39cf902dc415af242340d20e57d1afb51e76030e02c5f0053b569b1ee857860405160405180910390a150505050505050505050565b600060019054906101000a900473ffffffffffffffffffffffffffffffffffffffff1681565b600560009054906101000a900467ffffffffffffffff1681565b6000611613611ced565b15905090565b6000806000806000600180600281111561162f57fe5b6000809054906101000a900460ff16600281111561164957fe5b14151561165557600080fd5b61165d610b19565b151561166857600080fd5b600095505b6008805490508610156117ef5760088681548110151561168957fe5b906000526020600020900160009054906101000a900473ffffffffffffffffffffffffffffffffffffffff169450600760008673ffffffffffffffffffffffffffffffffffffffff1673ffffffffffffffffffffffffffffffffffffffff16815260200190815260200160002093508360000160099054906101000a900463ffffffff168460000160059054906101000a900463ffffffff168560000160019054906101000a900463ffffffff160303925060008363ffffffff1611156117e257828460000160058282829054906101000a900463ffffffff160192506101000a81548163ffffffff021916908363ffffffff16021790555061179d8363ffffffff16600654611ef090919063ffffffff16565b91506117e182600460149054906101000a900461ffff1661ffff16600360009054906101000a900473ffffffffffffffffffffffffffffffffffffffff1688611f23565b5b858060010196505061166d565b6117f7611e97565b505050505050565b6000809054906101000a900460ff1681565b600080600080600080600080600080600160009054906101000a900473ffffffffffffffffffffffffffffffffffffffff168073ffffffffffffffffffffffffffffffffffffffff163373ffffffffffffffffffffffffffffffffffffffff1614151561187d57600080fd5b600180600281111561188b57fe5b6000809054906101000a900460ff1660028111156118a557fe5b1415156118b157600080fd5b8d518f511415156118c157600080fd5b8c518f511415156118d157600080fd5b60009b505b8e518c1015611c80578e8c8151811015156118ed57fe5b906020019060200201519a50600760008c73ffffffffffffffffffffffffffffffffffffffff1673ffffffffffffffffffffffffffffffffffffffff16815260200190815260200160002099508960000160009054906101000a900460ff16151561195757600080fd5b8d8c81518110151561196557fe5b9060200190602002015198508c8c81518110151561197f57fe5b9060200190602002015197508960000160059054906101000a900463ffffffff1663ffffffff1689101515156119b457600080fd5b8960000160099054906101000a900463ffffffff1663ffffffff1688101515156119dd57600080fd5b6119f0888a61216690919063ffffffff16565b96508960000160019054906101000a900463ffffffff1663ffffffff1687141515611a1a57600080fd5b8960000160059054906101000a900463ffffffff1663ffffffff16890395508960000160099054906101000a900463ffffffff1663ffffffff1688039450600086141515611abc57611a7786600654611ef090919063ffffffff16565b9350611abb84600460149054906101000a900461ffff1661ffff16600360009054906101000a900473ffffffffffffffffffffffffffffffffffffffff168e611f23565b5b600085141515611c2d57611b156103e8611b07600460169054906101000a900461ffff1661ffff16611af989600654611ef090919063ffffffff16565b611ef090919063ffffffff16565b61218490919063ffffffff16565b9250600260009054906101000a900473ffffffffffffffffffffffffffffffffffffffff1673ffffffffffffffffffffffffffffffffffffffff1663a9059cbb600460009054906101000a900473ffffffffffffffffffffffffffffffffffffffff16856000604051602001526040518363ffffffff167c0100000000000000000000000000000000000000000000000000000000028152600401808373ffffffffffffffffffffffffffffffffffffffff1673ffffffffffffffffffffffffffffffffffffffff16815260200182815260200192505050602060405180830381600087803b1515611c0657600080fd5b6102c65a03f11515611c1757600080fd5b505050604051805190501515611c2c57600080fd5b5b888a60000160056101000a81548163ffffffff021916908363ffffffff160217905550878a60000160096101000a81548163ffffffff021916908363ffffffff1602179055508b806001019c50506118d6565b611c88611e8f565b600560006101000a81548167ffffffffffffffff021916908367ffffffffffffffff1602179055507fa2a39cf902dc415af242340d20e57d1afb51e76030e02c5f0053b569b1ee857860405160405180910390a1505050505050505050505050505050565b600080611cf8611d73565b90508091505060008163ffffffff16141591505090565b6004601c9054906101000a900463ffffffff1681565b600460009054906101000a900473ffffffffffffffffffffffffffffffffffffffff1681565b6000611d69600654611d5b6111c9565b61218490919063ffffffff16565b905090565b600181565b600080600080600080600080945060009350600092505b600880549050831015611e805760076000600885815481101515611daa57fe5b906000526020600020900160009054906101000a900473ffffffffffffffffffffffffffffffffffffffff1673ffffffffffffffffffffffffffffffffffffffff1673ffffffffffffffffffffffffffffffffffffffff16815260200190815260200160002091508160000160099054906101000a900463ffffffff168260000160059054906101000a900463ffffffff168360000160019054906101000a900463ffffffff16030390508160000160059054906101000a900463ffffffff168501945080840193508280600101935050611d8a565b84849650965050505050509091565b600042905090565b60026000806101000a81548160ff02191690836002811115611eb557fe5b0217905550611ec261219f565b7f6823b073d48d6e3a7d385eeb601452d680e74bb46afe3255a7d778f3a9b1768160405160405180910390a1565b60008082840290506000841480611f115750828482811515611f0e57fe5b04145b1515611f1957fe5b8091505092915050565b600080611f4d6103e8611f3f8789611ef090919063ffffffff16565b61218490919063ffffffff16565b9150611f6282876122ca90919063ffffffff16565b9050600082111561206157600260009054906101000a900473ffffffffffffffffffffffffffffffffffffffff1673ffffffffffffffffffffffffffffffffffffffff1663a9059cbb85846000604051602001526040518363ffffffff167c0100000000000000000000000000000000000000000000000000000000028152600401808373ffffffffffffffffffffffffffffffffffffffff1673ffffffffffffffffffffffffffffffffffffffff16815260200182815260200192505050602060405180830381600087803b151561203a57600080fd5b6102c65a03f1151561204b57600080fd5b50505060405180519050151561206057600080fd5b5b600081111561215e57600260009054906101000a900473ffffffffffffffffffffffffffffffffffffffff1673ffffffffffffffffffffffffffffffffffffffff1663a9059cbb84836000604051602001526040518363ffffffff167c0100000000000000000000000000000000000000000000000000000000028152600401808373ffffffffffffffffffffffffffffffffffffffff1673ffffffffffffffffffffffffffffffffffffffff16815260200182815260200192505050602060405180830381600087803b151561213757600080fd5b6102c65a03f1151561214857600080fd5b50505060405180519050151561215d57600080fd5b5b505050505050565b600080828401905083811015151561217a57fe5b8091505092915050565b600080828481151561219257fe5b0490508091505092915050565b60006121a96111c9565b905060008111156122c757600260009054906101000a900473ffffffffffffffffffffffffffffffffffffffff1673ffffffffffffffffffffffffffffffffffffffff1663a9059cbb600160009054906101000a900473ffffffffffffffffffffffffffffffffffffffff16836000604051602001526040518363ffffffff167c0100000000000000000000000000000000000000000000000000000000028152600401808373ffffffffffffffffffffffffffffffffffffffff1673ffffffffffffffffffffffffffffffffffffffff16815260200182815260200192505050602060405180830381600087803b15156122a357600080fd5b6102c65a03f115156122b457600080fd5b5050506040518051905015156122c657fe5b5b50565b60008282111515156122d857fe5b818303905092915050565b602060405190810160405280600081525090565b602060405190810160405280600081525090565b815481835581811511612332578183600052602060002091820191016123319190612337565b5b505050565b61235991905b8082111561235557600081600090555060010161233d565b5090565b905600a165627a7a72305820bf04591ebcaf4e9fca183e5b2ccf1ea4b44c0eb58f1360145f6de98e799962d20029",
  "source": "pragma solidity ^0.4.17;\n\nimport \"./ERC20.sol\";\nimport \"./SafeMath.sol\";\n\n\ncontract GGProject {\n  using SafeMath for uint256;\n\n  event Activated();\n  event UpdatedPerformance();\n  event Finalized();\n\n  enum State {\n    New,\n    Active,\n    Finalized\n  }\n\n  uint16 public constant VERSION = 1;\n  State public state = State.New;\n\n  address public owner = msg.sender;\n  address public client;\n\n  ERC20 public tokenContract;\n  address public approvalCommissionBenificiary;\n  address public disapprovalCommissionBeneficiary;\n\n  uint16 public approvalCommissionFractionThousands;\n  uint16 public disapprovalCommissionFractionThousands;\n  uint32 public totalWorkItems;\n  uint32 public autoApprovalTimeoutSec;\n  uint64 public performanceUpdatedAt;\n  uint256 public workItemPrice;\n\n  struct ContractorPerformance {\n    bool isSet;\n    uint32 totalItems;\n    uint32 approvedItems;\n    uint32 declinedItems;\n  }\n\n  mapping(address => ContractorPerformance) public performanceByContractor;\n  address[] public contractors;\n\n  modifier atState(State _state) {\n    require(state == _state);\n    _;\n  }\n\n  modifier allowOnly(address callerAddress) {\n    require(msg.sender == callerAddress);\n    _;\n  }\n\n  function GGProject(\n    address _tokenContractAddress,\n    address _clientAddress,\n    address _approvalCommissionBenificiaryAddress,\n    address _disapprovalCommissionBeneficiaryAddress,\n    uint256 _approvalCommissionFractionThousands,\n    uint256 _disapprovalCommissionFractionThousands,\n    uint256 _totalWorkItems,\n    uint256 _workItemPrice,\n    uint256 _autoApprovalTimeoutSec\n  ) public {\n    require(_tokenContractAddress != 0);\n    require(_clientAddress != 0);\n    require(_approvalCommissionBenificiaryAddress != 0);\n    require(_disapprovalCommissionBeneficiaryAddress != 0);\n\n    require(_approvalCommissionFractionThousands <= 1000);\n    require(_disapprovalCommissionFractionThousands <= 1000);\n\n    require(_totalWorkItems < 2 ** 32);\n    require(_autoApprovalTimeoutSec < 2 ** 32);\n\n    client = _clientAddress;\n    tokenContract = ERC20(_tokenContractAddress);\n    approvalCommissionBenificiary = _approvalCommissionBenificiaryAddress;\n    disapprovalCommissionBeneficiary = _disapprovalCommissionBeneficiaryAddress;\n\n    approvalCommissionFractionThousands = uint16(_approvalCommissionFractionThousands);\n    disapprovalCommissionFractionThousands = uint16(_disapprovalCommissionFractionThousands);\n\n    totalWorkItems = uint32(_totalWorkItems);\n    workItemPrice = _workItemPrice;\n    autoApprovalTimeoutSec = uint32(_autoApprovalTimeoutSec);\n  }\n\n  function activate() public allowOnly(client) atState(State.New) {\n    uint256 tokenBalance = getTokenBalance();\n    uint256 requiredInitialTokenBalance = getRequiredInitialTokenBalance();\n\n    require(tokenBalance >= requiredInitialTokenBalance);\n\n    state = State.Active;\n    performanceUpdatedAt = getTimestamp();\n    Activated();\n  }\n\n  function describe() external view returns (\n    State _state,\n    uint256 _totalWorkItems,\n    uint256 _workItemPrice,\n    uint256 _tokenBalance,\n    uint256 _workItemsBalance,\n    uint256 _workItemsLeft,\n    uint256 _requiredInitialTokenBalance,\n    bool _canFinalize,\n    bool _canForceFinalize,\n    uint256 _canForceFinalizeAt\n  ) {\n    _state = state;\n    _totalWorkItems = totalWorkItems;\n    _workItemPrice = workItemPrice;\n    _tokenBalance = getTokenBalance();\n    _workItemsBalance = getWorkItemsBalance();\n    _workItemsLeft = getWorkItemsLeft();\n    _requiredInitialTokenBalance = getRequiredInitialTokenBalance();\n    _canFinalize = getCanFinalize();\n    _canForceFinalize = getCanForceFinalize();\n    _canForceFinalizeAt = getCanForceFinalizeAt();\n  }\n\n  function getRequiredInitialTokenBalance() public view returns (uint256) {\n    return workItemPrice.mul(totalWorkItems);\n  }\n\n  function getTokenBalance() public view returns (uint256) {\n    return tokenContract.balanceOf(address(this));\n  }\n\n  function getWorkItemsBalance() public view returns (uint256) {\n    return getTokenBalance().div(workItemPrice);\n  }\n\n  /**\n   * How many items are either already approved or awaiting client review. That is,\n   * how many items we can additionally distribute between contractors at the moment.\n   */\n  function getWorkItemsLeft() public view returns (uint256) {\n    uint32 totalApprovedItems;\n    uint32 totalPendingItems;\n    (totalApprovedItems, totalPendingItems) = _getPerformanceTotals();\n    // We know this won't wrap around zero, see comments in _getPerformanceTotals.\n    return totalWorkItems - totalApprovedItems - totalPendingItems;\n  }\n\n  function hasPendingItems() public view returns (bool) {\n    uint32 totalPendingItems;\n    (, totalPendingItems) = _getPerformanceTotals();\n    return totalPendingItems != 0;\n  }\n\n  function getCanFinalize() public view returns (bool) {\n    return !hasPendingItems();\n  }\n\n  function getCanForceFinalizeAt() public view returns (uint64) {\n    if (!hasPendingItems()) return 0;\n    return performanceUpdatedAt + autoApprovalTimeoutSec;\n  }\n\n  function getCanForceFinalize() public view returns (bool) {\n    return hasPendingItems() && getTimestamp() >= getCanForceFinalizeAt();\n  }\n\n  function getPerformance() external view returns (address[], uint256[], uint256[], uint256[]) {\n    uint256 totalContractors = contractors.length;\n\n    uint256[] memory totalItems = new uint256[](totalContractors);\n    uint256[] memory approvedItems = new uint256[](totalContractors);\n    uint256[] memory declinedItems = new uint256[](totalContractors);\n\n    for (uint256 i = 0; i < totalContractors; i++) {\n      address addr = contractors[i];\n      ContractorPerformance storage perf = performanceByContractor[addr];\n      totalItems[i] = perf.totalItems;\n      approvedItems[i] = perf.approvedItems;\n      declinedItems[i] = perf.declinedItems;\n    }\n\n    return (contractors, totalItems, approvedItems, declinedItems);\n  }\n\n  function updateTotals(address[] contractorAddrs, uint256[] totalItems) public\n    allowOnly(owner)\n    atState(State.Active)\n  {\n    require(contractorAddrs.length == totalItems.length);\n\n    uint256 i;\n\n    for (i = 0; i < contractorAddrs.length; i++) {\n      address addr = contractorAddrs[i];\n      ContractorPerformance storage perf = performanceByContractor[addr];\n\n      if (!perf.isSet) {\n        // this is a new contractor\n        perf.isSet = true;\n        contractors.push(addr);\n      }\n\n      uint256 newTotalItems = totalItems[i];\n\n      require(newTotalItems >= perf.totalItems);\n      require(newTotalItems < 2 ** 32);\n\n      perf.totalItems = uint32(newTotalItems);\n    }\n\n    // We need to ensure that, after calling updateTotals, we don't end up in a situation\n    // when, if client later approves everything, the total number of approved items will\n    // exceed totalWorkItems. This means that total number of either approved or pending\n    // items should not exceed totalWorkItems.\n\n    uint256 totalApprovedItems;\n    uint256 totalPendingItems;\n    (totalApprovedItems, totalPendingItems) = _getPerformanceTotals();\n\n    require(totalApprovedItems + totalPendingItems <= totalWorkItems);\n    performanceUpdatedAt = getTimestamp();\n    UpdatedPerformance();\n  }\n\n  function updatePerformance(\n    address[] contractorAddrs,\n    uint256[] approvedItems,\n    uint256[] declinedItems\n  ) public\n    allowOnly(client)\n    atState(State.Active)\n  {\n    require(contractorAddrs.length == approvedItems.length);\n    require(contractorAddrs.length == declinedItems.length);\n\n    for (uint256 i = 0; i < contractorAddrs.length; i++) {\n      address addr = contractorAddrs[i];\n      ContractorPerformance storage perf = performanceByContractor[addr];\n\n      // require that contractor is already known from previous updateTotals() call\n      require(perf.isSet);\n\n      uint256 newApprovedItems = approvedItems[i];\n      uint256 newDeclinedItems = declinedItems[i];\n\n      require(newApprovedItems >= perf.approvedItems);\n      require(newDeclinedItems >= perf.declinedItems);\n\n      uint256 newTotalItems = newApprovedItems.add(newDeclinedItems);\n      require(newTotalItems == perf.totalItems);\n\n      uint256 dApprovedItems = newApprovedItems - perf.approvedItems;\n      uint256 dDeclinedItems = newDeclinedItems - perf.declinedItems;\n\n      if (dApprovedItems != 0) {\n        uint256 totalFeeAmount = workItemPrice.mul(dApprovedItems);\n        _splitTransferTokens(\n          totalFeeAmount,\n          approvalCommissionFractionThousands,\n          approvalCommissionBenificiary,\n          addr\n        );\n      }\n\n      if (dDeclinedItems != 0) {\n        uint256 commissionAmount = workItemPrice\n          .mul(dDeclinedItems)\n          .mul(disapprovalCommissionFractionThousands)\n          .div(1000);\n        require(tokenContract.transfer(disapprovalCommissionBeneficiary, commissionAmount));\n      }\n\n      // We know both these numbers fit into uint32 since their sum\n      // equals to perf.totalItems, which is itself uint32.\n      perf.approvedItems = uint32(newApprovedItems);\n      perf.declinedItems = uint32(newDeclinedItems);\n    }\n\n    performanceUpdatedAt = getTimestamp();\n    UpdatedPerformance();\n  }\n\n  function finalize() public allowOnly(client) atState(State.Active) {\n    require(getCanFinalize());\n    _finalizeAndRefundClient();\n  }\n\n  function forceFinalize() public atState(State.Active) {\n    require(getCanForceFinalize());\n\n    for (uint256 i = 0; i < contractors.length; i++) {\n      address contractorAddr = contractors[i];\n      ContractorPerformance storage perf = performanceByContractor[contractorAddr];\n      uint32 pendingItems = perf.totalItems - perf.approvedItems - perf.declinedItems;\n      if (pendingItems > 0) {\n        perf.approvedItems += pendingItems;\n        uint256 totalFeeAmount = workItemPrice.mul(pendingItems);\n        _splitTransferTokens(\n          totalFeeAmount,\n          approvalCommissionFractionThousands,\n          approvalCommissionBenificiary,\n          contractorAddr\n        );\n      }\n    }\n\n    _finalizeAndRefundClient();\n  }\n\n  function _splitTransferTokens(\n    uint256 amount,\n    uint256 fractionThousandsA,\n    address addressA,\n    address addressB\n  ) internal\n  {\n    uint256 amountA = amount.mul(fractionThousandsA).div(1000);\n    uint256 amountB = amount.sub(amountA);\n    if (amountA > 0) {\n      require(tokenContract.transfer(addressA, amountA));\n    }\n    if (amountB > 0) {\n      require(tokenContract.transfer(addressB, amountB));\n    }\n  }\n\n  function _finalizeAndRefundClient() internal {\n    state = State.Finalized;\n    _refundClient();\n    Finalized();\n  }\n\n  function _refundClient() internal {\n    uint256 tokenBalance = getTokenBalance();\n    if (tokenBalance > 0) {\n      assert(tokenContract.transfer(client, tokenBalance));\n    }\n  }\n\n  // Returns (uint32 totalApprovedItems, uint32 totalPendingItems).\n  //\n  function _getPerformanceTotals() internal view returns (uint32, uint32) {\n    uint32 totalApprovedItems = 0;\n    uint32 totalPendingItems = 0;\n\n    for (uint256 i = 0; i < contractors.length; i++) {\n      ContractorPerformance storage perf = performanceByContractor[contractors[i]];\n      // We know that sum of approvedItems and declinedItems is less than or equal to\n      // totalItems since we're checking this in updatePerformance, which is the only\n      // place these values get updated.\n      uint32 pendingItems = perf.totalItems - perf.approvedItems - perf.declinedItems;\n      // We know that sum of perf.totalItems for all contractors is less than totalWorkItems,\n      // which is uint32, since we're checking this in updateTotals, which is the only place\n      // perf.totalItems get updated. So we know that both sum of all perf.approvedItems and\n      // and sum of all pendingItems fit into uint32, since both of these values are less\n      // than or equal to perf.totalItems (see above).\n      totalApprovedItems += perf.approvedItems;\n      totalPendingItems += pendingItems;\n    }\n\n    return (totalApprovedItems, totalPendingItems);\n  }\n\n  // We can rely on the value of block.timestamp for our purposes, as the consensus\n  // rule is that a block's timestamp must be 1) more than the parent's block timestamp;\n  // and 2) less than the current wall clock time. See:\n  // https://github.com/ethereum/go-ethereum/blob/885c13c/consensus/ethash/consensus.go#L223\n  //\n  function getTimestamp() internal view returns (uint64) {\n    return uint64(block.timestamp);\n  }\n}\n",
  "sourcePath": "/Users/sam/dev/projects/gg/smart-contracts/truffle/contracts/GGProject.sol",
  "compiler": {
    "name": "solc",
    "version": "0.4.19+commit.c4cbbb05.Emscripten.clang"
  },
  "schemaVersion": "2.0.0",
  "updatedAt": "2018-03-21T21:21:56.467Z"
}